{
	"contracts/Govern.sol": {
		"Govern": {
			"abi": [
				{
					"inputs": [],
					"stateMutability": "nonpayable",
					"type": "constructor"
				},
				{
					"anonymous": false,
					"inputs": [
						{
							"indexed": true,
							"internalType": "address",
							"name": "owner",
							"type": "address"
						},
						{
							"indexed": true,
							"internalType": "address",
							"name": "spender",
							"type": "address"
						},
						{
							"indexed": false,
							"internalType": "uint256",
							"name": "value",
							"type": "uint256"
						}
					],
					"name": "Approval",
					"type": "event"
				},
				{
					"anonymous": false,
					"inputs": [
						{
							"indexed": true,
							"internalType": "address",
							"name": "from",
							"type": "address"
						},
						{
							"indexed": true,
							"internalType": "address",
							"name": "to",
							"type": "address"
						},
						{
							"indexed": false,
							"internalType": "uint256",
							"name": "value",
							"type": "uint256"
						}
					],
					"name": "Transfer",
					"type": "event"
				},
				{
					"inputs": [
						{
							"internalType": "address",
							"name": "owner",
							"type": "address"
						},
						{
							"internalType": "address",
							"name": "spender",
							"type": "address"
						}
					],
					"name": "allowance",
					"outputs": [
						{
							"internalType": "uint256",
							"name": "",
							"type": "uint256"
						}
					],
					"stateMutability": "view",
					"type": "function"
				},
				{
					"inputs": [
						{
							"internalType": "address",
							"name": "spender",
							"type": "address"
						},
						{
							"internalType": "uint256",
							"name": "amount",
							"type": "uint256"
						}
					],
					"name": "approve",
					"outputs": [
						{
							"internalType": "bool",
							"name": "",
							"type": "bool"
						}
					],
					"stateMutability": "nonpayable",
					"type": "function"
				},
				{
					"inputs": [
						{
							"internalType": "address",
							"name": "account",
							"type": "address"
						}
					],
					"name": "balanceOf",
					"outputs": [
						{
							"internalType": "uint256",
							"name": "",
							"type": "uint256"
						}
					],
					"stateMutability": "view",
					"type": "function"
				},
				{
					"inputs": [
						{
							"internalType": "uint256",
							"name": "_amount",
							"type": "uint256"
						}
					],
					"name": "buy",
					"outputs": [],
					"stateMutability": "nonpayable",
					"type": "function"
				},
				{
					"inputs": [],
					"name": "decimals",
					"outputs": [
						{
							"internalType": "uint8",
							"name": "",
							"type": "uint8"
						}
					],
					"stateMutability": "view",
					"type": "function"
				},
				{
					"inputs": [
						{
							"internalType": "address",
							"name": "spender",
							"type": "address"
						},
						{
							"internalType": "uint256",
							"name": "subtractedValue",
							"type": "uint256"
						}
					],
					"name": "decreaseAllowance",
					"outputs": [
						{
							"internalType": "bool",
							"name": "",
							"type": "bool"
						}
					],
					"stateMutability": "nonpayable",
					"type": "function"
				},
				{
					"inputs": [
						{
							"internalType": "address",
							"name": "spender",
							"type": "address"
						},
						{
							"internalType": "uint256",
							"name": "addedValue",
							"type": "uint256"
						}
					],
					"name": "increaseAllowance",
					"outputs": [
						{
							"internalType": "bool",
							"name": "",
							"type": "bool"
						}
					],
					"stateMutability": "nonpayable",
					"type": "function"
				},
				{
					"inputs": [],
					"name": "name",
					"outputs": [
						{
							"internalType": "string",
							"name": "",
							"type": "string"
						}
					],
					"stateMutability": "view",
					"type": "function"
				},
				{
					"inputs": [
						{
							"internalType": "uint256",
							"name": "",
							"type": "uint256"
						}
					],
					"name": "proposals",
					"outputs": [
						{
							"internalType": "uint256",
							"name": "yesCount",
							"type": "uint256"
						},
						{
							"internalType": "uint256",
							"name": "noCount",
							"type": "uint256"
						}
					],
					"stateMutability": "view",
					"type": "function"
				},
				{
					"inputs": [
						{
							"internalType": "uint256",
							"name": "_amount",
							"type": "uint256"
						}
					],
					"name": "sell",
					"outputs": [],
					"stateMutability": "nonpayable",
					"type": "function"
				},
				{
					"inputs": [],
					"name": "symbol",
					"outputs": [
						{
							"internalType": "string",
							"name": "",
							"type": "string"
						}
					],
					"stateMutability": "view",
					"type": "function"
				},
				{
					"inputs": [],
					"name": "totalSupply",
					"outputs": [
						{
							"internalType": "uint256",
							"name": "",
							"type": "uint256"
						}
					],
					"stateMutability": "view",
					"type": "function"
				},
				{
					"inputs": [
						{
							"internalType": "address",
							"name": "to",
							"type": "address"
						},
						{
							"internalType": "uint256",
							"name": "amount",
							"type": "uint256"
						}
					],
					"name": "transfer",
					"outputs": [
						{
							"internalType": "bool",
							"name": "",
							"type": "bool"
						}
					],
					"stateMutability": "nonpayable",
					"type": "function"
				},
				{
					"inputs": [
						{
							"internalType": "address",
							"name": "from",
							"type": "address"
						},
						{
							"internalType": "address",
							"name": "to",
							"type": "address"
						},
						{
							"internalType": "uint256",
							"name": "amount",
							"type": "uint256"
						}
					],
					"name": "transferFrom",
					"outputs": [
						{
							"internalType": "bool",
							"name": "",
							"type": "bool"
						}
					],
					"stateMutability": "nonpayable",
					"type": "function"
				},
				{
					"inputs": [
						{
							"internalType": "uint256",
							"name": "_proposalId",
							"type": "uint256"
						},
						{
							"internalType": "bool",
							"name": "_supports",
							"type": "bool"
						}
					],
					"name": "vote",
					"outputs": [],
					"stateMutability": "nonpayable",
					"type": "function"
				}
			],
			"devdoc": {
				"kind": "dev",
				"methods": {
					"allowance(address,address)": {
						"details": "See {IERC20-allowance}."
					},
					"approve(address,uint256)": {
						"details": "See {IERC20-approve}. NOTE: If `amount` is the maximum `uint256`, the allowance is not updated on `transferFrom`. This is semantically equivalent to an infinite approval. Requirements: - `spender` cannot be the zero address."
					},
					"balanceOf(address)": {
						"details": "See {IERC20-balanceOf}."
					},
					"decimals()": {
						"details": "Returns the number of decimals used to get its user representation. For example, if `decimals` equals `2`, a balance of `505` tokens should be displayed to a user as `5.05` (`505 / 10 ** 2`). Tokens usually opt for a value of 18, imitating the relationship between Ether and Wei. This is the value {ERC20} uses, unless this function is overridden; NOTE: This information is only used for _display_ purposes: it in no way affects any of the arithmetic of the contract, including {IERC20-balanceOf} and {IERC20-transfer}."
					},
					"decreaseAllowance(address,uint256)": {
						"details": "Atomically decreases the allowance granted to `spender` by the caller. This is an alternative to {approve} that can be used as a mitigation for problems described in {IERC20-approve}. Emits an {Approval} event indicating the updated allowance. Requirements: - `spender` cannot be the zero address. - `spender` must have allowance for the caller of at least `subtractedValue`."
					},
					"increaseAllowance(address,uint256)": {
						"details": "Atomically increases the allowance granted to `spender` by the caller. This is an alternative to {approve} that can be used as a mitigation for problems described in {IERC20-approve}. Emits an {Approval} event indicating the updated allowance. Requirements: - `spender` cannot be the zero address."
					},
					"name()": {
						"details": "Returns the name of the token."
					},
					"symbol()": {
						"details": "Returns the symbol of the token, usually a shorter version of the name."
					},
					"totalSupply()": {
						"details": "See {IERC20-totalSupply}."
					},
					"transfer(address,uint256)": {
						"details": "See {IERC20-transfer}. Requirements: - `to` cannot be the zero address. - the caller must have a balance of at least `amount`."
					},
					"transferFrom(address,address,uint256)": {
						"details": "See {IERC20-transferFrom}. Emits an {Approval} event indicating the updated allowance. This is not required by the EIP. See the note at the beginning of {ERC20}. NOTE: Does not update the allowance if the current allowance is the maximum `uint256`. Requirements: - `from` and `to` cannot be the zero address. - `from` must have a balance of at least `amount`. - the caller must have allowance for ``from``'s tokens of at least `amount`."
					}
				},
				"version": 1
			},
			"evm": {
				"assembly": "    /* \"contracts/Govern.sol\":86:1171  contract Govern is ERC20 {\r... */\n  mstore(0x40, 0x80)\n    /* \"contracts/Govern.sol\":441:480  constructor() ERC20(\"Govern\", \"GOV\") {} */\n  callvalue\n  dup1\n  iszero\n  tag_1\n  jumpi\n  0x00\n  dup1\n  revert\ntag_1:\n  pop\n    /* \"contracts/ERC20.sol\":2029:2145  constructor(string memory name_, string memory symbol_) {\r... */\n  mload(0x40)\n  dup1\n  0x40\n  add\n  0x40\n  mstore\n  dup1\n  0x06\n  dup2\n  mstore\n  0x20\n  add\n  0x476f7665726e0000000000000000000000000000000000000000000000000000\n  dup2\n  mstore\n  pop\n  mload(0x40)\n  dup1\n  0x40\n  add\n  0x40\n  mstore\n  dup1\n  0x03\n  dup2\n  mstore\n  0x20\n  add\n  0x474f560000000000000000000000000000000000000000000000000000000000\n  dup2\n  mstore\n  pop\n    /* \"contracts/ERC20.sol\":2104:2109  name_ */\n  dup2\n    /* \"contracts/ERC20.sol\":2096:2101  _name */\n  0x03\n    /* \"contracts/ERC20.sol\":2096:2109  _name = name_ */\n  swap1\n  dup1\n  mload\n  swap1\n  0x20\n  add\n  swap1\n  tag_5\n  swap3\n  swap2\n  swap1\n  tag_6\n  jump\t// in\ntag_5:\n  pop\n    /* \"contracts/ERC20.sol\":2130:2137  symbol_ */\n  dup1\n    /* \"contracts/ERC20.sol\":2120:2127  _symbol */\n  0x04\n    /* \"contracts/ERC20.sol\":2120:2137  _symbol = symbol_ */\n  swap1\n  dup1\n  mload\n  swap1\n  0x20\n  add\n  swap1\n  tag_7\n  swap3\n  swap2\n  swap1\n  tag_6\n  jump\t// in\ntag_7:\n  pop\n    /* \"contracts/ERC20.sol\":2029:2145  constructor(string memory name_, string memory symbol_) {\r... */\n  pop\n  pop\n    /* \"contracts/Govern.sol\":86:1171  contract Govern is ERC20 {\r... */\n  jump(tag_9)\ntag_6:\n  dup3\n  dup1\n  sload\n  tag_10\n  swap1\n  tag_11\n  jump\t// in\ntag_10:\n  swap1\n  0x00\n  mstore\n  keccak256(0x00, 0x20)\n  swap1\n  0x1f\n  add\n  0x20\n  swap1\n  div\n  dup2\n  add\n  swap3\n  dup3\n  tag_13\n  jumpi\n  0x00\n  dup6\n  sstore\n  jump(tag_12)\ntag_13:\n  dup3\n  0x1f\n  lt\n  tag_14\n  jumpi\n  dup1\n  mload\n  not(0xff)\n  and\n  dup4\n  dup1\n  add\n  or\n  dup6\n  sstore\n  jump(tag_12)\ntag_14:\n  dup3\n  dup1\n  add\n  0x01\n  add\n  dup6\n  sstore\n  dup3\n  iszero\n  tag_12\n  jumpi\n  swap2\n  dup3\n  add\ntag_15:\n  dup3\n  dup2\n  gt\n  iszero\n  tag_16\n  jumpi\n  dup3\n  mload\n  dup3\n  sstore\n  swap2\n  0x20\n  add\n  swap2\n  swap1\n  0x01\n  add\n  swap1\n  jump(tag_15)\ntag_16:\ntag_12:\n  pop\n  swap1\n  pop\n  tag_17\n  swap2\n  swap1\n  tag_18\n  jump\t// in\ntag_17:\n  pop\n  swap1\n  jump\t// out\ntag_18:\ntag_19:\n  dup1\n  dup3\n  gt\n  iszero\n  tag_20\n  jumpi\n  0x00\n  dup2\n  0x00\n  swap1\n  sstore\n  pop\n  0x01\n  add\n  jump(tag_19)\ntag_20:\n  pop\n  swap1\n  jump\t// out\n    /* \"#utility.yul\":7:327   */\ntag_11:\n  0x00\n    /* \"#utility.yul\":88:89   */\n  0x02\n    /* \"#utility.yul\":82:86   */\n  dup3\n    /* \"#utility.yul\":78:90   */\n  div\n    /* \"#utility.yul\":68:90   */\n  swap1\n  pop\n    /* \"#utility.yul\":135:136   */\n  0x01\n    /* \"#utility.yul\":129:133   */\n  dup3\n    /* \"#utility.yul\":125:137   */\n  and\n    /* \"#utility.yul\":156:174   */\n  dup1\n    /* \"#utility.yul\":146:148   */\n  tag_23\n  jumpi\n    /* \"#utility.yul\":212:216   */\n  0x7f\n    /* \"#utility.yul\":204:210   */\n  dup3\n    /* \"#utility.yul\":200:217   */\n  and\n    /* \"#utility.yul\":190:217   */\n  swap2\n  pop\n    /* \"#utility.yul\":146:148   */\ntag_23:\n    /* \"#utility.yul\":274:276   */\n  0x20\n    /* \"#utility.yul\":266:272   */\n  dup3\n    /* \"#utility.yul\":263:277   */\n  lt\n    /* \"#utility.yul\":243:261   */\n  dup2\n    /* \"#utility.yul\":240:278   */\n  eq\n    /* \"#utility.yul\":237:239   */\n  iszero\n  tag_24\n  jumpi\n    /* \"#utility.yul\":293:311   */\n  tag_25\n  tag_26\n  jump\t// in\ntag_25:\n    /* \"#utility.yul\":237:239   */\ntag_24:\n    /* \"#utility.yul\":58:327   */\n  pop\n  swap2\n  swap1\n  pop\n  jump\t// out\n    /* \"#utility.yul\":333:513   */\ntag_26:\n    /* \"#utility.yul\":381:458   */\n  0x4e487b7100000000000000000000000000000000000000000000000000000000\n    /* \"#utility.yul\":378:379   */\n  0x00\n    /* \"#utility.yul\":371:459   */\n  mstore\n    /* \"#utility.yul\":478:482   */\n  0x22\n    /* \"#utility.yul\":475:476   */\n  0x04\n    /* \"#utility.yul\":468:483   */\n  mstore\n    /* \"#utility.yul\":502:506   */\n  0x24\n    /* \"#utility.yul\":499:500   */\n  0x00\n    /* \"#utility.yul\":492:507   */\n  revert\n    /* \"contracts/Govern.sol\":86:1171  contract Govern is ERC20 {\r... */\ntag_9:\n  dataSize(sub_0)\n  dup1\n  dataOffset(sub_0)\n  0x00\n  codecopy\n  0x00\n  return\nstop\n\nsub_0: assembly {\n        /* \"contracts/Govern.sol\":86:1171  contract Govern is ERC20 {\r... */\n      mstore(0x40, 0x80)\n      callvalue\n      dup1\n      iszero\n      tag_1\n      jumpi\n      0x00\n      dup1\n      revert\n    tag_1:\n      pop\n      jumpi(tag_2, lt(calldatasize, 0x04))\n      shr(0xe0, calldataload(0x00))\n      dup1\n      0x70a08231\n      gt\n      tag_18\n      jumpi\n      dup1\n      0xc9d27afe\n      gt\n      tag_19\n      jumpi\n      dup1\n      0xc9d27afe\n      eq\n      tag_14\n      jumpi\n      dup1\n      0xd96a094a\n      eq\n      tag_15\n      jumpi\n      dup1\n      0xdd62ed3e\n      eq\n      tag_16\n      jumpi\n      dup1\n      0xe4849b32\n      eq\n      tag_17\n      jumpi\n      jump(tag_2)\n    tag_19:\n      dup1\n      0x70a08231\n      eq\n      tag_10\n      jumpi\n      dup1\n      0x95d89b41\n      eq\n      tag_11\n      jumpi\n      dup1\n      0xa457c2d7\n      eq\n      tag_12\n      jumpi\n      dup1\n      0xa9059cbb\n      eq\n      tag_13\n      jumpi\n      jump(tag_2)\n    tag_18:\n      dup1\n      0x18160ddd\n      gt\n      tag_20\n      jumpi\n      dup1\n      0x18160ddd\n      eq\n      tag_6\n      jumpi\n      dup1\n      0x23b872dd\n      eq\n      tag_7\n      jumpi\n      dup1\n      0x313ce567\n      eq\n      tag_8\n      jumpi\n      dup1\n      0x39509351\n      eq\n      tag_9\n      jumpi\n      jump(tag_2)\n    tag_20:\n      dup1\n      0x013cf08b\n      eq\n      tag_3\n      jumpi\n      dup1\n      0x06fdde03\n      eq\n      tag_4\n      jumpi\n      dup1\n      0x095ea7b3\n      eq\n      tag_5\n      jumpi\n    tag_2:\n      0x00\n      dup1\n      revert\n        /* \"contracts/Govern.sol\":390:432  mapping(uint => Proposal) public proposals */\n    tag_3:\n      tag_21\n      0x04\n      dup1\n      calldatasize\n      sub\n      dup2\n      add\n      swap1\n      tag_22\n      swap2\n      swap1\n      tag_23\n      jump\t// in\n    tag_22:\n      tag_24\n      jump\t// in\n    tag_21:\n      mload(0x40)\n      tag_25\n      swap3\n      swap2\n      swap1\n      tag_26\n      jump\t// in\n    tag_25:\n      mload(0x40)\n      dup1\n      swap2\n      sub\n      swap1\n      return\n        /* \"contracts/ERC20.sol\":2215:2315  function name() public view virtual override returns (string memory) {\r... */\n    tag_4:\n      tag_27\n      tag_28\n      jump\t// in\n    tag_27:\n      mload(0x40)\n      tag_29\n      swap2\n      swap1\n      tag_30\n      jump\t// in\n    tag_29:\n      mload(0x40)\n      dup1\n      swap2\n      sub\n      swap1\n      return\n        /* \"contracts/ERC20.sol\":4566:4767  function approve(address spender, uint256 amount) public virtual override returns (bool) {\r... */\n    tag_5:\n      tag_31\n      0x04\n      dup1\n      calldatasize\n      sub\n      dup2\n      add\n      swap1\n      tag_32\n      swap2\n      swap1\n      tag_33\n      jump\t// in\n    tag_32:\n      tag_34\n      jump\t// in\n    tag_31:\n      mload(0x40)\n      tag_35\n      swap2\n      swap1\n      tag_36\n      jump\t// in\n    tag_35:\n      mload(0x40)\n      dup1\n      swap2\n      sub\n      swap1\n      return\n        /* \"contracts/ERC20.sol\":3335:3443  function totalSupply() public view virtual override returns (uint256) {\r... */\n    tag_6:\n      tag_37\n      tag_38\n      jump\t// in\n    tag_37:\n      mload(0x40)\n      tag_39\n      swap2\n      swap1\n      tag_40\n      jump\t// in\n    tag_39:\n      mload(0x40)\n      dup1\n      swap2\n      sub\n      swap1\n      return\n        /* \"contracts/ERC20.sol\":5347:5642  function transferFrom(\r... */\n    tag_7:\n      tag_41\n      0x04\n      dup1\n      calldatasize\n      sub\n      dup2\n      add\n      swap1\n      tag_42\n      swap2\n      swap1\n      tag_43\n      jump\t// in\n    tag_42:\n      tag_44\n      jump\t// in\n    tag_41:\n      mload(0x40)\n      tag_45\n      swap2\n      swap1\n      tag_36\n      jump\t// in\n    tag_45:\n      mload(0x40)\n      dup1\n      swap2\n      sub\n      swap1\n      return\n        /* \"contracts/ERC20.sol\":3177:3270  function decimals() public view virtual override returns (uint8) {\r... */\n    tag_8:\n      tag_46\n      tag_47\n      jump\t// in\n    tag_46:\n      mload(0x40)\n      tag_48\n      swap2\n      swap1\n      tag_49\n      jump\t// in\n    tag_48:\n      mload(0x40)\n      dup1\n      swap2\n      sub\n      swap1\n      return\n        /* \"contracts/ERC20.sol\":6051:6289  function increaseAllowance(address spender, uint256 addedValue) public virtual returns (bool) {\r... */\n    tag_9:\n      tag_50\n      0x04\n      dup1\n      calldatasize\n      sub\n      dup2\n      add\n      swap1\n      tag_51\n      swap2\n      swap1\n      tag_33\n      jump\t// in\n    tag_51:\n      tag_52\n      jump\t// in\n    tag_50:\n      mload(0x40)\n      tag_53\n      swap2\n      swap1\n      tag_36\n      jump\t// in\n    tag_53:\n      mload(0x40)\n      dup1\n      swap2\n      sub\n      swap1\n      return\n        /* \"contracts/ERC20.sol\":3506:3633  function balanceOf(address account) public view virtual override returns (uint256) {\r... */\n    tag_10:\n      tag_54\n      0x04\n      dup1\n      calldatasize\n      sub\n      dup2\n      add\n      swap1\n      tag_55\n      swap2\n      swap1\n      tag_56\n      jump\t// in\n    tag_55:\n      tag_57\n      jump\t// in\n    tag_54:\n      mload(0x40)\n      tag_58\n      swap2\n      swap1\n      tag_40\n      jump\t// in\n    tag_58:\n      mload(0x40)\n      dup1\n      swap2\n      sub\n      swap1\n      return\n        /* \"contracts/ERC20.sol\":2434:2538  function symbol() public view virtual override returns (string memory) {\r... */\n    tag_11:\n      tag_59\n      tag_60\n      jump\t// in\n    tag_59:\n      mload(0x40)\n      tag_61\n      swap2\n      swap1\n      tag_30\n      jump\t// in\n    tag_61:\n      mload(0x40)\n      dup1\n      swap2\n      sub\n      swap1\n      return\n        /* \"contracts/ERC20.sol\":6792:7228  function decreaseAllowance(address spender, uint256 subtractedValue) public virtual returns (bool) {\r... */\n    tag_12:\n      tag_62\n      0x04\n      dup1\n      calldatasize\n      sub\n      dup2\n      add\n      swap1\n      tag_63\n      swap2\n      swap1\n      tag_33\n      jump\t// in\n    tag_63:\n      tag_64\n      jump\t// in\n    tag_62:\n      mload(0x40)\n      tag_65\n      swap2\n      swap1\n      tag_36\n      jump\t// in\n    tag_65:\n      mload(0x40)\n      dup1\n      swap2\n      sub\n      swap1\n      return\n        /* \"contracts/ERC20.sol\":3839:4032  function transfer(address to, uint256 amount) public virtual override returns (bool) {\r... */\n    tag_13:\n      tag_66\n      0x04\n      dup1\n      calldatasize\n      sub\n      dup2\n      add\n      swap1\n      tag_67\n      swap2\n      swap1\n      tag_33\n      jump\t// in\n    tag_67:\n      tag_68\n      jump\t// in\n    tag_66:\n      mload(0x40)\n      tag_69\n      swap2\n      swap1\n      tag_36\n      jump\t// in\n    tag_69:\n      mload(0x40)\n      dup1\n      swap2\n      sub\n      swap1\n      return\n        /* \"contracts/Govern.sol\":778:1168  function vote(uint _proposalId, bool _supports) external {\r... */\n    tag_14:\n      tag_70\n      0x04\n      dup1\n      calldatasize\n      sub\n      dup2\n      add\n      swap1\n      tag_71\n      swap2\n      swap1\n      tag_72\n      jump\t// in\n    tag_71:\n      tag_73\n      jump\t// in\n    tag_70:\n      stop\n        /* \"contracts/Govern.sol\":492:636  function buy(uint _amount) external {\r... */\n    tag_15:\n      tag_74\n      0x04\n      dup1\n      calldatasize\n      sub\n      dup2\n      add\n      swap1\n      tag_75\n      swap2\n      swap1\n      tag_23\n      jump\t// in\n    tag_75:\n      tag_76\n      jump\t// in\n    tag_74:\n      stop\n        /* \"contracts/ERC20.sol\":4095:4246  function allowance(address owner, address spender) public view virtual override returns (uint256) {\r... */\n    tag_16:\n      tag_77\n      0x04\n      dup1\n      calldatasize\n      sub\n      dup2\n      add\n      swap1\n      tag_78\n      swap2\n      swap1\n      tag_79\n      jump\t// in\n    tag_78:\n      tag_80\n      jump\t// in\n    tag_77:\n      mload(0x40)\n      tag_81\n      swap2\n      swap1\n      tag_40\n      jump\t// in\n    tag_81:\n      mload(0x40)\n      dup1\n      swap2\n      sub\n      swap1\n      return\n        /* \"contracts/Govern.sol\":644:770  function sell(uint _amount) external {\r... */\n    tag_17:\n      tag_82\n      0x04\n      dup1\n      calldatasize\n      sub\n      dup2\n      add\n      swap1\n      tag_83\n      swap2\n      swap1\n      tag_23\n      jump\t// in\n    tag_83:\n      tag_84\n      jump\t// in\n    tag_82:\n      stop\n        /* \"contracts/Govern.sol\":390:432  mapping(uint => Proposal) public proposals */\n    tag_24:\n      mstore(0x20, 0x07)\n      dup1\n      0x00\n      mstore\n      keccak256(0x00, 0x40)\n      0x00\n      swap2\n      pop\n      swap1\n      pop\n      dup1\n      0x00\n      add\n      sload\n      swap1\n      dup1\n      0x01\n      add\n      sload\n      swap1\n      pop\n      dup3\n      jump\t// out\n        /* \"contracts/ERC20.sol\":2215:2315  function name() public view virtual override returns (string memory) {\r... */\n    tag_28:\n        /* \"contracts/ERC20.sol\":2269:2282  string memory */\n      0x60\n        /* \"contracts/ERC20.sol\":2302:2307  _name */\n      0x03\n        /* \"contracts/ERC20.sol\":2295:2307  return _name */\n      dup1\n      sload\n      tag_86\n      swap1\n      tag_87\n      jump\t// in\n    tag_86:\n      dup1\n      0x1f\n      add\n      0x20\n      dup1\n      swap2\n      div\n      mul\n      0x20\n      add\n      mload(0x40)\n      swap1\n      dup2\n      add\n      0x40\n      mstore\n      dup1\n      swap3\n      swap2\n      swap1\n      dup2\n      dup2\n      mstore\n      0x20\n      add\n      dup3\n      dup1\n      sload\n      tag_88\n      swap1\n      tag_87\n      jump\t// in\n    tag_88:\n      dup1\n      iszero\n      tag_89\n      jumpi\n      dup1\n      0x1f\n      lt\n      tag_90\n      jumpi\n      0x0100\n      dup1\n      dup4\n      sload\n      div\n      mul\n      dup4\n      mstore\n      swap2\n      0x20\n      add\n      swap2\n      jump(tag_89)\n    tag_90:\n      dup3\n      add\n      swap2\n      swap1\n      0x00\n      mstore\n      keccak256(0x00, 0x20)\n      swap1\n    tag_91:\n      dup2\n      sload\n      dup2\n      mstore\n      swap1\n      0x01\n      add\n      swap1\n      0x20\n      add\n      dup1\n      dup4\n      gt\n      tag_91\n      jumpi\n      dup3\n      swap1\n      sub\n      0x1f\n      and\n      dup3\n      add\n      swap2\n    tag_89:\n      pop\n      pop\n      pop\n      pop\n      pop\n      swap1\n      pop\n        /* \"contracts/ERC20.sol\":2215:2315  function name() public view virtual override returns (string memory) {\r... */\n      swap1\n      jump\t// out\n        /* \"contracts/ERC20.sol\":4566:4767  function approve(address spender, uint256 amount) public virtual override returns (bool) {\r... */\n    tag_34:\n        /* \"contracts/ERC20.sol\":4649:4653  bool */\n      0x00\n        /* \"contracts/ERC20.sol\":4666:4679  address owner */\n      dup1\n        /* \"contracts/ERC20.sol\":4682:4694  _msgSender() */\n      tag_93\n        /* \"contracts/ERC20.sol\":4682:4692  _msgSender */\n      tag_94\n        /* \"contracts/ERC20.sol\":4682:4694  _msgSender() */\n      jump\t// in\n    tag_93:\n        /* \"contracts/ERC20.sol\":4666:4694  address owner = _msgSender() */\n      swap1\n      pop\n        /* \"contracts/ERC20.sol\":4705:4737  _approve(owner, spender, amount) */\n      tag_95\n        /* \"contracts/ERC20.sol\":4714:4719  owner */\n      dup2\n        /* \"contracts/ERC20.sol\":4721:4728  spender */\n      dup6\n        /* \"contracts/ERC20.sol\":4730:4736  amount */\n      dup6\n        /* \"contracts/ERC20.sol\":4705:4713  _approve */\n      tag_96\n        /* \"contracts/ERC20.sol\":4705:4737  _approve(owner, spender, amount) */\n      jump\t// in\n    tag_95:\n        /* \"contracts/ERC20.sol\":4755:4759  true */\n      0x01\n        /* \"contracts/ERC20.sol\":4748:4759  return true */\n      swap2\n      pop\n      pop\n        /* \"contracts/ERC20.sol\":4566:4767  function approve(address spender, uint256 amount) public virtual override returns (bool) {\r... */\n      swap3\n      swap2\n      pop\n      pop\n      jump\t// out\n        /* \"contracts/ERC20.sol\":3335:3443  function totalSupply() public view virtual override returns (uint256) {\r... */\n    tag_38:\n        /* \"contracts/ERC20.sol\":3396:3403  uint256 */\n      0x00\n        /* \"contracts/ERC20.sol\":3423:3435  _totalSupply */\n      sload(0x02)\n        /* \"contracts/ERC20.sol\":3416:3435  return _totalSupply */\n      swap1\n      pop\n        /* \"contracts/ERC20.sol\":3335:3443  function totalSupply() public view virtual override returns (uint256) {\r... */\n      swap1\n      jump\t// out\n        /* \"contracts/ERC20.sol\":5347:5642  function transferFrom(\r... */\n    tag_44:\n        /* \"contracts/ERC20.sol\":5478:5482  bool */\n      0x00\n        /* \"contracts/ERC20.sol\":5495:5510  address spender */\n      dup1\n        /* \"contracts/ERC20.sol\":5513:5525  _msgSender() */\n      tag_99\n        /* \"contracts/ERC20.sol\":5513:5523  _msgSender */\n      tag_94\n        /* \"contracts/ERC20.sol\":5513:5525  _msgSender() */\n      jump\t// in\n    tag_99:\n        /* \"contracts/ERC20.sol\":5495:5525  address spender = _msgSender() */\n      swap1\n      pop\n        /* \"contracts/ERC20.sol\":5536:5574  _spendAllowance(from, spender, amount) */\n      tag_100\n        /* \"contracts/ERC20.sol\":5552:5556  from */\n      dup6\n        /* \"contracts/ERC20.sol\":5558:5565  spender */\n      dup3\n        /* \"contracts/ERC20.sol\":5567:5573  amount */\n      dup6\n        /* \"contracts/ERC20.sol\":5536:5551  _spendAllowance */\n      tag_101\n        /* \"contracts/ERC20.sol\":5536:5574  _spendAllowance(from, spender, amount) */\n      jump\t// in\n    tag_100:\n        /* \"contracts/ERC20.sol\":5585:5612  _transfer(from, to, amount) */\n      tag_102\n        /* \"contracts/ERC20.sol\":5595:5599  from */\n      dup6\n        /* \"contracts/ERC20.sol\":5601:5603  to */\n      dup6\n        /* \"contracts/ERC20.sol\":5605:5611  amount */\n      dup6\n        /* \"contracts/ERC20.sol\":5585:5594  _transfer */\n      tag_103\n        /* \"contracts/ERC20.sol\":5585:5612  _transfer(from, to, amount) */\n      jump\t// in\n    tag_102:\n        /* \"contracts/ERC20.sol\":5630:5634  true */\n      0x01\n        /* \"contracts/ERC20.sol\":5623:5634  return true */\n      swap2\n      pop\n      pop\n        /* \"contracts/ERC20.sol\":5347:5642  function transferFrom(\r... */\n      swap4\n      swap3\n      pop\n      pop\n      pop\n      jump\t// out\n        /* \"contracts/ERC20.sol\":3177:3270  function decimals() public view virtual override returns (uint8) {\r... */\n    tag_47:\n        /* \"contracts/ERC20.sol\":3235:3240  uint8 */\n      0x00\n        /* \"contracts/ERC20.sol\":3260:3262  18 */\n      0x12\n        /* \"contracts/ERC20.sol\":3253:3262  return 18 */\n      swap1\n      pop\n        /* \"contracts/ERC20.sol\":3177:3270  function decimals() public view virtual override returns (uint8) {\r... */\n      swap1\n      jump\t// out\n        /* \"contracts/ERC20.sol\":6051:6289  function increaseAllowance(address spender, uint256 addedValue) public virtual returns (bool) {\r... */\n    tag_52:\n        /* \"contracts/ERC20.sol\":6139:6143  bool */\n      0x00\n        /* \"contracts/ERC20.sol\":6156:6169  address owner */\n      dup1\n        /* \"contracts/ERC20.sol\":6172:6184  _msgSender() */\n      tag_106\n        /* \"contracts/ERC20.sol\":6172:6182  _msgSender */\n      tag_94\n        /* \"contracts/ERC20.sol\":6172:6184  _msgSender() */\n      jump\t// in\n    tag_106:\n        /* \"contracts/ERC20.sol\":6156:6184  address owner = _msgSender() */\n      swap1\n      pop\n        /* \"contracts/ERC20.sol\":6195:6259  _approve(owner, spender, allowance(owner, spender) + addedValue) */\n      tag_107\n        /* \"contracts/ERC20.sol\":6204:6209  owner */\n      dup2\n        /* \"contracts/ERC20.sol\":6211:6218  spender */\n      dup6\n        /* \"contracts/ERC20.sol\":6248:6258  addedValue */\n      dup6\n        /* \"contracts/ERC20.sol\":6220:6245  allowance(owner, spender) */\n      tag_108\n        /* \"contracts/ERC20.sol\":6230:6235  owner */\n      dup6\n        /* \"contracts/ERC20.sol\":6237:6244  spender */\n      dup10\n        /* \"contracts/ERC20.sol\":6220:6229  allowance */\n      tag_80\n        /* \"contracts/ERC20.sol\":6220:6245  allowance(owner, spender) */\n      jump\t// in\n    tag_108:\n        /* \"contracts/ERC20.sol\":6220:6258  allowance(owner, spender) + addedValue */\n      tag_109\n      swap2\n      swap1\n      tag_110\n      jump\t// in\n    tag_109:\n        /* \"contracts/ERC20.sol\":6195:6203  _approve */\n      tag_96\n        /* \"contracts/ERC20.sol\":6195:6259  _approve(owner, spender, allowance(owner, spender) + addedValue) */\n      jump\t// in\n    tag_107:\n        /* \"contracts/ERC20.sol\":6277:6281  true */\n      0x01\n        /* \"contracts/ERC20.sol\":6270:6281  return true */\n      swap2\n      pop\n      pop\n        /* \"contracts/ERC20.sol\":6051:6289  function increaseAllowance(address spender, uint256 addedValue) public virtual returns (bool) {\r... */\n      swap3\n      swap2\n      pop\n      pop\n      jump\t// out\n        /* \"contracts/ERC20.sol\":3506:3633  function balanceOf(address account) public view virtual override returns (uint256) {\r... */\n    tag_57:\n        /* \"contracts/ERC20.sol\":3580:3587  uint256 */\n      0x00\n        /* \"contracts/ERC20.sol\":3607:3616  _balances */\n      dup1\n        /* \"contracts/ERC20.sol\":3607:3625  _balances[account] */\n      0x00\n        /* \"contracts/ERC20.sol\":3617:3624  account */\n      dup4\n        /* \"contracts/ERC20.sol\":3607:3625  _balances[account] */\n      0xffffffffffffffffffffffffffffffffffffffff\n      and\n      0xffffffffffffffffffffffffffffffffffffffff\n      and\n      dup2\n      mstore\n      0x20\n      add\n      swap1\n      dup2\n      mstore\n      0x20\n      add\n      0x00\n      keccak256\n      sload\n        /* \"contracts/ERC20.sol\":3600:3625  return _balances[account] */\n      swap1\n      pop\n        /* \"contracts/ERC20.sol\":3506:3633  function balanceOf(address account) public view virtual override returns (uint256) {\r... */\n      swap2\n      swap1\n      pop\n      jump\t// out\n        /* \"contracts/ERC20.sol\":2434:2538  function symbol() public view virtual override returns (string memory) {\r... */\n    tag_60:\n        /* \"contracts/ERC20.sol\":2490:2503  string memory */\n      0x60\n        /* \"contracts/ERC20.sol\":2523:2530  _symbol */\n      0x04\n        /* \"contracts/ERC20.sol\":2516:2530  return _symbol */\n      dup1\n      sload\n      tag_113\n      swap1\n      tag_87\n      jump\t// in\n    tag_113:\n      dup1\n      0x1f\n      add\n      0x20\n      dup1\n      swap2\n      div\n      mul\n      0x20\n      add\n      mload(0x40)\n      swap1\n      dup2\n      add\n      0x40\n      mstore\n      dup1\n      swap3\n      swap2\n      swap1\n      dup2\n      dup2\n      mstore\n      0x20\n      add\n      dup3\n      dup1\n      sload\n      tag_114\n      swap1\n      tag_87\n      jump\t// in\n    tag_114:\n      dup1\n      iszero\n      tag_115\n      jumpi\n      dup1\n      0x1f\n      lt\n      tag_116\n      jumpi\n      0x0100\n      dup1\n      dup4\n      sload\n      div\n      mul\n      dup4\n      mstore\n      swap2\n      0x20\n      add\n      swap2\n      jump(tag_115)\n    tag_116:\n      dup3\n      add\n      swap2\n      swap1\n      0x00\n      mstore\n      keccak256(0x00, 0x20)\n      swap1\n    tag_117:\n      dup2\n      sload\n      dup2\n      mstore\n      swap1\n      0x01\n      add\n      swap1\n      0x20\n      add\n      dup1\n      dup4\n      gt\n      tag_117\n      jumpi\n      dup3\n      swap1\n      sub\n      0x1f\n      and\n      dup3\n      add\n      swap2\n    tag_115:\n      pop\n      pop\n      pop\n      pop\n      pop\n      swap1\n      pop\n        /* \"contracts/ERC20.sol\":2434:2538  function symbol() public view virtual override returns (string memory) {\r... */\n      swap1\n      jump\t// out\n        /* \"contracts/ERC20.sol\":6792:7228  function decreaseAllowance(address spender, uint256 subtractedValue) public virtual returns (bool) {\r... */\n    tag_64:\n        /* \"contracts/ERC20.sol\":6885:6889  bool */\n      0x00\n        /* \"contracts/ERC20.sol\":6902:6915  address owner */\n      dup1\n        /* \"contracts/ERC20.sol\":6918:6930  _msgSender() */\n      tag_119\n        /* \"contracts/ERC20.sol\":6918:6928  _msgSender */\n      tag_94\n        /* \"contracts/ERC20.sol\":6918:6930  _msgSender() */\n      jump\t// in\n    tag_119:\n        /* \"contracts/ERC20.sol\":6902:6930  address owner = _msgSender() */\n      swap1\n      pop\n        /* \"contracts/ERC20.sol\":6941:6965  uint256 currentAllowance */\n      0x00\n        /* \"contracts/ERC20.sol\":6968:6993  allowance(owner, spender) */\n      tag_120\n        /* \"contracts/ERC20.sol\":6978:6983  owner */\n      dup3\n        /* \"contracts/ERC20.sol\":6985:6992  spender */\n      dup7\n        /* \"contracts/ERC20.sol\":6968:6977  allowance */\n      tag_80\n        /* \"contracts/ERC20.sol\":6968:6993  allowance(owner, spender) */\n      jump\t// in\n    tag_120:\n        /* \"contracts/ERC20.sol\":6941:6993  uint256 currentAllowance = allowance(owner, spender) */\n      swap1\n      pop\n        /* \"contracts/ERC20.sol\":7032:7047  subtractedValue */\n      dup4\n        /* \"contracts/ERC20.sol\":7012:7028  currentAllowance */\n      dup2\n        /* \"contracts/ERC20.sol\":7012:7047  currentAllowance >= subtractedValue */\n      lt\n      iszero\n        /* \"contracts/ERC20.sol\":7004:7089  require(currentAllowance >= subtractedValue, \"ERC20: decreased allowance below zero\") */\n      tag_121\n      jumpi\n      mload(0x40)\n      0x08c379a000000000000000000000000000000000000000000000000000000000\n      dup2\n      mstore\n      0x04\n      add\n      tag_122\n      swap1\n      tag_123\n      jump\t// in\n    tag_122:\n      mload(0x40)\n      dup1\n      swap2\n      sub\n      swap1\n      revert\n    tag_121:\n        /* \"contracts/ERC20.sol\":7125:7185  _approve(owner, spender, currentAllowance - subtractedValue) */\n      tag_124\n        /* \"contracts/ERC20.sol\":7134:7139  owner */\n      dup3\n        /* \"contracts/ERC20.sol\":7141:7148  spender */\n      dup7\n        /* \"contracts/ERC20.sol\":7169:7184  subtractedValue */\n      dup7\n        /* \"contracts/ERC20.sol\":7150:7166  currentAllowance */\n      dup5\n        /* \"contracts/ERC20.sol\":7150:7184  currentAllowance - subtractedValue */\n      sub\n        /* \"contracts/ERC20.sol\":7125:7133  _approve */\n      tag_96\n        /* \"contracts/ERC20.sol\":7125:7185  _approve(owner, spender, currentAllowance - subtractedValue) */\n      jump\t// in\n    tag_124:\n        /* \"contracts/ERC20.sol\":7216:7220  true */\n      0x01\n        /* \"contracts/ERC20.sol\":7209:7220  return true */\n      swap3\n      pop\n      pop\n      pop\n        /* \"contracts/ERC20.sol\":6792:7228  function decreaseAllowance(address spender, uint256 subtractedValue) public virtual returns (bool) {\r... */\n      swap3\n      swap2\n      pop\n      pop\n      jump\t// out\n        /* \"contracts/ERC20.sol\":3839:4032  function transfer(address to, uint256 amount) public virtual override returns (bool) {\r... */\n    tag_68:\n        /* \"contracts/ERC20.sol\":3918:3922  bool */\n      0x00\n        /* \"contracts/ERC20.sol\":3935:3948  address owner */\n      dup1\n        /* \"contracts/ERC20.sol\":3951:3963  _msgSender() */\n      tag_126\n        /* \"contracts/ERC20.sol\":3951:3961  _msgSender */\n      tag_94\n        /* \"contracts/ERC20.sol\":3951:3963  _msgSender() */\n      jump\t// in\n    tag_126:\n        /* \"contracts/ERC20.sol\":3935:3963  address owner = _msgSender() */\n      swap1\n      pop\n        /* \"contracts/ERC20.sol\":3974:4002  _transfer(owner, to, amount) */\n      tag_127\n        /* \"contracts/ERC20.sol\":3984:3989  owner */\n      dup2\n        /* \"contracts/ERC20.sol\":3991:3993  to */\n      dup6\n        /* \"contracts/ERC20.sol\":3995:4001  amount */\n      dup6\n        /* \"contracts/ERC20.sol\":3974:3983  _transfer */\n      tag_103\n        /* \"contracts/ERC20.sol\":3974:4002  _transfer(owner, to, amount) */\n      jump\t// in\n    tag_127:\n        /* \"contracts/ERC20.sol\":4020:4024  true */\n      0x01\n        /* \"contracts/ERC20.sol\":4013:4024  return true */\n      swap2\n      pop\n      pop\n        /* \"contracts/ERC20.sol\":3839:4032  function transfer(address to, uint256 amount) public virtual override returns (bool) {\r... */\n      swap3\n      swap2\n      pop\n      pop\n      jump\t// out\n        /* \"contracts/Govern.sol\":778:1168  function vote(uint _proposalId, bool _supports) external {\r... */\n    tag_73:\n        /* \"contracts/Govern.sol\":855:863  hasVoted */\n      0x05\n        /* \"contracts/Govern.sol\":855:875  hasVoted[msg.sender] */\n      0x00\n        /* \"contracts/Govern.sol\":864:874  msg.sender */\n      caller\n        /* \"contracts/Govern.sol\":855:875  hasVoted[msg.sender] */\n      0xffffffffffffffffffffffffffffffffffffffff\n      and\n      0xffffffffffffffffffffffffffffffffffffffff\n      and\n      dup2\n      mstore\n      0x20\n      add\n      swap1\n      dup2\n      mstore\n      0x20\n      add\n      0x00\n      keccak256\n      0x00\n      swap1\n      sload\n      swap1\n      0x0100\n      exp\n      swap1\n      div\n      0xff\n      and\n        /* \"contracts/Govern.sol\":854:875  !hasVoted[msg.sender] */\n      iszero\n        /* \"contracts/Govern.sol\":846:876  require(!hasVoted[msg.sender]) */\n      tag_129\n      jumpi\n      0x00\n      dup1\n      revert\n    tag_129:\n        /* \"contracts/Govern.sol\":887:912  Proposal storage proposal */\n      0x00\n        /* \"contracts/Govern.sol\":915:924  proposals */\n      0x07\n        /* \"contracts/Govern.sol\":915:937  proposals[_proposalId] */\n      0x00\n        /* \"contracts/Govern.sol\":925:936  _proposalId */\n      dup5\n        /* \"contracts/Govern.sol\":915:937  proposals[_proposalId] */\n      dup2\n      mstore\n      0x20\n      add\n      swap1\n      dup2\n      mstore\n      0x20\n      add\n      0x00\n      keccak256\n        /* \"contracts/Govern.sol\":887:937  Proposal storage proposal = proposals[_proposalId] */\n      swap1\n      pop\n        /* \"contracts/Govern.sol\":953:962  _supports */\n      dup2\n        /* \"contracts/Govern.sol\":950:1107  if(_supports) {\r... */\n      iszero\n      tag_130\n      jumpi\n        /* \"contracts/Govern.sol\":1000:1021  balanceOf(msg.sender) */\n      tag_131\n        /* \"contracts/Govern.sol\":1010:1020  msg.sender */\n      caller\n        /* \"contracts/Govern.sol\":1000:1009  balanceOf */\n      tag_57\n        /* \"contracts/Govern.sol\":1000:1021  balanceOf(msg.sender) */\n      jump\t// in\n    tag_131:\n        /* \"contracts/Govern.sol\":979:987  proposal */\n      dup2\n        /* \"contracts/Govern.sol\":979:996  proposal.yesCount */\n      0x00\n      add\n      0x00\n        /* \"contracts/Govern.sol\":979:1021  proposal.yesCount += balanceOf(msg.sender) */\n      dup3\n      dup3\n      sload\n      tag_132\n      swap2\n      swap1\n      tag_110\n      jump\t// in\n    tag_132:\n      swap3\n      pop\n      pop\n      dup2\n      swap1\n      sstore\n      pop\n        /* \"contracts/Govern.sol\":950:1107  if(_supports) {\r... */\n      jump(tag_133)\n    tag_130:\n        /* \"contracts/Govern.sol\":1074:1095  balanceOf(msg.sender) */\n      tag_134\n        /* \"contracts/Govern.sol\":1084:1094  msg.sender */\n      caller\n        /* \"contracts/Govern.sol\":1074:1083  balanceOf */\n      tag_57\n        /* \"contracts/Govern.sol\":1074:1095  balanceOf(msg.sender) */\n      jump\t// in\n    tag_134:\n        /* \"contracts/Govern.sol\":1054:1062  proposal */\n      dup2\n        /* \"contracts/Govern.sol\":1054:1070  proposal.noCount */\n      0x01\n      add\n      0x00\n        /* \"contracts/Govern.sol\":1054:1095  proposal.noCount += balanceOf(msg.sender) */\n      dup3\n      dup3\n      sload\n      tag_135\n      swap2\n      swap1\n      tag_110\n      jump\t// in\n    tag_135:\n      swap3\n      pop\n      pop\n      dup2\n      swap1\n      sstore\n      pop\n        /* \"contracts/Govern.sol\":950:1107  if(_supports) {\r... */\n    tag_133:\n        /* \"contracts/Govern.sol\":1151:1160  _supports */\n      dup2\n        /* \"contracts/Govern.sol\":1119:1127  proposal */\n      dup2\n        /* \"contracts/Govern.sol\":1119:1136  proposal.hasVoted */\n      0x02\n      add\n        /* \"contracts/Govern.sol\":1119:1148  proposal.hasVoted[msg.sender] */\n      0x00\n        /* \"contracts/Govern.sol\":1137:1147  msg.sender */\n      caller\n        /* \"contracts/Govern.sol\":1119:1148  proposal.hasVoted[msg.sender] */\n      0xffffffffffffffffffffffffffffffffffffffff\n      and\n      0xffffffffffffffffffffffffffffffffffffffff\n      and\n      dup2\n      mstore\n      0x20\n      add\n      swap1\n      dup2\n      mstore\n      0x20\n      add\n      0x00\n      keccak256\n      0x00\n        /* \"contracts/Govern.sol\":1119:1160  proposal.hasVoted[msg.sender] = _supports */\n      0x0100\n      exp\n      dup2\n      sload\n      dup2\n      0xff\n      mul\n      not\n      and\n      swap1\n      dup4\n      iszero\n      iszero\n      mul\n      or\n      swap1\n      sstore\n      pop\n        /* \"contracts/Govern.sol\":778:1168  function vote(uint _proposalId, bool _supports) external {\r... */\n      pop\n      pop\n      pop\n      jump\t// out\n        /* \"contracts/Govern.sol\":492:636  function buy(uint _amount) external {\r... */\n    tag_76:\n        /* \"contracts/Govern.sol\":147:189  0x6B175474E89094C44Da98b954EedeAC495271d0F */\n      0x6b175474e89094c44da98b954eedeac495271d0f\n        /* \"contracts/Govern.sol\":539:555  DAI.transferFrom */\n      0xffffffffffffffffffffffffffffffffffffffff\n      and\n      0x23b872dd\n        /* \"contracts/Govern.sol\":556:566  msg.sender */\n      caller\n        /* \"contracts/Govern.sol\":576:580  this */\n      address\n        /* \"contracts/Govern.sol\":583:590  _amount */\n      dup5\n        /* \"contracts/Govern.sol\":539:591  DAI.transferFrom(msg.sender, address(this), _amount) */\n      mload(0x40)\n      dup5\n      0xffffffff\n      and\n      0xe0\n      shl\n      dup2\n      mstore\n      0x04\n      add\n      tag_137\n      swap4\n      swap3\n      swap2\n      swap1\n      tag_138\n      jump\t// in\n    tag_137:\n      0x20\n      mload(0x40)\n      dup1\n      dup4\n      sub\n      dup2\n      0x00\n      dup8\n      dup1\n      extcodesize\n      iszero\n      dup1\n      iszero\n      tag_139\n      jumpi\n      0x00\n      dup1\n      revert\n    tag_139:\n      pop\n      gas\n      call\n      iszero\n      dup1\n      iszero\n      tag_141\n      jumpi\n      returndatasize\n      0x00\n      dup1\n      returndatacopy\n      revert(0x00, returndatasize)\n    tag_141:\n      pop\n      pop\n      pop\n      pop\n      mload(0x40)\n      returndatasize\n      not(0x1f)\n      0x1f\n      dup3\n      add\n      and\n      dup3\n      add\n      dup1\n      0x40\n      mstore\n      pop\n      dup2\n      add\n      swap1\n      tag_142\n      swap2\n      swap1\n      tag_143\n      jump\t// in\n    tag_142:\n      pop\n        /* \"contracts/Govern.sol\":602:628  _mint(msg.sender, _amount) */\n      tag_144\n        /* \"contracts/Govern.sol\":608:618  msg.sender */\n      caller\n        /* \"contracts/Govern.sol\":620:627  _amount */\n      dup3\n        /* \"contracts/Govern.sol\":602:607  _mint */\n      tag_145\n        /* \"contracts/Govern.sol\":602:628  _mint(msg.sender, _amount) */\n      jump\t// in\n    tag_144:\n        /* \"contracts/Govern.sol\":492:636  function buy(uint _amount) external {\r... */\n      pop\n      jump\t// out\n        /* \"contracts/ERC20.sol\":4095:4246  function allowance(address owner, address spender) public view virtual override returns (uint256) {\r... */\n    tag_80:\n        /* \"contracts/ERC20.sol\":4184:4191  uint256 */\n      0x00\n        /* \"contracts/ERC20.sol\":4211:4222  _allowances */\n      0x01\n        /* \"contracts/ERC20.sol\":4211:4229  _allowances[owner] */\n      0x00\n        /* \"contracts/ERC20.sol\":4223:4228  owner */\n      dup5\n        /* \"contracts/ERC20.sol\":4211:4229  _allowances[owner] */\n      0xffffffffffffffffffffffffffffffffffffffff\n      and\n      0xffffffffffffffffffffffffffffffffffffffff\n      and\n      dup2\n      mstore\n      0x20\n      add\n      swap1\n      dup2\n      mstore\n      0x20\n      add\n      0x00\n      keccak256\n        /* \"contracts/ERC20.sol\":4211:4238  _allowances[owner][spender] */\n      0x00\n        /* \"contracts/ERC20.sol\":4230:4237  spender */\n      dup4\n        /* \"contracts/ERC20.sol\":4211:4238  _allowances[owner][spender] */\n      0xffffffffffffffffffffffffffffffffffffffff\n      and\n      0xffffffffffffffffffffffffffffffffffffffff\n      and\n      dup2\n      mstore\n      0x20\n      add\n      swap1\n      dup2\n      mstore\n      0x20\n      add\n      0x00\n      keccak256\n      sload\n        /* \"contracts/ERC20.sol\":4204:4238  return _allowances[owner][spender] */\n      swap1\n      pop\n        /* \"contracts/ERC20.sol\":4095:4246  function allowance(address owner, address spender) public view virtual override returns (uint256) {\r... */\n      swap3\n      swap2\n      pop\n      pop\n      jump\t// out\n        /* \"contracts/Govern.sol\":644:770  function sell(uint _amount) external {\r... */\n    tag_84:\n        /* \"contracts/Govern.sol\":692:718  _burn(msg.sender, _amount) */\n      tag_148\n        /* \"contracts/Govern.sol\":698:708  msg.sender */\n      caller\n        /* \"contracts/Govern.sol\":710:717  _amount */\n      dup3\n        /* \"contracts/Govern.sol\":692:697  _burn */\n      tag_149\n        /* \"contracts/Govern.sol\":692:718  _burn(msg.sender, _amount) */\n      jump\t// in\n    tag_148:\n        /* \"contracts/Govern.sol\":147:189  0x6B175474E89094C44Da98b954EedeAC495271d0F */\n      0x6b175474e89094c44da98b954eedeac495271d0f\n        /* \"contracts/Govern.sol\":729:741  DAI.transfer */\n      0xffffffffffffffffffffffffffffffffffffffff\n      and\n      0xa9059cbb\n        /* \"contracts/Govern.sol\":742:752  msg.sender */\n      caller\n        /* \"contracts/Govern.sol\":754:761  _amount */\n      dup4\n        /* \"contracts/Govern.sol\":729:762  DAI.transfer(msg.sender, _amount) */\n      mload(0x40)\n      dup4\n      0xffffffff\n      and\n      0xe0\n      shl\n      dup2\n      mstore\n      0x04\n      add\n      tag_150\n      swap3\n      swap2\n      swap1\n      tag_151\n      jump\t// in\n    tag_150:\n      0x20\n      mload(0x40)\n      dup1\n      dup4\n      sub\n      dup2\n      0x00\n      dup8\n      dup1\n      extcodesize\n      iszero\n      dup1\n      iszero\n      tag_152\n      jumpi\n      0x00\n      dup1\n      revert\n    tag_152:\n      pop\n      gas\n      call\n      iszero\n      dup1\n      iszero\n      tag_154\n      jumpi\n      returndatasize\n      0x00\n      dup1\n      returndatacopy\n      revert(0x00, returndatasize)\n    tag_154:\n      pop\n      pop\n      pop\n      pop\n      mload(0x40)\n      returndatasize\n      not(0x1f)\n      0x1f\n      dup3\n      add\n      and\n      dup3\n      add\n      dup1\n      0x40\n      mstore\n      pop\n      dup2\n      add\n      swap1\n      tag_155\n      swap2\n      swap1\n      tag_143\n      jump\t// in\n    tag_155:\n      pop\n        /* \"contracts/Govern.sol\":644:770  function sell(uint _amount) external {\r... */\n      pop\n      jump\t// out\n        /* \"utils/Context.sol\":656:754  function _msgSender() internal view virtual returns (address) {\r... */\n    tag_94:\n        /* \"utils/Context.sol\":709:716  address */\n      0x00\n        /* \"utils/Context.sol\":736:746  msg.sender */\n      caller\n        /* \"utils/Context.sol\":729:746  return msg.sender */\n      swap1\n      pop\n        /* \"utils/Context.sol\":656:754  function _msgSender() internal view virtual returns (address) {\r... */\n      swap1\n      jump\t// out\n        /* \"contracts/ERC20.sol\":10819:11199  function _approve(\r... */\n    tag_96:\n        /* \"contracts/ERC20.sol\":10972:10973  0 */\n      0x00\n        /* \"contracts/ERC20.sol\":10955:10974  owner != address(0) */\n      0xffffffffffffffffffffffffffffffffffffffff\n      and\n        /* \"contracts/ERC20.sol\":10955:10960  owner */\n      dup4\n        /* \"contracts/ERC20.sol\":10955:10974  owner != address(0) */\n      0xffffffffffffffffffffffffffffffffffffffff\n      and\n      eq\n      iszero\n        /* \"contracts/ERC20.sol\":10947:11015  require(owner != address(0), \"ERC20: approve from the zero address\") */\n      tag_158\n      jumpi\n      mload(0x40)\n      0x08c379a000000000000000000000000000000000000000000000000000000000\n      dup2\n      mstore\n      0x04\n      add\n      tag_159\n      swap1\n      tag_160\n      jump\t// in\n    tag_159:\n      mload(0x40)\n      dup1\n      swap2\n      sub\n      swap1\n      revert\n    tag_158:\n        /* \"contracts/ERC20.sol\":11053:11054  0 */\n      0x00\n        /* \"contracts/ERC20.sol\":11034:11055  spender != address(0) */\n      0xffffffffffffffffffffffffffffffffffffffff\n      and\n        /* \"contracts/ERC20.sol\":11034:11041  spender */\n      dup3\n        /* \"contracts/ERC20.sol\":11034:11055  spender != address(0) */\n      0xffffffffffffffffffffffffffffffffffffffff\n      and\n      eq\n      iszero\n        /* \"contracts/ERC20.sol\":11026:11094  require(spender != address(0), \"ERC20: approve to the zero address\") */\n      tag_161\n      jumpi\n      mload(0x40)\n      0x08c379a000000000000000000000000000000000000000000000000000000000\n      dup2\n      mstore\n      0x04\n      add\n      tag_162\n      swap1\n      tag_163\n      jump\t// in\n    tag_162:\n      mload(0x40)\n      dup1\n      swap2\n      sub\n      swap1\n      revert\n    tag_161:\n        /* \"contracts/ERC20.sol\":11137:11143  amount */\n      dup1\n        /* \"contracts/ERC20.sol\":11107:11118  _allowances */\n      0x01\n        /* \"contracts/ERC20.sol\":11107:11125  _allowances[owner] */\n      0x00\n        /* \"contracts/ERC20.sol\":11119:11124  owner */\n      dup6\n        /* \"contracts/ERC20.sol\":11107:11125  _allowances[owner] */\n      0xffffffffffffffffffffffffffffffffffffffff\n      and\n      0xffffffffffffffffffffffffffffffffffffffff\n      and\n      dup2\n      mstore\n      0x20\n      add\n      swap1\n      dup2\n      mstore\n      0x20\n      add\n      0x00\n      keccak256\n        /* \"contracts/ERC20.sol\":11107:11134  _allowances[owner][spender] */\n      0x00\n        /* \"contracts/ERC20.sol\":11126:11133  spender */\n      dup5\n        /* \"contracts/ERC20.sol\":11107:11134  _allowances[owner][spender] */\n      0xffffffffffffffffffffffffffffffffffffffff\n      and\n      0xffffffffffffffffffffffffffffffffffffffff\n      and\n      dup2\n      mstore\n      0x20\n      add\n      swap1\n      dup2\n      mstore\n      0x20\n      add\n      0x00\n      keccak256\n        /* \"contracts/ERC20.sol\":11107:11143  _allowances[owner][spender] = amount */\n      dup2\n      swap1\n      sstore\n      pop\n        /* \"contracts/ERC20.sol\":11175:11182  spender */\n      dup2\n        /* \"contracts/ERC20.sol\":11159:11191  Approval(owner, spender, amount) */\n      0xffffffffffffffffffffffffffffffffffffffff\n      and\n        /* \"contracts/ERC20.sol\":11168:11173  owner */\n      dup4\n        /* \"contracts/ERC20.sol\":11159:11191  Approval(owner, spender, amount) */\n      0xffffffffffffffffffffffffffffffffffffffff\n      and\n      0x8c5be1e5ebec7d5bd14f71427d1e84f3dd0314c0f7b2291e5b200ac8c7c3b925\n        /* \"contracts/ERC20.sol\":11184:11190  amount */\n      dup4\n        /* \"contracts/ERC20.sol\":11159:11191  Approval(owner, spender, amount) */\n      mload(0x40)\n      tag_164\n      swap2\n      swap1\n      tag_40\n      jump\t// in\n    tag_164:\n      mload(0x40)\n      dup1\n      swap2\n      sub\n      swap1\n      log3\n        /* \"contracts/ERC20.sol\":10819:11199  function _approve(\r... */\n      pop\n      pop\n      pop\n      jump\t// out\n        /* \"contracts/ERC20.sol\":11490:11943  function _spendAllowance(\r... */\n    tag_101:\n        /* \"contracts/ERC20.sol\":11625:11649  uint256 currentAllowance */\n      0x00\n        /* \"contracts/ERC20.sol\":11652:11677  allowance(owner, spender) */\n      tag_166\n        /* \"contracts/ERC20.sol\":11662:11667  owner */\n      dup5\n        /* \"contracts/ERC20.sol\":11669:11676  spender */\n      dup5\n        /* \"contracts/ERC20.sol\":11652:11661  allowance */\n      tag_80\n        /* \"contracts/ERC20.sol\":11652:11677  allowance(owner, spender) */\n      jump\t// in\n    tag_166:\n        /* \"contracts/ERC20.sol\":11625:11677  uint256 currentAllowance = allowance(owner, spender) */\n      swap1\n      pop\n        /* \"contracts/ERC20.sol\":11712:11729  type(uint256).max */\n      0xffffffffffffffffffffffffffffffffffffffffffffffffffffffffffffffff\n        /* \"contracts/ERC20.sol\":11692:11708  currentAllowance */\n      dup2\n        /* \"contracts/ERC20.sol\":11692:11729  currentAllowance != type(uint256).max */\n      eq\n        /* \"contracts/ERC20.sol\":11688:11936  if (currentAllowance != type(uint256).max) {\r... */\n      tag_167\n      jumpi\n        /* \"contracts/ERC20.sol\":11774:11780  amount */\n      dup2\n        /* \"contracts/ERC20.sol\":11754:11770  currentAllowance */\n      dup2\n        /* \"contracts/ERC20.sol\":11754:11780  currentAllowance >= amount */\n      lt\n      iszero\n        /* \"contracts/ERC20.sol\":11746:11814  require(currentAllowance >= amount, \"ERC20: insufficient allowance\") */\n      tag_168\n      jumpi\n      mload(0x40)\n      0x08c379a000000000000000000000000000000000000000000000000000000000\n      dup2\n      mstore\n      0x04\n      add\n      tag_169\n      swap1\n      tag_170\n      jump\t// in\n    tag_169:\n      mload(0x40)\n      dup1\n      swap2\n      sub\n      swap1\n      revert\n    tag_168:\n        /* \"contracts/ERC20.sol\":11858:11909  _approve(owner, spender, currentAllowance - amount) */\n      tag_171\n        /* \"contracts/ERC20.sol\":11867:11872  owner */\n      dup5\n        /* \"contracts/ERC20.sol\":11874:11881  spender */\n      dup5\n        /* \"contracts/ERC20.sol\":11902:11908  amount */\n      dup5\n        /* \"contracts/ERC20.sol\":11883:11899  currentAllowance */\n      dup5\n        /* \"contracts/ERC20.sol\":11883:11908  currentAllowance - amount */\n      sub\n        /* \"contracts/ERC20.sol\":11858:11866  _approve */\n      tag_96\n        /* \"contracts/ERC20.sol\":11858:11909  _approve(owner, spender, currentAllowance - amount) */\n      jump\t// in\n    tag_171:\n        /* \"contracts/ERC20.sol\":11688:11936  if (currentAllowance != type(uint256).max) {\r... */\n    tag_167:\n        /* \"contracts/ERC20.sol\":11490:11943  function _spendAllowance(\r... */\n      pop\n      pop\n      pop\n      pop\n      jump\t// out\n        /* \"contracts/ERC20.sol\":7698:8538  function _transfer(\r... */\n    tag_103:\n        /* \"contracts/ERC20.sol\":7845:7846  0 */\n      0x00\n        /* \"contracts/ERC20.sol\":7829:7847  from != address(0) */\n      0xffffffffffffffffffffffffffffffffffffffff\n      and\n        /* \"contracts/ERC20.sol\":7829:7833  from */\n      dup4\n        /* \"contracts/ERC20.sol\":7829:7847  from != address(0) */\n      0xffffffffffffffffffffffffffffffffffffffff\n      and\n      eq\n      iszero\n        /* \"contracts/ERC20.sol\":7821:7889  require(from != address(0), \"ERC20: transfer from the zero address\") */\n      tag_173\n      jumpi\n      mload(0x40)\n      0x08c379a000000000000000000000000000000000000000000000000000000000\n      dup2\n      mstore\n      0x04\n      add\n      tag_174\n      swap1\n      tag_175\n      jump\t// in\n    tag_174:\n      mload(0x40)\n      dup1\n      swap2\n      sub\n      swap1\n      revert\n    tag_173:\n        /* \"contracts/ERC20.sol\":7922:7923  0 */\n      0x00\n        /* \"contracts/ERC20.sol\":7908:7924  to != address(0) */\n      0xffffffffffffffffffffffffffffffffffffffff\n      and\n        /* \"contracts/ERC20.sol\":7908:7910  to */\n      dup3\n        /* \"contracts/ERC20.sol\":7908:7924  to != address(0) */\n      0xffffffffffffffffffffffffffffffffffffffff\n      and\n      eq\n      iszero\n        /* \"contracts/ERC20.sol\":7900:7964  require(to != address(0), \"ERC20: transfer to the zero address\") */\n      tag_176\n      jumpi\n      mload(0x40)\n      0x08c379a000000000000000000000000000000000000000000000000000000000\n      dup2\n      mstore\n      0x04\n      add\n      tag_177\n      swap1\n      tag_178\n      jump\t// in\n    tag_177:\n      mload(0x40)\n      dup1\n      swap2\n      sub\n      swap1\n      revert\n    tag_176:\n        /* \"contracts/ERC20.sol\":7977:8015  _beforeTokenTransfer(from, to, amount) */\n      tag_179\n        /* \"contracts/ERC20.sol\":7998:8002  from */\n      dup4\n        /* \"contracts/ERC20.sol\":8004:8006  to */\n      dup4\n        /* \"contracts/ERC20.sol\":8008:8014  amount */\n      dup4\n        /* \"contracts/ERC20.sol\":7977:7997  _beforeTokenTransfer */\n      tag_180\n        /* \"contracts/ERC20.sol\":7977:8015  _beforeTokenTransfer(from, to, amount) */\n      jump\t// in\n    tag_179:\n        /* \"contracts/ERC20.sol\":8028:8047  uint256 fromBalance */\n      0x00\n        /* \"contracts/ERC20.sol\":8050:8059  _balances */\n      dup1\n        /* \"contracts/ERC20.sol\":8050:8065  _balances[from] */\n      0x00\n        /* \"contracts/ERC20.sol\":8060:8064  from */\n      dup6\n        /* \"contracts/ERC20.sol\":8050:8065  _balances[from] */\n      0xffffffffffffffffffffffffffffffffffffffff\n      and\n      0xffffffffffffffffffffffffffffffffffffffff\n      and\n      dup2\n      mstore\n      0x20\n      add\n      swap1\n      dup2\n      mstore\n      0x20\n      add\n      0x00\n      keccak256\n      sload\n        /* \"contracts/ERC20.sol\":8028:8065  uint256 fromBalance = _balances[from] */\n      swap1\n      pop\n        /* \"contracts/ERC20.sol\":8099:8105  amount */\n      dup2\n        /* \"contracts/ERC20.sol\":8084:8095  fromBalance */\n      dup2\n        /* \"contracts/ERC20.sol\":8084:8105  fromBalance >= amount */\n      lt\n      iszero\n        /* \"contracts/ERC20.sol\":8076:8148  require(fromBalance >= amount, \"ERC20: transfer amount exceeds balance\") */\n      tag_181\n      jumpi\n      mload(0x40)\n      0x08c379a000000000000000000000000000000000000000000000000000000000\n      dup2\n      mstore\n      0x04\n      add\n      tag_182\n      swap1\n      tag_183\n      jump\t// in\n    tag_182:\n      mload(0x40)\n      dup1\n      swap2\n      sub\n      swap1\n      revert\n    tag_181:\n        /* \"contracts/ERC20.sol\":8216:8222  amount */\n      dup2\n        /* \"contracts/ERC20.sol\":8202:8213  fromBalance */\n      dup2\n        /* \"contracts/ERC20.sol\":8202:8222  fromBalance - amount */\n      sub\n        /* \"contracts/ERC20.sol\":8184:8193  _balances */\n      0x00\n        /* \"contracts/ERC20.sol\":8184:8199  _balances[from] */\n      dup1\n        /* \"contracts/ERC20.sol\":8194:8198  from */\n      dup7\n        /* \"contracts/ERC20.sol\":8184:8199  _balances[from] */\n      0xffffffffffffffffffffffffffffffffffffffff\n      and\n      0xffffffffffffffffffffffffffffffffffffffff\n      and\n      dup2\n      mstore\n      0x20\n      add\n      swap1\n      dup2\n      mstore\n      0x20\n      add\n      0x00\n      keccak256\n        /* \"contracts/ERC20.sol\":8184:8222  _balances[from] = fromBalance - amount */\n      dup2\n      swap1\n      sstore\n      pop\n        /* \"contracts/ERC20.sol\":8419:8425  amount */\n      dup2\n        /* \"contracts/ERC20.sol\":8402:8411  _balances */\n      0x00\n        /* \"contracts/ERC20.sol\":8402:8415  _balances[to] */\n      dup1\n        /* \"contracts/ERC20.sol\":8412:8414  to */\n      dup6\n        /* \"contracts/ERC20.sol\":8402:8415  _balances[to] */\n      0xffffffffffffffffffffffffffffffffffffffff\n      and\n      0xffffffffffffffffffffffffffffffffffffffff\n      and\n      dup2\n      mstore\n      0x20\n      add\n      swap1\n      dup2\n      mstore\n      0x20\n      add\n      0x00\n      keccak256\n      0x00\n        /* \"contracts/ERC20.sol\":8402:8425  _balances[to] += amount */\n      dup3\n      dup3\n      sload\n      add\n      swap3\n      pop\n      pop\n      dup2\n      swap1\n      sstore\n      pop\n        /* \"contracts/ERC20.sol\":8469:8471  to */\n      dup3\n        /* \"contracts/ERC20.sol\":8454:8480  Transfer(from, to, amount) */\n      0xffffffffffffffffffffffffffffffffffffffff\n      and\n        /* \"contracts/ERC20.sol\":8463:8467  from */\n      dup5\n        /* \"contracts/ERC20.sol\":8454:8480  Transfer(from, to, amount) */\n      0xffffffffffffffffffffffffffffffffffffffff\n      and\n      0xddf252ad1be2c89b69c2b068fc378daa952ba7f163c4a11628f55a4df523b3ef\n        /* \"contracts/ERC20.sol\":8473:8479  amount */\n      dup5\n        /* \"contracts/ERC20.sol\":8454:8480  Transfer(from, to, amount) */\n      mload(0x40)\n      tag_184\n      swap2\n      swap1\n      tag_40\n      jump\t// in\n    tag_184:\n      mload(0x40)\n      dup1\n      swap2\n      sub\n      swap1\n      log3\n        /* \"contracts/ERC20.sol\":8493:8530  _afterTokenTransfer(from, to, amount) */\n      tag_185\n        /* \"contracts/ERC20.sol\":8513:8517  from */\n      dup5\n        /* \"contracts/ERC20.sol\":8519:8521  to */\n      dup5\n        /* \"contracts/ERC20.sol\":8523:8529  amount */\n      dup5\n        /* \"contracts/ERC20.sol\":8493:8512  _afterTokenTransfer */\n      tag_186\n        /* \"contracts/ERC20.sol\":8493:8530  _afterTokenTransfer(from, to, amount) */\n      jump\t// in\n    tag_185:\n        /* \"contracts/ERC20.sol\":7698:8538  function _transfer(\r... */\n      pop\n      pop\n      pop\n      pop\n      jump\t// out\n        /* \"contracts/ERC20.sol\":8825:9373  function _mint(address account, uint256 amount) internal virtual {\r... */\n    tag_145:\n        /* \"contracts/ERC20.sol\":8928:8929  0 */\n      0x00\n        /* \"contracts/ERC20.sol\":8909:8930  account != address(0) */\n      0xffffffffffffffffffffffffffffffffffffffff\n      and\n        /* \"contracts/ERC20.sol\":8909:8916  account */\n      dup3\n        /* \"contracts/ERC20.sol\":8909:8930  account != address(0) */\n      0xffffffffffffffffffffffffffffffffffffffff\n      and\n      eq\n      iszero\n        /* \"contracts/ERC20.sol\":8901:8966  require(account != address(0), \"ERC20: mint to the zero address\") */\n      tag_188\n      jumpi\n      mload(0x40)\n      0x08c379a000000000000000000000000000000000000000000000000000000000\n      dup2\n      mstore\n      0x04\n      add\n      tag_189\n      swap1\n      tag_190\n      jump\t// in\n    tag_189:\n      mload(0x40)\n      dup1\n      swap2\n      sub\n      swap1\n      revert\n    tag_188:\n        /* \"contracts/ERC20.sol\":8979:9028  _beforeTokenTransfer(address(0), account, amount) */\n      tag_191\n        /* \"contracts/ERC20.sol\":9008:9009  0 */\n      0x00\n        /* \"contracts/ERC20.sol\":9012:9019  account */\n      dup4\n        /* \"contracts/ERC20.sol\":9021:9027  amount */\n      dup4\n        /* \"contracts/ERC20.sol\":8979:8999  _beforeTokenTransfer */\n      tag_180\n        /* \"contracts/ERC20.sol\":8979:9028  _beforeTokenTransfer(address(0), account, amount) */\n      jump\t// in\n    tag_191:\n        /* \"contracts/ERC20.sol\":9057:9063  amount */\n      dup1\n        /* \"contracts/ERC20.sol\":9041:9053  _totalSupply */\n      0x02\n      0x00\n        /* \"contracts/ERC20.sol\":9041:9063  _totalSupply += amount */\n      dup3\n      dup3\n      sload\n      tag_192\n      swap2\n      swap1\n      tag_110\n      jump\t// in\n    tag_192:\n      swap3\n      pop\n      pop\n      dup2\n      swap1\n      sstore\n      pop\n        /* \"contracts/ERC20.sol\":9234:9240  amount */\n      dup1\n        /* \"contracts/ERC20.sol\":9212:9221  _balances */\n      0x00\n        /* \"contracts/ERC20.sol\":9212:9230  _balances[account] */\n      dup1\n        /* \"contracts/ERC20.sol\":9222:9229  account */\n      dup5\n        /* \"contracts/ERC20.sol\":9212:9230  _balances[account] */\n      0xffffffffffffffffffffffffffffffffffffffff\n      and\n      0xffffffffffffffffffffffffffffffffffffffff\n      and\n      dup2\n      mstore\n      0x20\n      add\n      swap1\n      dup2\n      mstore\n      0x20\n      add\n      0x00\n      keccak256\n      0x00\n        /* \"contracts/ERC20.sol\":9212:9240  _balances[account] += amount */\n      dup3\n      dup3\n      sload\n      add\n      swap3\n      pop\n      pop\n      dup2\n      swap1\n      sstore\n      pop\n        /* \"contracts/ERC20.sol\":9288:9295  account */\n      dup2\n        /* \"contracts/ERC20.sol\":9267:9304  Transfer(address(0), account, amount) */\n      0xffffffffffffffffffffffffffffffffffffffff\n      and\n        /* \"contracts/ERC20.sol\":9284:9285  0 */\n      0x00\n        /* \"contracts/ERC20.sol\":9267:9304  Transfer(address(0), account, amount) */\n      0xffffffffffffffffffffffffffffffffffffffff\n      and\n      0xddf252ad1be2c89b69c2b068fc378daa952ba7f163c4a11628f55a4df523b3ef\n        /* \"contracts/ERC20.sol\":9297:9303  amount */\n      dup4\n        /* \"contracts/ERC20.sol\":9267:9304  Transfer(address(0), account, amount) */\n      mload(0x40)\n      tag_193\n      swap2\n      swap1\n      tag_40\n      jump\t// in\n    tag_193:\n      mload(0x40)\n      dup1\n      swap2\n      sub\n      swap1\n      log3\n        /* \"contracts/ERC20.sol\":9317:9365  _afterTokenTransfer(address(0), account, amount) */\n      tag_194\n        /* \"contracts/ERC20.sol\":9345:9346  0 */\n      0x00\n        /* \"contracts/ERC20.sol\":9349:9356  account */\n      dup4\n        /* \"contracts/ERC20.sol\":9358:9364  amount */\n      dup4\n        /* \"contracts/ERC20.sol\":9317:9336  _afterTokenTransfer */\n      tag_186\n        /* \"contracts/ERC20.sol\":9317:9365  _afterTokenTransfer(address(0), account, amount) */\n      jump\t// in\n    tag_194:\n        /* \"contracts/ERC20.sol\":8825:9373  function _mint(address account, uint256 amount) internal virtual {\r... */\n      pop\n      pop\n      jump\t// out\n        /* \"contracts/ERC20.sol\":9706:10381  function _burn(address account, uint256 amount) internal virtual {\r... */\n    tag_149:\n        /* \"contracts/ERC20.sol\":9809:9810  0 */\n      0x00\n        /* \"contracts/ERC20.sol\":9790:9811  account != address(0) */\n      0xffffffffffffffffffffffffffffffffffffffff\n      and\n        /* \"contracts/ERC20.sol\":9790:9797  account */\n      dup3\n        /* \"contracts/ERC20.sol\":9790:9811  account != address(0) */\n      0xffffffffffffffffffffffffffffffffffffffff\n      and\n      eq\n      iszero\n        /* \"contracts/ERC20.sol\":9782:9849  require(account != address(0), \"ERC20: burn from the zero address\") */\n      tag_196\n      jumpi\n      mload(0x40)\n      0x08c379a000000000000000000000000000000000000000000000000000000000\n      dup2\n      mstore\n      0x04\n      add\n      tag_197\n      swap1\n      tag_198\n      jump\t// in\n    tag_197:\n      mload(0x40)\n      dup1\n      swap2\n      sub\n      swap1\n      revert\n    tag_196:\n        /* \"contracts/ERC20.sol\":9862:9911  _beforeTokenTransfer(account, address(0), amount) */\n      tag_199\n        /* \"contracts/ERC20.sol\":9883:9890  account */\n      dup3\n        /* \"contracts/ERC20.sol\":9900:9901  0 */\n      0x00\n        /* \"contracts/ERC20.sol\":9904:9910  amount */\n      dup4\n        /* \"contracts/ERC20.sol\":9862:9882  _beforeTokenTransfer */\n      tag_180\n        /* \"contracts/ERC20.sol\":9862:9911  _beforeTokenTransfer(account, address(0), amount) */\n      jump\t// in\n    tag_199:\n        /* \"contracts/ERC20.sol\":9924:9946  uint256 accountBalance */\n      0x00\n        /* \"contracts/ERC20.sol\":9949:9958  _balances */\n      dup1\n        /* \"contracts/ERC20.sol\":9949:9967  _balances[account] */\n      0x00\n        /* \"contracts/ERC20.sol\":9959:9966  account */\n      dup5\n        /* \"contracts/ERC20.sol\":9949:9967  _balances[account] */\n      0xffffffffffffffffffffffffffffffffffffffff\n      and\n      0xffffffffffffffffffffffffffffffffffffffff\n      and\n      dup2\n      mstore\n      0x20\n      add\n      swap1\n      dup2\n      mstore\n      0x20\n      add\n      0x00\n      keccak256\n      sload\n        /* \"contracts/ERC20.sol\":9924:9967  uint256 accountBalance = _balances[account] */\n      swap1\n      pop\n        /* \"contracts/ERC20.sol\":10004:10010  amount */\n      dup2\n        /* \"contracts/ERC20.sol\":9986:10000  accountBalance */\n      dup2\n        /* \"contracts/ERC20.sol\":9986:10010  accountBalance >= amount */\n      lt\n      iszero\n        /* \"contracts/ERC20.sol\":9978:10049  require(accountBalance >= amount, \"ERC20: burn amount exceeds balance\") */\n      tag_200\n      jumpi\n      mload(0x40)\n      0x08c379a000000000000000000000000000000000000000000000000000000000\n      dup2\n      mstore\n      0x04\n      add\n      tag_201\n      swap1\n      tag_202\n      jump\t// in\n    tag_201:\n      mload(0x40)\n      dup1\n      swap2\n      sub\n      swap1\n      revert\n    tag_200:\n        /* \"contracts/ERC20.sol\":10123:10129  amount */\n      dup2\n        /* \"contracts/ERC20.sol\":10106:10120  accountBalance */\n      dup2\n        /* \"contracts/ERC20.sol\":10106:10129  accountBalance - amount */\n      sub\n        /* \"contracts/ERC20.sol\":10085:10094  _balances */\n      0x00\n        /* \"contracts/ERC20.sol\":10085:10103  _balances[account] */\n      dup1\n        /* \"contracts/ERC20.sol\":10095:10102  account */\n      dup6\n        /* \"contracts/ERC20.sol\":10085:10103  _balances[account] */\n      0xffffffffffffffffffffffffffffffffffffffff\n      and\n      0xffffffffffffffffffffffffffffffffffffffff\n      and\n      dup2\n      mstore\n      0x20\n      add\n      swap1\n      dup2\n      mstore\n      0x20\n      add\n      0x00\n      keccak256\n        /* \"contracts/ERC20.sol\":10085:10129  _balances[account] = accountBalance - amount */\n      dup2\n      swap1\n      sstore\n      pop\n        /* \"contracts/ERC20.sol\":10240:10246  amount */\n      dup2\n        /* \"contracts/ERC20.sol\":10224:10236  _totalSupply */\n      0x02\n      0x00\n        /* \"contracts/ERC20.sol\":10224:10246  _totalSupply -= amount */\n      dup3\n      dup3\n      sload\n      sub\n      swap3\n      pop\n      pop\n      dup2\n      swap1\n      sstore\n      pop\n        /* \"contracts/ERC20.sol\":10301:10302  0 */\n      0x00\n        /* \"contracts/ERC20.sol\":10275:10312  Transfer(account, address(0), amount) */\n      0xffffffffffffffffffffffffffffffffffffffff\n      and\n        /* \"contracts/ERC20.sol\":10284:10291  account */\n      dup4\n        /* \"contracts/ERC20.sol\":10275:10312  Transfer(account, address(0), amount) */\n      0xffffffffffffffffffffffffffffffffffffffff\n      and\n      0xddf252ad1be2c89b69c2b068fc378daa952ba7f163c4a11628f55a4df523b3ef\n        /* \"contracts/ERC20.sol\":10305:10311  amount */\n      dup5\n        /* \"contracts/ERC20.sol\":10275:10312  Transfer(account, address(0), amount) */\n      mload(0x40)\n      tag_203\n      swap2\n      swap1\n      tag_40\n      jump\t// in\n    tag_203:\n      mload(0x40)\n      dup1\n      swap2\n      sub\n      swap1\n      log3\n        /* \"contracts/ERC20.sol\":10325:10373  _afterTokenTransfer(account, address(0), amount) */\n      tag_204\n        /* \"contracts/ERC20.sol\":10345:10352  account */\n      dup4\n        /* \"contracts/ERC20.sol\":10362:10363  0 */\n      0x00\n        /* \"contracts/ERC20.sol\":10366:10372  amount */\n      dup5\n        /* \"contracts/ERC20.sol\":10325:10344  _afterTokenTransfer */\n      tag_186\n        /* \"contracts/ERC20.sol\":10325:10373  _afterTokenTransfer(account, address(0), amount) */\n      jump\t// in\n    tag_204:\n        /* \"contracts/ERC20.sol\":9706:10381  function _burn(address account, uint256 amount) internal virtual {\r... */\n      pop\n      pop\n      pop\n      jump\t// out\n        /* \"contracts/ERC20.sol\":12543:12668  function _beforeTokenTransfer(\r... */\n    tag_180:\n      pop\n      pop\n      pop\n      jump\t// out\n        /* \"contracts/ERC20.sol\":13272:13396  function _afterTokenTransfer(\r... */\n    tag_186:\n      pop\n      pop\n      pop\n      jump\t// out\n        /* \"#utility.yul\":7:146   */\n    tag_208:\n      0x00\n        /* \"#utility.yul\":91:97   */\n      dup2\n        /* \"#utility.yul\":78:98   */\n      calldataload\n        /* \"#utility.yul\":69:98   */\n      swap1\n      pop\n        /* \"#utility.yul\":107:140   */\n      tag_210\n        /* \"#utility.yul\":134:139   */\n      dup2\n        /* \"#utility.yul\":107:140   */\n      tag_211\n      jump\t// in\n    tag_210:\n        /* \"#utility.yul\":59:146   */\n      swap3\n      swap2\n      pop\n      pop\n      jump\t// out\n        /* \"#utility.yul\":152:285   */\n    tag_212:\n      0x00\n        /* \"#utility.yul\":233:239   */\n      dup2\n        /* \"#utility.yul\":220:240   */\n      calldataload\n        /* \"#utility.yul\":211:240   */\n      swap1\n      pop\n        /* \"#utility.yul\":249:279   */\n      tag_214\n        /* \"#utility.yul\":273:278   */\n      dup2\n        /* \"#utility.yul\":249:279   */\n      tag_215\n      jump\t// in\n    tag_214:\n        /* \"#utility.yul\":201:285   */\n      swap3\n      swap2\n      pop\n      pop\n      jump\t// out\n        /* \"#utility.yul\":291:428   */\n    tag_216:\n      0x00\n        /* \"#utility.yul\":376:382   */\n      dup2\n        /* \"#utility.yul\":370:383   */\n      mload\n        /* \"#utility.yul\":361:383   */\n      swap1\n      pop\n        /* \"#utility.yul\":392:422   */\n      tag_218\n        /* \"#utility.yul\":416:421   */\n      dup2\n        /* \"#utility.yul\":392:422   */\n      tag_215\n      jump\t// in\n    tag_218:\n        /* \"#utility.yul\":351:428   */\n      swap3\n      swap2\n      pop\n      pop\n      jump\t// out\n        /* \"#utility.yul\":434:573   */\n    tag_219:\n      0x00\n        /* \"#utility.yul\":518:524   */\n      dup2\n        /* \"#utility.yul\":505:525   */\n      calldataload\n        /* \"#utility.yul\":496:525   */\n      swap1\n      pop\n        /* \"#utility.yul\":534:567   */\n      tag_221\n        /* \"#utility.yul\":561:566   */\n      dup2\n        /* \"#utility.yul\":534:567   */\n      tag_222\n      jump\t// in\n    tag_221:\n        /* \"#utility.yul\":486:573   */\n      swap3\n      swap2\n      pop\n      pop\n      jump\t// out\n        /* \"#utility.yul\":579:841   */\n    tag_56:\n      0x00\n        /* \"#utility.yul\":687:689   */\n      0x20\n        /* \"#utility.yul\":675:684   */\n      dup3\n        /* \"#utility.yul\":666:673   */\n      dup5\n        /* \"#utility.yul\":662:685   */\n      sub\n        /* \"#utility.yul\":658:690   */\n      slt\n        /* \"#utility.yul\":655:657   */\n      iszero\n      tag_224\n      jumpi\n        /* \"#utility.yul\":703:704   */\n      0x00\n        /* \"#utility.yul\":700:701   */\n      dup1\n        /* \"#utility.yul\":693:705   */\n      revert\n        /* \"#utility.yul\":655:657   */\n    tag_224:\n        /* \"#utility.yul\":746:747   */\n      0x00\n        /* \"#utility.yul\":771:824   */\n      tag_225\n        /* \"#utility.yul\":816:823   */\n      dup5\n        /* \"#utility.yul\":807:813   */\n      dup3\n        /* \"#utility.yul\":796:805   */\n      dup6\n        /* \"#utility.yul\":792:814   */\n      add\n        /* \"#utility.yul\":771:824   */\n      tag_208\n      jump\t// in\n    tag_225:\n        /* \"#utility.yul\":761:824   */\n      swap2\n      pop\n        /* \"#utility.yul\":717:834   */\n      pop\n        /* \"#utility.yul\":645:841   */\n      swap3\n      swap2\n      pop\n      pop\n      jump\t// out\n        /* \"#utility.yul\":847:1254   */\n    tag_79:\n      0x00\n      dup1\n        /* \"#utility.yul\":972:974   */\n      0x40\n        /* \"#utility.yul\":960:969   */\n      dup4\n        /* \"#utility.yul\":951:958   */\n      dup6\n        /* \"#utility.yul\":947:970   */\n      sub\n        /* \"#utility.yul\":943:975   */\n      slt\n        /* \"#utility.yul\":940:942   */\n      iszero\n      tag_227\n      jumpi\n        /* \"#utility.yul\":988:989   */\n      0x00\n        /* \"#utility.yul\":985:986   */\n      dup1\n        /* \"#utility.yul\":978:990   */\n      revert\n        /* \"#utility.yul\":940:942   */\n    tag_227:\n        /* \"#utility.yul\":1031:1032   */\n      0x00\n        /* \"#utility.yul\":1056:1109   */\n      tag_228\n        /* \"#utility.yul\":1101:1108   */\n      dup6\n        /* \"#utility.yul\":1092:1098   */\n      dup3\n        /* \"#utility.yul\":1081:1090   */\n      dup7\n        /* \"#utility.yul\":1077:1099   */\n      add\n        /* \"#utility.yul\":1056:1109   */\n      tag_208\n      jump\t// in\n    tag_228:\n        /* \"#utility.yul\":1046:1109   */\n      swap3\n      pop\n        /* \"#utility.yul\":1002:1119   */\n      pop\n        /* \"#utility.yul\":1158:1160   */\n      0x20\n        /* \"#utility.yul\":1184:1237   */\n      tag_229\n        /* \"#utility.yul\":1229:1236   */\n      dup6\n        /* \"#utility.yul\":1220:1226   */\n      dup3\n        /* \"#utility.yul\":1209:1218   */\n      dup7\n        /* \"#utility.yul\":1205:1227   */\n      add\n        /* \"#utility.yul\":1184:1237   */\n      tag_208\n      jump\t// in\n    tag_229:\n        /* \"#utility.yul\":1174:1237   */\n      swap2\n      pop\n        /* \"#utility.yul\":1129:1247   */\n      pop\n        /* \"#utility.yul\":930:1254   */\n      swap3\n      pop\n      swap3\n      swap1\n      pop\n      jump\t// out\n        /* \"#utility.yul\":1260:1812   */\n    tag_43:\n      0x00\n      dup1\n      0x00\n        /* \"#utility.yul\":1402:1404   */\n      0x60\n        /* \"#utility.yul\":1390:1399   */\n      dup5\n        /* \"#utility.yul\":1381:1388   */\n      dup7\n        /* \"#utility.yul\":1377:1400   */\n      sub\n        /* \"#utility.yul\":1373:1405   */\n      slt\n        /* \"#utility.yul\":1370:1372   */\n      iszero\n      tag_231\n      jumpi\n        /* \"#utility.yul\":1418:1419   */\n      0x00\n        /* \"#utility.yul\":1415:1416   */\n      dup1\n        /* \"#utility.yul\":1408:1420   */\n      revert\n        /* \"#utility.yul\":1370:1372   */\n    tag_231:\n        /* \"#utility.yul\":1461:1462   */\n      0x00\n        /* \"#utility.yul\":1486:1539   */\n      tag_232\n        /* \"#utility.yul\":1531:1538   */\n      dup7\n        /* \"#utility.yul\":1522:1528   */\n      dup3\n        /* \"#utility.yul\":1511:1520   */\n      dup8\n        /* \"#utility.yul\":1507:1529   */\n      add\n        /* \"#utility.yul\":1486:1539   */\n      tag_208\n      jump\t// in\n    tag_232:\n        /* \"#utility.yul\":1476:1539   */\n      swap4\n      pop\n        /* \"#utility.yul\":1432:1549   */\n      pop\n        /* \"#utility.yul\":1588:1590   */\n      0x20\n        /* \"#utility.yul\":1614:1667   */\n      tag_233\n        /* \"#utility.yul\":1659:1666   */\n      dup7\n        /* \"#utility.yul\":1650:1656   */\n      dup3\n        /* \"#utility.yul\":1639:1648   */\n      dup8\n        /* \"#utility.yul\":1635:1657   */\n      add\n        /* \"#utility.yul\":1614:1667   */\n      tag_208\n      jump\t// in\n    tag_233:\n        /* \"#utility.yul\":1604:1667   */\n      swap3\n      pop\n        /* \"#utility.yul\":1559:1677   */\n      pop\n        /* \"#utility.yul\":1716:1718   */\n      0x40\n        /* \"#utility.yul\":1742:1795   */\n      tag_234\n        /* \"#utility.yul\":1787:1794   */\n      dup7\n        /* \"#utility.yul\":1778:1784   */\n      dup3\n        /* \"#utility.yul\":1767:1776   */\n      dup8\n        /* \"#utility.yul\":1763:1785   */\n      add\n        /* \"#utility.yul\":1742:1795   */\n      tag_219\n      jump\t// in\n    tag_234:\n        /* \"#utility.yul\":1732:1795   */\n      swap2\n      pop\n        /* \"#utility.yul\":1687:1805   */\n      pop\n        /* \"#utility.yul\":1360:1812   */\n      swap3\n      pop\n      swap3\n      pop\n      swap3\n      jump\t// out\n        /* \"#utility.yul\":1818:2225   */\n    tag_33:\n      0x00\n      dup1\n        /* \"#utility.yul\":1943:1945   */\n      0x40\n        /* \"#utility.yul\":1931:1940   */\n      dup4\n        /* \"#utility.yul\":1922:1929   */\n      dup6\n        /* \"#utility.yul\":1918:1941   */\n      sub\n        /* \"#utility.yul\":1914:1946   */\n      slt\n        /* \"#utility.yul\":1911:1913   */\n      iszero\n      tag_236\n      jumpi\n        /* \"#utility.yul\":1959:1960   */\n      0x00\n        /* \"#utility.yul\":1956:1957   */\n      dup1\n        /* \"#utility.yul\":1949:1961   */\n      revert\n        /* \"#utility.yul\":1911:1913   */\n    tag_236:\n        /* \"#utility.yul\":2002:2003   */\n      0x00\n        /* \"#utility.yul\":2027:2080   */\n      tag_237\n        /* \"#utility.yul\":2072:2079   */\n      dup6\n        /* \"#utility.yul\":2063:2069   */\n      dup3\n        /* \"#utility.yul\":2052:2061   */\n      dup7\n        /* \"#utility.yul\":2048:2070   */\n      add\n        /* \"#utility.yul\":2027:2080   */\n      tag_208\n      jump\t// in\n    tag_237:\n        /* \"#utility.yul\":2017:2080   */\n      swap3\n      pop\n        /* \"#utility.yul\":1973:2090   */\n      pop\n        /* \"#utility.yul\":2129:2131   */\n      0x20\n        /* \"#utility.yul\":2155:2208   */\n      tag_238\n        /* \"#utility.yul\":2200:2207   */\n      dup6\n        /* \"#utility.yul\":2191:2197   */\n      dup3\n        /* \"#utility.yul\":2180:2189   */\n      dup7\n        /* \"#utility.yul\":2176:2198   */\n      add\n        /* \"#utility.yul\":2155:2208   */\n      tag_219\n      jump\t// in\n    tag_238:\n        /* \"#utility.yul\":2145:2208   */\n      swap2\n      pop\n        /* \"#utility.yul\":2100:2218   */\n      pop\n        /* \"#utility.yul\":1901:2225   */\n      swap3\n      pop\n      swap3\n      swap1\n      pop\n      jump\t// out\n        /* \"#utility.yul\":2231:2509   */\n    tag_143:\n      0x00\n        /* \"#utility.yul\":2347:2349   */\n      0x20\n        /* \"#utility.yul\":2335:2344   */\n      dup3\n        /* \"#utility.yul\":2326:2333   */\n      dup5\n        /* \"#utility.yul\":2322:2345   */\n      sub\n        /* \"#utility.yul\":2318:2350   */\n      slt\n        /* \"#utility.yul\":2315:2317   */\n      iszero\n      tag_240\n      jumpi\n        /* \"#utility.yul\":2363:2364   */\n      0x00\n        /* \"#utility.yul\":2360:2361   */\n      dup1\n        /* \"#utility.yul\":2353:2365   */\n      revert\n        /* \"#utility.yul\":2315:2317   */\n    tag_240:\n        /* \"#utility.yul\":2406:2407   */\n      0x00\n        /* \"#utility.yul\":2431:2492   */\n      tag_241\n        /* \"#utility.yul\":2484:2491   */\n      dup5\n        /* \"#utility.yul\":2475:2481   */\n      dup3\n        /* \"#utility.yul\":2464:2473   */\n      dup6\n        /* \"#utility.yul\":2460:2482   */\n      add\n        /* \"#utility.yul\":2431:2492   */\n      tag_216\n      jump\t// in\n    tag_241:\n        /* \"#utility.yul\":2421:2492   */\n      swap2\n      pop\n        /* \"#utility.yul\":2377:2502   */\n      pop\n        /* \"#utility.yul\":2305:2509   */\n      swap3\n      swap2\n      pop\n      pop\n      jump\t// out\n        /* \"#utility.yul\":2515:2777   */\n    tag_23:\n      0x00\n        /* \"#utility.yul\":2623:2625   */\n      0x20\n        /* \"#utility.yul\":2611:2620   */\n      dup3\n        /* \"#utility.yul\":2602:2609   */\n      dup5\n        /* \"#utility.yul\":2598:2621   */\n      sub\n        /* \"#utility.yul\":2594:2626   */\n      slt\n        /* \"#utility.yul\":2591:2593   */\n      iszero\n      tag_243\n      jumpi\n        /* \"#utility.yul\":2639:2640   */\n      0x00\n        /* \"#utility.yul\":2636:2637   */\n      dup1\n        /* \"#utility.yul\":2629:2641   */\n      revert\n        /* \"#utility.yul\":2591:2593   */\n    tag_243:\n        /* \"#utility.yul\":2682:2683   */\n      0x00\n        /* \"#utility.yul\":2707:2760   */\n      tag_244\n        /* \"#utility.yul\":2752:2759   */\n      dup5\n        /* \"#utility.yul\":2743:2749   */\n      dup3\n        /* \"#utility.yul\":2732:2741   */\n      dup6\n        /* \"#utility.yul\":2728:2750   */\n      add\n        /* \"#utility.yul\":2707:2760   */\n      tag_219\n      jump\t// in\n    tag_244:\n        /* \"#utility.yul\":2697:2760   */\n      swap2\n      pop\n        /* \"#utility.yul\":2653:2770   */\n      pop\n        /* \"#utility.yul\":2581:2777   */\n      swap3\n      swap2\n      pop\n      pop\n      jump\t// out\n        /* \"#utility.yul\":2783:3184   */\n    tag_72:\n      0x00\n      dup1\n        /* \"#utility.yul\":2905:2907   */\n      0x40\n        /* \"#utility.yul\":2893:2902   */\n      dup4\n        /* \"#utility.yul\":2884:2891   */\n      dup6\n        /* \"#utility.yul\":2880:2903   */\n      sub\n        /* \"#utility.yul\":2876:2908   */\n      slt\n        /* \"#utility.yul\":2873:2875   */\n      iszero\n      tag_246\n      jumpi\n        /* \"#utility.yul\":2921:2922   */\n      0x00\n        /* \"#utility.yul\":2918:2919   */\n      dup1\n        /* \"#utility.yul\":2911:2923   */\n      revert\n        /* \"#utility.yul\":2873:2875   */\n    tag_246:\n        /* \"#utility.yul\":2964:2965   */\n      0x00\n        /* \"#utility.yul\":2989:3042   */\n      tag_247\n        /* \"#utility.yul\":3034:3041   */\n      dup6\n        /* \"#utility.yul\":3025:3031   */\n      dup3\n        /* \"#utility.yul\":3014:3023   */\n      dup7\n        /* \"#utility.yul\":3010:3032   */\n      add\n        /* \"#utility.yul\":2989:3042   */\n      tag_219\n      jump\t// in\n    tag_247:\n        /* \"#utility.yul\":2979:3042   */\n      swap3\n      pop\n        /* \"#utility.yul\":2935:3052   */\n      pop\n        /* \"#utility.yul\":3091:3093   */\n      0x20\n        /* \"#utility.yul\":3117:3167   */\n      tag_248\n        /* \"#utility.yul\":3159:3166   */\n      dup6\n        /* \"#utility.yul\":3150:3156   */\n      dup3\n        /* \"#utility.yul\":3139:3148   */\n      dup7\n        /* \"#utility.yul\":3135:3157   */\n      add\n        /* \"#utility.yul\":3117:3167   */\n      tag_212\n      jump\t// in\n    tag_248:\n        /* \"#utility.yul\":3107:3167   */\n      swap2\n      pop\n        /* \"#utility.yul\":3062:3177   */\n      pop\n        /* \"#utility.yul\":2863:3184   */\n      swap3\n      pop\n      swap3\n      swap1\n      pop\n      jump\t// out\n        /* \"#utility.yul\":3190:3308   */\n    tag_249:\n        /* \"#utility.yul\":3277:3301   */\n      tag_251\n        /* \"#utility.yul\":3295:3300   */\n      dup2\n        /* \"#utility.yul\":3277:3301   */\n      tag_252\n      jump\t// in\n    tag_251:\n        /* \"#utility.yul\":3272:3275   */\n      dup3\n        /* \"#utility.yul\":3265:3302   */\n      mstore\n        /* \"#utility.yul\":3255:3308   */\n      pop\n      pop\n      jump\t// out\n        /* \"#utility.yul\":3314:3423   */\n    tag_253:\n        /* \"#utility.yul\":3395:3416   */\n      tag_255\n        /* \"#utility.yul\":3410:3415   */\n      dup2\n        /* \"#utility.yul\":3395:3416   */\n      tag_256\n      jump\t// in\n    tag_255:\n        /* \"#utility.yul\":3390:3393   */\n      dup3\n        /* \"#utility.yul\":3383:3417   */\n      mstore\n        /* \"#utility.yul\":3373:3423   */\n      pop\n      pop\n      jump\t// out\n        /* \"#utility.yul\":3429:3793   */\n    tag_257:\n      0x00\n        /* \"#utility.yul\":3545:3584   */\n      tag_259\n        /* \"#utility.yul\":3578:3583   */\n      dup3\n        /* \"#utility.yul\":3545:3584   */\n      tag_260\n      jump\t// in\n    tag_259:\n        /* \"#utility.yul\":3600:3671   */\n      tag_261\n        /* \"#utility.yul\":3664:3670   */\n      dup2\n        /* \"#utility.yul\":3659:3662   */\n      dup6\n        /* \"#utility.yul\":3600:3671   */\n      tag_262\n      jump\t// in\n    tag_261:\n        /* \"#utility.yul\":3593:3671   */\n      swap4\n      pop\n        /* \"#utility.yul\":3680:3732   */\n      tag_263\n        /* \"#utility.yul\":3725:3731   */\n      dup2\n        /* \"#utility.yul\":3720:3723   */\n      dup6\n        /* \"#utility.yul\":3713:3717   */\n      0x20\n        /* \"#utility.yul\":3706:3711   */\n      dup7\n        /* \"#utility.yul\":3702:3718   */\n      add\n        /* \"#utility.yul\":3680:3732   */\n      tag_264\n      jump\t// in\n    tag_263:\n        /* \"#utility.yul\":3757:3786   */\n      tag_265\n        /* \"#utility.yul\":3779:3785   */\n      dup2\n        /* \"#utility.yul\":3757:3786   */\n      tag_266\n      jump\t// in\n    tag_265:\n        /* \"#utility.yul\":3752:3755   */\n      dup5\n        /* \"#utility.yul\":3748:3787   */\n      add\n        /* \"#utility.yul\":3741:3787   */\n      swap2\n      pop\n        /* \"#utility.yul\":3521:3793   */\n      pop\n      swap3\n      swap2\n      pop\n      pop\n      jump\t// out\n        /* \"#utility.yul\":3799:4166   */\n    tag_267:\n      0x00\n        /* \"#utility.yul\":3962:4029   */\n      tag_269\n        /* \"#utility.yul\":4026:4028   */\n      0x23\n        /* \"#utility.yul\":4021:4024   */\n      dup4\n        /* \"#utility.yul\":3962:4029   */\n      tag_262\n      jump\t// in\n    tag_269:\n        /* \"#utility.yul\":3955:4029   */\n      swap2\n      pop\n        /* \"#utility.yul\":4059:4093   */\n      0x45524332303a207472616e7366657220746f20746865207a65726f2061646472\n        /* \"#utility.yul\":4055:4056   */\n      0x00\n        /* \"#utility.yul\":4050:4053   */\n      dup4\n        /* \"#utility.yul\":4046:4057   */\n      add\n        /* \"#utility.yul\":4039:4094   */\n      mstore\n        /* \"#utility.yul\":4125:4130   */\n      0x6573730000000000000000000000000000000000000000000000000000000000\n        /* \"#utility.yul\":4120:4122   */\n      0x20\n        /* \"#utility.yul\":4115:4118   */\n      dup4\n        /* \"#utility.yul\":4111:4123   */\n      add\n        /* \"#utility.yul\":4104:4131   */\n      mstore\n        /* \"#utility.yul\":4157:4159   */\n      0x40\n        /* \"#utility.yul\":4152:4155   */\n      dup3\n        /* \"#utility.yul\":4148:4160   */\n      add\n        /* \"#utility.yul\":4141:4160   */\n      swap1\n      pop\n        /* \"#utility.yul\":3945:4166   */\n      swap2\n      swap1\n      pop\n      jump\t// out\n        /* \"#utility.yul\":4172:4538   */\n    tag_270:\n      0x00\n        /* \"#utility.yul\":4335:4402   */\n      tag_272\n        /* \"#utility.yul\":4399:4401   */\n      0x22\n        /* \"#utility.yul\":4394:4397   */\n      dup4\n        /* \"#utility.yul\":4335:4402   */\n      tag_262\n      jump\t// in\n    tag_272:\n        /* \"#utility.yul\":4328:4402   */\n      swap2\n      pop\n        /* \"#utility.yul\":4432:4466   */\n      0x45524332303a206275726e20616d6f756e7420657863656564732062616c616e\n        /* \"#utility.yul\":4428:4429   */\n      0x00\n        /* \"#utility.yul\":4423:4426   */\n      dup4\n        /* \"#utility.yul\":4419:4430   */\n      add\n        /* \"#utility.yul\":4412:4467   */\n      mstore\n        /* \"#utility.yul\":4498:4502   */\n      0x6365000000000000000000000000000000000000000000000000000000000000\n        /* \"#utility.yul\":4493:4495   */\n      0x20\n        /* \"#utility.yul\":4488:4491   */\n      dup4\n        /* \"#utility.yul\":4484:4496   */\n      add\n        /* \"#utility.yul\":4477:4503   */\n      mstore\n        /* \"#utility.yul\":4529:4531   */\n      0x40\n        /* \"#utility.yul\":4524:4527   */\n      dup3\n        /* \"#utility.yul\":4520:4532   */\n      add\n        /* \"#utility.yul\":4513:4532   */\n      swap1\n      pop\n        /* \"#utility.yul\":4318:4538   */\n      swap2\n      swap1\n      pop\n      jump\t// out\n        /* \"#utility.yul\":4544:4910   */\n    tag_273:\n      0x00\n        /* \"#utility.yul\":4707:4774   */\n      tag_275\n        /* \"#utility.yul\":4771:4773   */\n      0x22\n        /* \"#utility.yul\":4766:4769   */\n      dup4\n        /* \"#utility.yul\":4707:4774   */\n      tag_262\n      jump\t// in\n    tag_275:\n        /* \"#utility.yul\":4700:4774   */\n      swap2\n      pop\n        /* \"#utility.yul\":4804:4838   */\n      0x45524332303a20617070726f766520746f20746865207a65726f206164647265\n        /* \"#utility.yul\":4800:4801   */\n      0x00\n        /* \"#utility.yul\":4795:4798   */\n      dup4\n        /* \"#utility.yul\":4791:4802   */\n      add\n        /* \"#utility.yul\":4784:4839   */\n      mstore\n        /* \"#utility.yul\":4870:4874   */\n      0x7373000000000000000000000000000000000000000000000000000000000000\n        /* \"#utility.yul\":4865:4867   */\n      0x20\n        /* \"#utility.yul\":4860:4863   */\n      dup4\n        /* \"#utility.yul\":4856:4868   */\n      add\n        /* \"#utility.yul\":4849:4875   */\n      mstore\n        /* \"#utility.yul\":4901:4903   */\n      0x40\n        /* \"#utility.yul\":4896:4899   */\n      dup3\n        /* \"#utility.yul\":4892:4904   */\n      add\n        /* \"#utility.yul\":4885:4904   */\n      swap1\n      pop\n        /* \"#utility.yul\":4690:4910   */\n      swap2\n      swap1\n      pop\n      jump\t// out\n        /* \"#utility.yul\":4916:5243   */\n    tag_276:\n      0x00\n        /* \"#utility.yul\":5079:5146   */\n      tag_278\n        /* \"#utility.yul\":5143:5145   */\n      0x1d\n        /* \"#utility.yul\":5138:5141   */\n      dup4\n        /* \"#utility.yul\":5079:5146   */\n      tag_262\n      jump\t// in\n    tag_278:\n        /* \"#utility.yul\":5072:5146   */\n      swap2\n      pop\n        /* \"#utility.yul\":5176:5207   */\n      0x45524332303a20696e73756666696369656e7420616c6c6f77616e6365000000\n        /* \"#utility.yul\":5172:5173   */\n      0x00\n        /* \"#utility.yul\":5167:5170   */\n      dup4\n        /* \"#utility.yul\":5163:5174   */\n      add\n        /* \"#utility.yul\":5156:5208   */\n      mstore\n        /* \"#utility.yul\":5234:5236   */\n      0x20\n        /* \"#utility.yul\":5229:5232   */\n      dup3\n        /* \"#utility.yul\":5225:5237   */\n      add\n        /* \"#utility.yul\":5218:5237   */\n      swap1\n      pop\n        /* \"#utility.yul\":5062:5243   */\n      swap2\n      swap1\n      pop\n      jump\t// out\n        /* \"#utility.yul\":5249:5619   */\n    tag_279:\n      0x00\n        /* \"#utility.yul\":5412:5479   */\n      tag_281\n        /* \"#utility.yul\":5476:5478   */\n      0x26\n        /* \"#utility.yul\":5471:5474   */\n      dup4\n        /* \"#utility.yul\":5412:5479   */\n      tag_262\n      jump\t// in\n    tag_281:\n        /* \"#utility.yul\":5405:5479   */\n      swap2\n      pop\n        /* \"#utility.yul\":5509:5543   */\n      0x45524332303a207472616e7366657220616d6f756e7420657863656564732062\n        /* \"#utility.yul\":5505:5506   */\n      0x00\n        /* \"#utility.yul\":5500:5503   */\n      dup4\n        /* \"#utility.yul\":5496:5507   */\n      add\n        /* \"#utility.yul\":5489:5544   */\n      mstore\n        /* \"#utility.yul\":5575:5583   */\n      0x616c616e63650000000000000000000000000000000000000000000000000000\n        /* \"#utility.yul\":5570:5572   */\n      0x20\n        /* \"#utility.yul\":5565:5568   */\n      dup4\n        /* \"#utility.yul\":5561:5573   */\n      add\n        /* \"#utility.yul\":5554:5584   */\n      mstore\n        /* \"#utility.yul\":5610:5612   */\n      0x40\n        /* \"#utility.yul\":5605:5608   */\n      dup3\n        /* \"#utility.yul\":5601:5613   */\n      add\n        /* \"#utility.yul\":5594:5613   */\n      swap1\n      pop\n        /* \"#utility.yul\":5395:5619   */\n      swap2\n      swap1\n      pop\n      jump\t// out\n        /* \"#utility.yul\":5625:5990   */\n    tag_282:\n      0x00\n        /* \"#utility.yul\":5788:5855   */\n      tag_284\n        /* \"#utility.yul\":5852:5854   */\n      0x21\n        /* \"#utility.yul\":5847:5850   */\n      dup4\n        /* \"#utility.yul\":5788:5855   */\n      tag_262\n      jump\t// in\n    tag_284:\n        /* \"#utility.yul\":5781:5855   */\n      swap2\n      pop\n        /* \"#utility.yul\":5885:5919   */\n      0x45524332303a206275726e2066726f6d20746865207a65726f20616464726573\n        /* \"#utility.yul\":5881:5882   */\n      0x00\n        /* \"#utility.yul\":5876:5879   */\n      dup4\n        /* \"#utility.yul\":5872:5883   */\n      add\n        /* \"#utility.yul\":5865:5920   */\n      mstore\n        /* \"#utility.yul\":5951:5954   */\n      0x7300000000000000000000000000000000000000000000000000000000000000\n        /* \"#utility.yul\":5946:5948   */\n      0x20\n        /* \"#utility.yul\":5941:5944   */\n      dup4\n        /* \"#utility.yul\":5937:5949   */\n      add\n        /* \"#utility.yul\":5930:5955   */\n      mstore\n        /* \"#utility.yul\":5981:5983   */\n      0x40\n        /* \"#utility.yul\":5976:5979   */\n      dup3\n        /* \"#utility.yul\":5972:5984   */\n      add\n        /* \"#utility.yul\":5965:5984   */\n      swap1\n      pop\n        /* \"#utility.yul\":5771:5990   */\n      swap2\n      swap1\n      pop\n      jump\t// out\n        /* \"#utility.yul\":5996:6365   */\n    tag_285:\n      0x00\n        /* \"#utility.yul\":6159:6226   */\n      tag_287\n        /* \"#utility.yul\":6223:6225   */\n      0x25\n        /* \"#utility.yul\":6218:6221   */\n      dup4\n        /* \"#utility.yul\":6159:6226   */\n      tag_262\n      jump\t// in\n    tag_287:\n        /* \"#utility.yul\":6152:6226   */\n      swap2\n      pop\n        /* \"#utility.yul\":6256:6290   */\n      0x45524332303a207472616e736665722066726f6d20746865207a65726f206164\n        /* \"#utility.yul\":6252:6253   */\n      0x00\n        /* \"#utility.yul\":6247:6250   */\n      dup4\n        /* \"#utility.yul\":6243:6254   */\n      add\n        /* \"#utility.yul\":6236:6291   */\n      mstore\n        /* \"#utility.yul\":6322:6329   */\n      0x6472657373000000000000000000000000000000000000000000000000000000\n        /* \"#utility.yul\":6317:6319   */\n      0x20\n        /* \"#utility.yul\":6312:6315   */\n      dup4\n        /* \"#utility.yul\":6308:6320   */\n      add\n        /* \"#utility.yul\":6301:6330   */\n      mstore\n        /* \"#utility.yul\":6356:6358   */\n      0x40\n        /* \"#utility.yul\":6351:6354   */\n      dup3\n        /* \"#utility.yul\":6347:6359   */\n      add\n        /* \"#utility.yul\":6340:6359   */\n      swap1\n      pop\n        /* \"#utility.yul\":6142:6365   */\n      swap2\n      swap1\n      pop\n      jump\t// out\n        /* \"#utility.yul\":6371:6739   */\n    tag_288:\n      0x00\n        /* \"#utility.yul\":6534:6601   */\n      tag_290\n        /* \"#utility.yul\":6598:6600   */\n      0x24\n        /* \"#utility.yul\":6593:6596   */\n      dup4\n        /* \"#utility.yul\":6534:6601   */\n      tag_262\n      jump\t// in\n    tag_290:\n        /* \"#utility.yul\":6527:6601   */\n      swap2\n      pop\n        /* \"#utility.yul\":6631:6665   */\n      0x45524332303a20617070726f76652066726f6d20746865207a65726f20616464\n        /* \"#utility.yul\":6627:6628   */\n      0x00\n        /* \"#utility.yul\":6622:6625   */\n      dup4\n        /* \"#utility.yul\":6618:6629   */\n      add\n        /* \"#utility.yul\":6611:6666   */\n      mstore\n        /* \"#utility.yul\":6697:6703   */\n      0x7265737300000000000000000000000000000000000000000000000000000000\n        /* \"#utility.yul\":6692:6694   */\n      0x20\n        /* \"#utility.yul\":6687:6690   */\n      dup4\n        /* \"#utility.yul\":6683:6695   */\n      add\n        /* \"#utility.yul\":6676:6704   */\n      mstore\n        /* \"#utility.yul\":6730:6732   */\n      0x40\n        /* \"#utility.yul\":6725:6728   */\n      dup3\n        /* \"#utility.yul\":6721:6733   */\n      add\n        /* \"#utility.yul\":6714:6733   */\n      swap1\n      pop\n        /* \"#utility.yul\":6517:6739   */\n      swap2\n      swap1\n      pop\n      jump\t// out\n        /* \"#utility.yul\":6745:7114   */\n    tag_291:\n      0x00\n        /* \"#utility.yul\":6908:6975   */\n      tag_293\n        /* \"#utility.yul\":6972:6974   */\n      0x25\n        /* \"#utility.yul\":6967:6970   */\n      dup4\n        /* \"#utility.yul\":6908:6975   */\n      tag_262\n      jump\t// in\n    tag_293:\n        /* \"#utility.yul\":6901:6975   */\n      swap2\n      pop\n        /* \"#utility.yul\":7005:7039   */\n      0x45524332303a2064656372656173656420616c6c6f77616e63652062656c6f77\n        /* \"#utility.yul\":7001:7002   */\n      0x00\n        /* \"#utility.yul\":6996:6999   */\n      dup4\n        /* \"#utility.yul\":6992:7003   */\n      add\n        /* \"#utility.yul\":6985:7040   */\n      mstore\n        /* \"#utility.yul\":7071:7078   */\n      0x207a65726f000000000000000000000000000000000000000000000000000000\n        /* \"#utility.yul\":7066:7068   */\n      0x20\n        /* \"#utility.yul\":7061:7064   */\n      dup4\n        /* \"#utility.yul\":7057:7069   */\n      add\n        /* \"#utility.yul\":7050:7079   */\n      mstore\n        /* \"#utility.yul\":7105:7107   */\n      0x40\n        /* \"#utility.yul\":7100:7103   */\n      dup3\n        /* \"#utility.yul\":7096:7108   */\n      add\n        /* \"#utility.yul\":7089:7108   */\n      swap1\n      pop\n        /* \"#utility.yul\":6891:7114   */\n      swap2\n      swap1\n      pop\n      jump\t// out\n        /* \"#utility.yul\":7120:7449   */\n    tag_294:\n      0x00\n        /* \"#utility.yul\":7283:7350   */\n      tag_296\n        /* \"#utility.yul\":7347:7349   */\n      0x1f\n        /* \"#utility.yul\":7342:7345   */\n      dup4\n        /* \"#utility.yul\":7283:7350   */\n      tag_262\n      jump\t// in\n    tag_296:\n        /* \"#utility.yul\":7276:7350   */\n      swap2\n      pop\n        /* \"#utility.yul\":7380:7413   */\n      0x45524332303a206d696e7420746f20746865207a65726f206164647265737300\n        /* \"#utility.yul\":7376:7377   */\n      0x00\n        /* \"#utility.yul\":7371:7374   */\n      dup4\n        /* \"#utility.yul\":7367:7378   */\n      add\n        /* \"#utility.yul\":7360:7414   */\n      mstore\n        /* \"#utility.yul\":7440:7442   */\n      0x20\n        /* \"#utility.yul\":7435:7438   */\n      dup3\n        /* \"#utility.yul\":7431:7443   */\n      add\n        /* \"#utility.yul\":7424:7443   */\n      swap1\n      pop\n        /* \"#utility.yul\":7266:7449   */\n      swap2\n      swap1\n      pop\n      jump\t// out\n        /* \"#utility.yul\":7455:7573   */\n    tag_297:\n        /* \"#utility.yul\":7542:7566   */\n      tag_299\n        /* \"#utility.yul\":7560:7565   */\n      dup2\n        /* \"#utility.yul\":7542:7566   */\n      tag_300\n      jump\t// in\n    tag_299:\n        /* \"#utility.yul\":7537:7540   */\n      dup3\n        /* \"#utility.yul\":7530:7567   */\n      mstore\n        /* \"#utility.yul\":7520:7573   */\n      pop\n      pop\n      jump\t// out\n        /* \"#utility.yul\":7579:7691   */\n    tag_301:\n        /* \"#utility.yul\":7662:7684   */\n      tag_303\n        /* \"#utility.yul\":7678:7683   */\n      dup2\n        /* \"#utility.yul\":7662:7684   */\n      tag_304\n      jump\t// in\n    tag_303:\n        /* \"#utility.yul\":7657:7660   */\n      dup3\n        /* \"#utility.yul\":7650:7685   */\n      mstore\n        /* \"#utility.yul\":7640:7691   */\n      pop\n      pop\n      jump\t// out\n        /* \"#utility.yul\":7697:8139   */\n    tag_138:\n      0x00\n        /* \"#utility.yul\":7884:7886   */\n      0x60\n        /* \"#utility.yul\":7873:7882   */\n      dup3\n        /* \"#utility.yul\":7869:7887   */\n      add\n        /* \"#utility.yul\":7861:7887   */\n      swap1\n      pop\n        /* \"#utility.yul\":7897:7968   */\n      tag_306\n        /* \"#utility.yul\":7965:7966   */\n      0x00\n        /* \"#utility.yul\":7954:7963   */\n      dup4\n        /* \"#utility.yul\":7950:7967   */\n      add\n        /* \"#utility.yul\":7941:7947   */\n      dup7\n        /* \"#utility.yul\":7897:7968   */\n      tag_249\n      jump\t// in\n    tag_306:\n        /* \"#utility.yul\":7978:8050   */\n      tag_307\n        /* \"#utility.yul\":8046:8048   */\n      0x20\n        /* \"#utility.yul\":8035:8044   */\n      dup4\n        /* \"#utility.yul\":8031:8049   */\n      add\n        /* \"#utility.yul\":8022:8028   */\n      dup6\n        /* \"#utility.yul\":7978:8050   */\n      tag_249\n      jump\t// in\n    tag_307:\n        /* \"#utility.yul\":8060:8132   */\n      tag_308\n        /* \"#utility.yul\":8128:8130   */\n      0x40\n        /* \"#utility.yul\":8117:8126   */\n      dup4\n        /* \"#utility.yul\":8113:8131   */\n      add\n        /* \"#utility.yul\":8104:8110   */\n      dup5\n        /* \"#utility.yul\":8060:8132   */\n      tag_297\n      jump\t// in\n    tag_308:\n        /* \"#utility.yul\":7851:8139   */\n      swap5\n      swap4\n      pop\n      pop\n      pop\n      pop\n      jump\t// out\n        /* \"#utility.yul\":8145:8477   */\n    tag_151:\n      0x00\n        /* \"#utility.yul\":8304:8306   */\n      0x40\n        /* \"#utility.yul\":8293:8302   */\n      dup3\n        /* \"#utility.yul\":8289:8307   */\n      add\n        /* \"#utility.yul\":8281:8307   */\n      swap1\n      pop\n        /* \"#utility.yul\":8317:8388   */\n      tag_310\n        /* \"#utility.yul\":8385:8386   */\n      0x00\n        /* \"#utility.yul\":8374:8383   */\n      dup4\n        /* \"#utility.yul\":8370:8387   */\n      add\n        /* \"#utility.yul\":8361:8367   */\n      dup6\n        /* \"#utility.yul\":8317:8388   */\n      tag_249\n      jump\t// in\n    tag_310:\n        /* \"#utility.yul\":8398:8470   */\n      tag_311\n        /* \"#utility.yul\":8466:8468   */\n      0x20\n        /* \"#utility.yul\":8455:8464   */\n      dup4\n        /* \"#utility.yul\":8451:8469   */\n      add\n        /* \"#utility.yul\":8442:8448   */\n      dup5\n        /* \"#utility.yul\":8398:8470   */\n      tag_297\n      jump\t// in\n    tag_311:\n        /* \"#utility.yul\":8271:8477   */\n      swap4\n      swap3\n      pop\n      pop\n      pop\n      jump\t// out\n        /* \"#utility.yul\":8483:8693   */\n    tag_36:\n      0x00\n        /* \"#utility.yul\":8608:8610   */\n      0x20\n        /* \"#utility.yul\":8597:8606   */\n      dup3\n        /* \"#utility.yul\":8593:8611   */\n      add\n        /* \"#utility.yul\":8585:8611   */\n      swap1\n      pop\n        /* \"#utility.yul\":8621:8686   */\n      tag_313\n        /* \"#utility.yul\":8683:8684   */\n      0x00\n        /* \"#utility.yul\":8672:8681   */\n      dup4\n        /* \"#utility.yul\":8668:8685   */\n      add\n        /* \"#utility.yul\":8659:8665   */\n      dup5\n        /* \"#utility.yul\":8621:8686   */\n      tag_253\n      jump\t// in\n    tag_313:\n        /* \"#utility.yul\":8575:8693   */\n      swap3\n      swap2\n      pop\n      pop\n      jump\t// out\n        /* \"#utility.yul\":8699:9012   */\n    tag_30:\n      0x00\n        /* \"#utility.yul\":8850:8852   */\n      0x20\n        /* \"#utility.yul\":8839:8848   */\n      dup3\n        /* \"#utility.yul\":8835:8853   */\n      add\n        /* \"#utility.yul\":8827:8853   */\n      swap1\n      pop\n        /* \"#utility.yul\":8899:8908   */\n      dup2\n        /* \"#utility.yul\":8893:8897   */\n      dup2\n        /* \"#utility.yul\":8889:8909   */\n      sub\n        /* \"#utility.yul\":8885:8886   */\n      0x00\n        /* \"#utility.yul\":8874:8883   */\n      dup4\n        /* \"#utility.yul\":8870:8887   */\n      add\n        /* \"#utility.yul\":8863:8910   */\n      mstore\n        /* \"#utility.yul\":8927:9005   */\n      tag_315\n        /* \"#utility.yul\":9000:9004   */\n      dup2\n        /* \"#utility.yul\":8991:8997   */\n      dup5\n        /* \"#utility.yul\":8927:9005   */\n      tag_257\n      jump\t// in\n    tag_315:\n        /* \"#utility.yul\":8919:9005   */\n      swap1\n      pop\n        /* \"#utility.yul\":8817:9012   */\n      swap3\n      swap2\n      pop\n      pop\n      jump\t// out\n        /* \"#utility.yul\":9018:9437   */\n    tag_178:\n      0x00\n        /* \"#utility.yul\":9222:9224   */\n      0x20\n        /* \"#utility.yul\":9211:9220   */\n      dup3\n        /* \"#utility.yul\":9207:9225   */\n      add\n        /* \"#utility.yul\":9199:9225   */\n      swap1\n      pop\n        /* \"#utility.yul\":9271:9280   */\n      dup2\n        /* \"#utility.yul\":9265:9269   */\n      dup2\n        /* \"#utility.yul\":9261:9281   */\n      sub\n        /* \"#utility.yul\":9257:9258   */\n      0x00\n        /* \"#utility.yul\":9246:9255   */\n      dup4\n        /* \"#utility.yul\":9242:9259   */\n      add\n        /* \"#utility.yul\":9235:9282   */\n      mstore\n        /* \"#utility.yul\":9299:9430   */\n      tag_317\n        /* \"#utility.yul\":9425:9429   */\n      dup2\n        /* \"#utility.yul\":9299:9430   */\n      tag_267\n      jump\t// in\n    tag_317:\n        /* \"#utility.yul\":9291:9430   */\n      swap1\n      pop\n        /* \"#utility.yul\":9189:9437   */\n      swap2\n      swap1\n      pop\n      jump\t// out\n        /* \"#utility.yul\":9443:9862   */\n    tag_202:\n      0x00\n        /* \"#utility.yul\":9647:9649   */\n      0x20\n        /* \"#utility.yul\":9636:9645   */\n      dup3\n        /* \"#utility.yul\":9632:9650   */\n      add\n        /* \"#utility.yul\":9624:9650   */\n      swap1\n      pop\n        /* \"#utility.yul\":9696:9705   */\n      dup2\n        /* \"#utility.yul\":9690:9694   */\n      dup2\n        /* \"#utility.yul\":9686:9706   */\n      sub\n        /* \"#utility.yul\":9682:9683   */\n      0x00\n        /* \"#utility.yul\":9671:9680   */\n      dup4\n        /* \"#utility.yul\":9667:9684   */\n      add\n        /* \"#utility.yul\":9660:9707   */\n      mstore\n        /* \"#utility.yul\":9724:9855   */\n      tag_319\n        /* \"#utility.yul\":9850:9854   */\n      dup2\n        /* \"#utility.yul\":9724:9855   */\n      tag_270\n      jump\t// in\n    tag_319:\n        /* \"#utility.yul\":9716:9855   */\n      swap1\n      pop\n        /* \"#utility.yul\":9614:9862   */\n      swap2\n      swap1\n      pop\n      jump\t// out\n        /* \"#utility.yul\":9868:10287   */\n    tag_163:\n      0x00\n        /* \"#utility.yul\":10072:10074   */\n      0x20\n        /* \"#utility.yul\":10061:10070   */\n      dup3\n        /* \"#utility.yul\":10057:10075   */\n      add\n        /* \"#utility.yul\":10049:10075   */\n      swap1\n      pop\n        /* \"#utility.yul\":10121:10130   */\n      dup2\n        /* \"#utility.yul\":10115:10119   */\n      dup2\n        /* \"#utility.yul\":10111:10131   */\n      sub\n        /* \"#utility.yul\":10107:10108   */\n      0x00\n        /* \"#utility.yul\":10096:10105   */\n      dup4\n        /* \"#utility.yul\":10092:10109   */\n      add\n        /* \"#utility.yul\":10085:10132   */\n      mstore\n        /* \"#utility.yul\":10149:10280   */\n      tag_321\n        /* \"#utility.yul\":10275:10279   */\n      dup2\n        /* \"#utility.yul\":10149:10280   */\n      tag_273\n      jump\t// in\n    tag_321:\n        /* \"#utility.yul\":10141:10280   */\n      swap1\n      pop\n        /* \"#utility.yul\":10039:10287   */\n      swap2\n      swap1\n      pop\n      jump\t// out\n        /* \"#utility.yul\":10293:10712   */\n    tag_170:\n      0x00\n        /* \"#utility.yul\":10497:10499   */\n      0x20\n        /* \"#utility.yul\":10486:10495   */\n      dup3\n        /* \"#utility.yul\":10482:10500   */\n      add\n        /* \"#utility.yul\":10474:10500   */\n      swap1\n      pop\n        /* \"#utility.yul\":10546:10555   */\n      dup2\n        /* \"#utility.yul\":10540:10544   */\n      dup2\n        /* \"#utility.yul\":10536:10556   */\n      sub\n        /* \"#utility.yul\":10532:10533   */\n      0x00\n        /* \"#utility.yul\":10521:10530   */\n      dup4\n        /* \"#utility.yul\":10517:10534   */\n      add\n        /* \"#utility.yul\":10510:10557   */\n      mstore\n        /* \"#utility.yul\":10574:10705   */\n      tag_323\n        /* \"#utility.yul\":10700:10704   */\n      dup2\n        /* \"#utility.yul\":10574:10705   */\n      tag_276\n      jump\t// in\n    tag_323:\n        /* \"#utility.yul\":10566:10705   */\n      swap1\n      pop\n        /* \"#utility.yul\":10464:10712   */\n      swap2\n      swap1\n      pop\n      jump\t// out\n        /* \"#utility.yul\":10718:11137   */\n    tag_183:\n      0x00\n        /* \"#utility.yul\":10922:10924   */\n      0x20\n        /* \"#utility.yul\":10911:10920   */\n      dup3\n        /* \"#utility.yul\":10907:10925   */\n      add\n        /* \"#utility.yul\":10899:10925   */\n      swap1\n      pop\n        /* \"#utility.yul\":10971:10980   */\n      dup2\n        /* \"#utility.yul\":10965:10969   */\n      dup2\n        /* \"#utility.yul\":10961:10981   */\n      sub\n        /* \"#utility.yul\":10957:10958   */\n      0x00\n        /* \"#utility.yul\":10946:10955   */\n      dup4\n        /* \"#utility.yul\":10942:10959   */\n      add\n        /* \"#utility.yul\":10935:10982   */\n      mstore\n        /* \"#utility.yul\":10999:11130   */\n      tag_325\n        /* \"#utility.yul\":11125:11129   */\n      dup2\n        /* \"#utility.yul\":10999:11130   */\n      tag_279\n      jump\t// in\n    tag_325:\n        /* \"#utility.yul\":10991:11130   */\n      swap1\n      pop\n        /* \"#utility.yul\":10889:11137   */\n      swap2\n      swap1\n      pop\n      jump\t// out\n        /* \"#utility.yul\":11143:11562   */\n    tag_198:\n      0x00\n        /* \"#utility.yul\":11347:11349   */\n      0x20\n        /* \"#utility.yul\":11336:11345   */\n      dup3\n        /* \"#utility.yul\":11332:11350   */\n      add\n        /* \"#utility.yul\":11324:11350   */\n      swap1\n      pop\n        /* \"#utility.yul\":11396:11405   */\n      dup2\n        /* \"#utility.yul\":11390:11394   */\n      dup2\n        /* \"#utility.yul\":11386:11406   */\n      sub\n        /* \"#utility.yul\":11382:11383   */\n      0x00\n        /* \"#utility.yul\":11371:11380   */\n      dup4\n        /* \"#utility.yul\":11367:11384   */\n      add\n        /* \"#utility.yul\":11360:11407   */\n      mstore\n        /* \"#utility.yul\":11424:11555   */\n      tag_327\n        /* \"#utility.yul\":11550:11554   */\n      dup2\n        /* \"#utility.yul\":11424:11555   */\n      tag_282\n      jump\t// in\n    tag_327:\n        /* \"#utility.yul\":11416:11555   */\n      swap1\n      pop\n        /* \"#utility.yul\":11314:11562   */\n      swap2\n      swap1\n      pop\n      jump\t// out\n        /* \"#utility.yul\":11568:11987   */\n    tag_175:\n      0x00\n        /* \"#utility.yul\":11772:11774   */\n      0x20\n        /* \"#utility.yul\":11761:11770   */\n      dup3\n        /* \"#utility.yul\":11757:11775   */\n      add\n        /* \"#utility.yul\":11749:11775   */\n      swap1\n      pop\n        /* \"#utility.yul\":11821:11830   */\n      dup2\n        /* \"#utility.yul\":11815:11819   */\n      dup2\n        /* \"#utility.yul\":11811:11831   */\n      sub\n        /* \"#utility.yul\":11807:11808   */\n      0x00\n        /* \"#utility.yul\":11796:11805   */\n      dup4\n        /* \"#utility.yul\":11792:11809   */\n      add\n        /* \"#utility.yul\":11785:11832   */\n      mstore\n        /* \"#utility.yul\":11849:11980   */\n      tag_329\n        /* \"#utility.yul\":11975:11979   */\n      dup2\n        /* \"#utility.yul\":11849:11980   */\n      tag_285\n      jump\t// in\n    tag_329:\n        /* \"#utility.yul\":11841:11980   */\n      swap1\n      pop\n        /* \"#utility.yul\":11739:11987   */\n      swap2\n      swap1\n      pop\n      jump\t// out\n        /* \"#utility.yul\":11993:12412   */\n    tag_160:\n      0x00\n        /* \"#utility.yul\":12197:12199   */\n      0x20\n        /* \"#utility.yul\":12186:12195   */\n      dup3\n        /* \"#utility.yul\":12182:12200   */\n      add\n        /* \"#utility.yul\":12174:12200   */\n      swap1\n      pop\n        /* \"#utility.yul\":12246:12255   */\n      dup2\n        /* \"#utility.yul\":12240:12244   */\n      dup2\n        /* \"#utility.yul\":12236:12256   */\n      sub\n        /* \"#utility.yul\":12232:12233   */\n      0x00\n        /* \"#utility.yul\":12221:12230   */\n      dup4\n        /* \"#utility.yul\":12217:12234   */\n      add\n        /* \"#utility.yul\":12210:12257   */\n      mstore\n        /* \"#utility.yul\":12274:12405   */\n      tag_331\n        /* \"#utility.yul\":12400:12404   */\n      dup2\n        /* \"#utility.yul\":12274:12405   */\n      tag_288\n      jump\t// in\n    tag_331:\n        /* \"#utility.yul\":12266:12405   */\n      swap1\n      pop\n        /* \"#utility.yul\":12164:12412   */\n      swap2\n      swap1\n      pop\n      jump\t// out\n        /* \"#utility.yul\":12418:12837   */\n    tag_123:\n      0x00\n        /* \"#utility.yul\":12622:12624   */\n      0x20\n        /* \"#utility.yul\":12611:12620   */\n      dup3\n        /* \"#utility.yul\":12607:12625   */\n      add\n        /* \"#utility.yul\":12599:12625   */\n      swap1\n      pop\n        /* \"#utility.yul\":12671:12680   */\n      dup2\n        /* \"#utility.yul\":12665:12669   */\n      dup2\n        /* \"#utility.yul\":12661:12681   */\n      sub\n        /* \"#utility.yul\":12657:12658   */\n      0x00\n        /* \"#utility.yul\":12646:12655   */\n      dup4\n        /* \"#utility.yul\":12642:12659   */\n      add\n        /* \"#utility.yul\":12635:12682   */\n      mstore\n        /* \"#utility.yul\":12699:12830   */\n      tag_333\n        /* \"#utility.yul\":12825:12829   */\n      dup2\n        /* \"#utility.yul\":12699:12830   */\n      tag_291\n      jump\t// in\n    tag_333:\n        /* \"#utility.yul\":12691:12830   */\n      swap1\n      pop\n        /* \"#utility.yul\":12589:12837   */\n      swap2\n      swap1\n      pop\n      jump\t// out\n        /* \"#utility.yul\":12843:13262   */\n    tag_190:\n      0x00\n        /* \"#utility.yul\":13047:13049   */\n      0x20\n        /* \"#utility.yul\":13036:13045   */\n      dup3\n        /* \"#utility.yul\":13032:13050   */\n      add\n        /* \"#utility.yul\":13024:13050   */\n      swap1\n      pop\n        /* \"#utility.yul\":13096:13105   */\n      dup2\n        /* \"#utility.yul\":13090:13094   */\n      dup2\n        /* \"#utility.yul\":13086:13106   */\n      sub\n        /* \"#utility.yul\":13082:13083   */\n      0x00\n        /* \"#utility.yul\":13071:13080   */\n      dup4\n        /* \"#utility.yul\":13067:13084   */\n      add\n        /* \"#utility.yul\":13060:13107   */\n      mstore\n        /* \"#utility.yul\":13124:13255   */\n      tag_335\n        /* \"#utility.yul\":13250:13254   */\n      dup2\n        /* \"#utility.yul\":13124:13255   */\n      tag_294\n      jump\t// in\n    tag_335:\n        /* \"#utility.yul\":13116:13255   */\n      swap1\n      pop\n        /* \"#utility.yul\":13014:13262   */\n      swap2\n      swap1\n      pop\n      jump\t// out\n        /* \"#utility.yul\":13268:13490   */\n    tag_40:\n      0x00\n        /* \"#utility.yul\":13399:13401   */\n      0x20\n        /* \"#utility.yul\":13388:13397   */\n      dup3\n        /* \"#utility.yul\":13384:13402   */\n      add\n        /* \"#utility.yul\":13376:13402   */\n      swap1\n      pop\n        /* \"#utility.yul\":13412:13483   */\n      tag_337\n        /* \"#utility.yul\":13480:13481   */\n      0x00\n        /* \"#utility.yul\":13469:13478   */\n      dup4\n        /* \"#utility.yul\":13465:13482   */\n      add\n        /* \"#utility.yul\":13456:13462   */\n      dup5\n        /* \"#utility.yul\":13412:13483   */\n      tag_297\n      jump\t// in\n    tag_337:\n        /* \"#utility.yul\":13366:13490   */\n      swap3\n      swap2\n      pop\n      pop\n      jump\t// out\n        /* \"#utility.yul\":13496:13828   */\n    tag_26:\n      0x00\n        /* \"#utility.yul\":13655:13657   */\n      0x40\n        /* \"#utility.yul\":13644:13653   */\n      dup3\n        /* \"#utility.yul\":13640:13658   */\n      add\n        /* \"#utility.yul\":13632:13658   */\n      swap1\n      pop\n        /* \"#utility.yul\":13668:13739   */\n      tag_339\n        /* \"#utility.yul\":13736:13737   */\n      0x00\n        /* \"#utility.yul\":13725:13734   */\n      dup4\n        /* \"#utility.yul\":13721:13738   */\n      add\n        /* \"#utility.yul\":13712:13718   */\n      dup6\n        /* \"#utility.yul\":13668:13739   */\n      tag_297\n      jump\t// in\n    tag_339:\n        /* \"#utility.yul\":13749:13821   */\n      tag_340\n        /* \"#utility.yul\":13817:13819   */\n      0x20\n        /* \"#utility.yul\":13806:13815   */\n      dup4\n        /* \"#utility.yul\":13802:13820   */\n      add\n        /* \"#utility.yul\":13793:13799   */\n      dup5\n        /* \"#utility.yul\":13749:13821   */\n      tag_297\n      jump\t// in\n    tag_340:\n        /* \"#utility.yul\":13622:13828   */\n      swap4\n      swap3\n      pop\n      pop\n      pop\n      jump\t// out\n        /* \"#utility.yul\":13834:14048   */\n    tag_49:\n      0x00\n        /* \"#utility.yul\":13961:13963   */\n      0x20\n        /* \"#utility.yul\":13950:13959   */\n      dup3\n        /* \"#utility.yul\":13946:13964   */\n      add\n        /* \"#utility.yul\":13938:13964   */\n      swap1\n      pop\n        /* \"#utility.yul\":13974:14041   */\n      tag_342\n        /* \"#utility.yul\":14038:14039   */\n      0x00\n        /* \"#utility.yul\":14027:14036   */\n      dup4\n        /* \"#utility.yul\":14023:14040   */\n      add\n        /* \"#utility.yul\":14014:14020   */\n      dup5\n        /* \"#utility.yul\":13974:14041   */\n      tag_301\n      jump\t// in\n    tag_342:\n        /* \"#utility.yul\":13928:14048   */\n      swap3\n      swap2\n      pop\n      pop\n      jump\t// out\n        /* \"#utility.yul\":14054:14153   */\n    tag_260:\n      0x00\n        /* \"#utility.yul\":14140:14145   */\n      dup2\n        /* \"#utility.yul\":14134:14146   */\n      mload\n        /* \"#utility.yul\":14124:14146   */\n      swap1\n      pop\n        /* \"#utility.yul\":14113:14153   */\n      swap2\n      swap1\n      pop\n      jump\t// out\n        /* \"#utility.yul\":14159:14328   */\n    tag_262:\n      0x00\n        /* \"#utility.yul\":14277:14283   */\n      dup3\n        /* \"#utility.yul\":14272:14275   */\n      dup3\n        /* \"#utility.yul\":14265:14284   */\n      mstore\n        /* \"#utility.yul\":14317:14321   */\n      0x20\n        /* \"#utility.yul\":14312:14315   */\n      dup3\n        /* \"#utility.yul\":14308:14322   */\n      add\n        /* \"#utility.yul\":14293:14322   */\n      swap1\n      pop\n        /* \"#utility.yul\":14255:14328   */\n      swap3\n      swap2\n      pop\n      pop\n      jump\t// out\n        /* \"#utility.yul\":14334:14639   */\n    tag_110:\n      0x00\n        /* \"#utility.yul\":14393:14413   */\n      tag_346\n        /* \"#utility.yul\":14411:14412   */\n      dup3\n        /* \"#utility.yul\":14393:14413   */\n      tag_300\n      jump\t// in\n    tag_346:\n        /* \"#utility.yul\":14388:14413   */\n      swap2\n      pop\n        /* \"#utility.yul\":14427:14447   */\n      tag_347\n        /* \"#utility.yul\":14445:14446   */\n      dup4\n        /* \"#utility.yul\":14427:14447   */\n      tag_300\n      jump\t// in\n    tag_347:\n        /* \"#utility.yul\":14422:14447   */\n      swap3\n      pop\n        /* \"#utility.yul\":14581:14582   */\n      dup3\n        /* \"#utility.yul\":14513:14579   */\n      0xffffffffffffffffffffffffffffffffffffffffffffffffffffffffffffffff\n        /* \"#utility.yul\":14509:14583   */\n      sub\n        /* \"#utility.yul\":14506:14507   */\n      dup3\n        /* \"#utility.yul\":14503:14584   */\n      gt\n        /* \"#utility.yul\":14500:14502   */\n      iszero\n      tag_348\n      jumpi\n        /* \"#utility.yul\":14587:14605   */\n      tag_349\n      tag_350\n      jump\t// in\n    tag_349:\n        /* \"#utility.yul\":14500:14502   */\n    tag_348:\n        /* \"#utility.yul\":14631:14632   */\n      dup3\n        /* \"#utility.yul\":14628:14629   */\n      dup3\n        /* \"#utility.yul\":14624:14633   */\n      add\n        /* \"#utility.yul\":14617:14633   */\n      swap1\n      pop\n        /* \"#utility.yul\":14378:14639   */\n      swap3\n      swap2\n      pop\n      pop\n      jump\t// out\n        /* \"#utility.yul\":14645:14741   */\n    tag_252:\n      0x00\n        /* \"#utility.yul\":14711:14735   */\n      tag_352\n        /* \"#utility.yul\":14729:14734   */\n      dup3\n        /* \"#utility.yul\":14711:14735   */\n      tag_353\n      jump\t// in\n    tag_352:\n        /* \"#utility.yul\":14700:14735   */\n      swap1\n      pop\n        /* \"#utility.yul\":14690:14741   */\n      swap2\n      swap1\n      pop\n      jump\t// out\n        /* \"#utility.yul\":14747:14837   */\n    tag_256:\n      0x00\n        /* \"#utility.yul\":14824:14829   */\n      dup2\n        /* \"#utility.yul\":14817:14830   */\n      iszero\n        /* \"#utility.yul\":14810:14831   */\n      iszero\n        /* \"#utility.yul\":14799:14831   */\n      swap1\n      pop\n        /* \"#utility.yul\":14789:14837   */\n      swap2\n      swap1\n      pop\n      jump\t// out\n        /* \"#utility.yul\":14843:14969   */\n    tag_353:\n      0x00\n        /* \"#utility.yul\":14920:14962   */\n      0xffffffffffffffffffffffffffffffffffffffff\n        /* \"#utility.yul\":14913:14918   */\n      dup3\n        /* \"#utility.yul\":14909:14963   */\n      and\n        /* \"#utility.yul\":14898:14963   */\n      swap1\n      pop\n        /* \"#utility.yul\":14888:14969   */\n      swap2\n      swap1\n      pop\n      jump\t// out\n        /* \"#utility.yul\":14975:15052   */\n    tag_300:\n      0x00\n        /* \"#utility.yul\":15041:15046   */\n      dup2\n        /* \"#utility.yul\":15030:15046   */\n      swap1\n      pop\n        /* \"#utility.yul\":15020:15052   */\n      swap2\n      swap1\n      pop\n      jump\t// out\n        /* \"#utility.yul\":15058:15144   */\n    tag_304:\n      0x00\n        /* \"#utility.yul\":15133:15137   */\n      0xff\n        /* \"#utility.yul\":15126:15131   */\n      dup3\n        /* \"#utility.yul\":15122:15138   */\n      and\n        /* \"#utility.yul\":15111:15138   */\n      swap1\n      pop\n        /* \"#utility.yul\":15101:15144   */\n      swap2\n      swap1\n      pop\n      jump\t// out\n        /* \"#utility.yul\":15150:15457   */\n    tag_264:\n        /* \"#utility.yul\":15218:15219   */\n      0x00\n        /* \"#utility.yul\":15228:15341   */\n    tag_359:\n        /* \"#utility.yul\":15242:15248   */\n      dup4\n        /* \"#utility.yul\":15239:15240   */\n      dup2\n        /* \"#utility.yul\":15236:15249   */\n      lt\n        /* \"#utility.yul\":15228:15341   */\n      iszero\n      tag_361\n      jumpi\n        /* \"#utility.yul\":15327:15328   */\n      dup1\n        /* \"#utility.yul\":15322:15325   */\n      dup3\n        /* \"#utility.yul\":15318:15329   */\n      add\n        /* \"#utility.yul\":15312:15330   */\n      mload\n        /* \"#utility.yul\":15308:15309   */\n      dup2\n        /* \"#utility.yul\":15303:15306   */\n      dup5\n        /* \"#utility.yul\":15299:15310   */\n      add\n        /* \"#utility.yul\":15292:15331   */\n      mstore\n        /* \"#utility.yul\":15264:15266   */\n      0x20\n        /* \"#utility.yul\":15261:15262   */\n      dup2\n        /* \"#utility.yul\":15257:15267   */\n      add\n        /* \"#utility.yul\":15252:15267   */\n      swap1\n      pop\n        /* \"#utility.yul\":15228:15341   */\n      jump(tag_359)\n    tag_361:\n        /* \"#utility.yul\":15359:15365   */\n      dup4\n        /* \"#utility.yul\":15356:15357   */\n      dup2\n        /* \"#utility.yul\":15353:15366   */\n      gt\n        /* \"#utility.yul\":15350:15352   */\n      iszero\n      tag_362\n      jumpi\n        /* \"#utility.yul\":15439:15440   */\n      0x00\n        /* \"#utility.yul\":15430:15436   */\n      dup5\n        /* \"#utility.yul\":15425:15428   */\n      dup5\n        /* \"#utility.yul\":15421:15437   */\n      add\n        /* \"#utility.yul\":15414:15441   */\n      mstore\n        /* \"#utility.yul\":15350:15352   */\n    tag_362:\n        /* \"#utility.yul\":15199:15457   */\n      pop\n      pop\n      pop\n      pop\n      jump\t// out\n        /* \"#utility.yul\":15463:15783   */\n    tag_87:\n      0x00\n        /* \"#utility.yul\":15544:15545   */\n      0x02\n        /* \"#utility.yul\":15538:15542   */\n      dup3\n        /* \"#utility.yul\":15534:15546   */\n      div\n        /* \"#utility.yul\":15524:15546   */\n      swap1\n      pop\n        /* \"#utility.yul\":15591:15592   */\n      0x01\n        /* \"#utility.yul\":15585:15589   */\n      dup3\n        /* \"#utility.yul\":15581:15593   */\n      and\n        /* \"#utility.yul\":15612:15630   */\n      dup1\n        /* \"#utility.yul\":15602:15604   */\n      tag_364\n      jumpi\n        /* \"#utility.yul\":15668:15672   */\n      0x7f\n        /* \"#utility.yul\":15660:15666   */\n      dup3\n        /* \"#utility.yul\":15656:15673   */\n      and\n        /* \"#utility.yul\":15646:15673   */\n      swap2\n      pop\n        /* \"#utility.yul\":15602:15604   */\n    tag_364:\n        /* \"#utility.yul\":15730:15732   */\n      0x20\n        /* \"#utility.yul\":15722:15728   */\n      dup3\n        /* \"#utility.yul\":15719:15733   */\n      lt\n        /* \"#utility.yul\":15699:15717   */\n      dup2\n        /* \"#utility.yul\":15696:15734   */\n      eq\n        /* \"#utility.yul\":15693:15695   */\n      iszero\n      tag_365\n      jumpi\n        /* \"#utility.yul\":15749:15767   */\n      tag_366\n      tag_367\n      jump\t// in\n    tag_366:\n        /* \"#utility.yul\":15693:15695   */\n    tag_365:\n        /* \"#utility.yul\":15514:15783   */\n      pop\n      swap2\n      swap1\n      pop\n      jump\t// out\n        /* \"#utility.yul\":15789:15969   */\n    tag_350:\n        /* \"#utility.yul\":15837:15914   */\n      0x4e487b7100000000000000000000000000000000000000000000000000000000\n        /* \"#utility.yul\":15834:15835   */\n      0x00\n        /* \"#utility.yul\":15827:15915   */\n      mstore\n        /* \"#utility.yul\":15934:15938   */\n      0x11\n        /* \"#utility.yul\":15931:15932   */\n      0x04\n        /* \"#utility.yul\":15924:15939   */\n      mstore\n        /* \"#utility.yul\":15958:15962   */\n      0x24\n        /* \"#utility.yul\":15955:15956   */\n      0x00\n        /* \"#utility.yul\":15948:15963   */\n      revert\n        /* \"#utility.yul\":15975:16155   */\n    tag_367:\n        /* \"#utility.yul\":16023:16100   */\n      0x4e487b7100000000000000000000000000000000000000000000000000000000\n        /* \"#utility.yul\":16020:16021   */\n      0x00\n        /* \"#utility.yul\":16013:16101   */\n      mstore\n        /* \"#utility.yul\":16120:16124   */\n      0x22\n        /* \"#utility.yul\":16117:16118   */\n      0x04\n        /* \"#utility.yul\":16110:16125   */\n      mstore\n        /* \"#utility.yul\":16144:16148   */\n      0x24\n        /* \"#utility.yul\":16141:16142   */\n      0x00\n        /* \"#utility.yul\":16134:16149   */\n      revert\n        /* \"#utility.yul\":16161:16263   */\n    tag_266:\n      0x00\n        /* \"#utility.yul\":16253:16255   */\n      0x1f\n        /* \"#utility.yul\":16249:16256   */\n      not\n        /* \"#utility.yul\":16244:16246   */\n      0x1f\n        /* \"#utility.yul\":16237:16242   */\n      dup4\n        /* \"#utility.yul\":16233:16247   */\n      add\n        /* \"#utility.yul\":16229:16257   */\n      and\n        /* \"#utility.yul\":16219:16257   */\n      swap1\n      pop\n        /* \"#utility.yul\":16209:16263   */\n      swap2\n      swap1\n      pop\n      jump\t// out\n        /* \"#utility.yul\":16269:16391   */\n    tag_211:\n        /* \"#utility.yul\":16342:16366   */\n      tag_372\n        /* \"#utility.yul\":16360:16365   */\n      dup2\n        /* \"#utility.yul\":16342:16366   */\n      tag_252\n      jump\t// in\n    tag_372:\n        /* \"#utility.yul\":16335:16340   */\n      dup2\n        /* \"#utility.yul\":16332:16367   */\n      eq\n        /* \"#utility.yul\":16322:16324   */\n      tag_373\n      jumpi\n        /* \"#utility.yul\":16381:16382   */\n      0x00\n        /* \"#utility.yul\":16378:16379   */\n      dup1\n        /* \"#utility.yul\":16371:16383   */\n      revert\n        /* \"#utility.yul\":16322:16324   */\n    tag_373:\n        /* \"#utility.yul\":16312:16391   */\n      pop\n      jump\t// out\n        /* \"#utility.yul\":16397:16513   */\n    tag_215:\n        /* \"#utility.yul\":16467:16488   */\n      tag_375\n        /* \"#utility.yul\":16482:16487   */\n      dup2\n        /* \"#utility.yul\":16467:16488   */\n      tag_256\n      jump\t// in\n    tag_375:\n        /* \"#utility.yul\":16460:16465   */\n      dup2\n        /* \"#utility.yul\":16457:16489   */\n      eq\n        /* \"#utility.yul\":16447:16449   */\n      tag_376\n      jumpi\n        /* \"#utility.yul\":16503:16504   */\n      0x00\n        /* \"#utility.yul\":16500:16501   */\n      dup1\n        /* \"#utility.yul\":16493:16505   */\n      revert\n        /* \"#utility.yul\":16447:16449   */\n    tag_376:\n        /* \"#utility.yul\":16437:16513   */\n      pop\n      jump\t// out\n        /* \"#utility.yul\":16519:16641   */\n    tag_222:\n        /* \"#utility.yul\":16592:16616   */\n      tag_378\n        /* \"#utility.yul\":16610:16615   */\n      dup2\n        /* \"#utility.yul\":16592:16616   */\n      tag_300\n      jump\t// in\n    tag_378:\n        /* \"#utility.yul\":16585:16590   */\n      dup2\n        /* \"#utility.yul\":16582:16617   */\n      eq\n        /* \"#utility.yul\":16572:16574   */\n      tag_379\n      jumpi\n        /* \"#utility.yul\":16631:16632   */\n      0x00\n        /* \"#utility.yul\":16628:16629   */\n      dup1\n        /* \"#utility.yul\":16621:16633   */\n      revert\n        /* \"#utility.yul\":16572:16574   */\n    tag_379:\n        /* \"#utility.yul\":16562:16641   */\n      pop\n      jump\t// out\n\n    auxdata: 0xa264697066735822122070177577a9b2f3f2ca73761659d5500a8b2c50434c93563506fb7c364e12b6aa64736f6c63430008000033\n}\n",
				"bytecode": {
					"linkReferences": {},
					"object": "60806040523480156200001157600080fd5b506040518060400160405280600681526020017f476f7665726e00000000000000000000000000000000000000000000000000008152506040518060400160405280600381526020017f474f560000000000000000000000000000000000000000000000000000000000815250816003908051906020019062000096929190620000b8565b508060049080519060200190620000af929190620000b8565b505050620001cd565b828054620000c69062000168565b90600052602060002090601f016020900481019282620000ea576000855562000136565b82601f106200010557805160ff191683800117855562000136565b8280016001018555821562000136579182015b828111156200013557825182559160200191906001019062000118565b5b50905062000145919062000149565b5090565b5b80821115620001645760008160009055506001016200014a565b5090565b600060028204905060018216806200018157607f821691505b602082108114156200019857620001976200019e565b5b50919050565b7f4e487b7100000000000000000000000000000000000000000000000000000000600052602260045260246000fd5b611b6180620001dd6000396000f3fe608060405234801561001057600080fd5b50600436106100f55760003560e01c806370a0823111610097578063c9d27afe11610066578063c9d27afe146102c3578063d96a094a146102df578063dd62ed3e146102fb578063e4849b321461032b576100f5565b806370a082311461021557806395d89b4114610245578063a457c2d714610263578063a9059cbb14610293576100f5565b806318160ddd116100d357806318160ddd1461017957806323b872dd14610197578063313ce567146101c757806339509351146101e5576100f5565b8063013cf08b146100fa57806306fdde031461012b578063095ea7b314610149575b600080fd5b610114600480360381019061010f9190611285565b610347565b604051610122929190611907565b60405180910390f35b61013361036b565b604051610140919061178a565b60405180910390f35b610163600480360381019061015e9190611220565b6103fd565b604051610170919061176f565b60405180910390f35b610181610420565b60405161018e91906118ec565b60405180910390f35b6101b160048036038101906101ac91906111d1565b61042a565b6040516101be919061176f565b60405180910390f35b6101cf610459565b6040516101dc9190611930565b60405180910390f35b6101ff60048036038101906101fa9190611220565b610462565b60405161020c919061176f565b60405180910390f35b61022f600480360381019061022a919061116c565b610499565b60405161023c91906118ec565b60405180910390f35b61024d6104e1565b60405161025a919061178a565b60405180910390f35b61027d60048036038101906102789190611220565b610573565b60405161028a919061176f565b60405180910390f35b6102ad60048036038101906102a89190611220565b6105ea565b6040516102ba919061176f565b60405180910390f35b6102dd60048036038101906102d891906112ae565b61060d565b005b6102f960048036038101906102f49190611285565b61072b565b005b61031560048036038101906103109190611195565b6107dc565b60405161032291906118ec565b60405180910390f35b61034560048036038101906103409190611285565b610863565b005b60076020528060005260406000206000915090508060000154908060010154905082565b60606003805461037a90611a45565b80601f01602080910402602001604051908101604052809291908181526020018280546103a690611a45565b80156103f35780601f106103c8576101008083540402835291602001916103f3565b820191906000526020600020905b8154815290600101906020018083116103d657829003601f168201915b5050505050905090565b600080610408610912565b905061041581858561091a565b600191505092915050565b6000600254905090565b600080610435610912565b9050610442858285610ae5565b61044d858585610b71565b60019150509392505050565b60006012905090565b60008061046d610912565b905061048e81858561047f85896107dc565b6104899190611967565b61091a565b600191505092915050565b60008060008373ffffffffffffffffffffffffffffffffffffffff1673ffffffffffffffffffffffffffffffffffffffff168152602001908152602001600020549050919050565b6060600480546104f090611a45565b80601f016020809104026020016040519081016040528092919081815260200182805461051c90611a45565b80156105695780601f1061053e57610100808354040283529160200191610569565b820191906000526020600020905b81548152906001019060200180831161054c57829003601f168201915b5050505050905090565b60008061057e610912565b9050600061058c82866107dc565b9050838110156105d1576040517f08c379a00000000000000000000000000000000000000000000000000000000081526004016105c8906118ac565b60405180910390fd5b6105de828686840361091a565b60019250505092915050565b6000806105f5610912565b9050610602818585610b71565b600191505092915050565b600560003373ffffffffffffffffffffffffffffffffffffffff1673ffffffffffffffffffffffffffffffffffffffff16815260200190815260200160002060009054906101000a900460ff161561066457600080fd5b600060076000848152602001908152602001600020905081156106a95761068a33610499565b81600001600082825461069d9190611967565b925050819055506106cd565b6106b233610499565b8160010160008282546106c59190611967565b925050819055505b818160020160003373ffffffffffffffffffffffffffffffffffffffff1673ffffffffffffffffffffffffffffffffffffffff16815260200190815260200160002060006101000a81548160ff021916908315150217905550505050565b736b175474e89094c44da98b954eedeac495271d0f73ffffffffffffffffffffffffffffffffffffffff166323b872dd3330846040518463ffffffff1660e01b815260040161077c9392919061170f565b602060405180830381600087803b15801561079657600080fd5b505af11580156107aa573d6000803e3d6000fd5b505050506040513d601f19601f820116820180604052508101906107ce919061125c565b506107d93382610de9565b50565b6000600160008473ffffffffffffffffffffffffffffffffffffffff1673ffffffffffffffffffffffffffffffffffffffff16815260200190815260200160002060008373ffffffffffffffffffffffffffffffffffffffff1673ffffffffffffffffffffffffffffffffffffffff16815260200190815260200160002054905092915050565b61086d3382610f40565b736b175474e89094c44da98b954eedeac495271d0f73ffffffffffffffffffffffffffffffffffffffff1663a9059cbb33836040518363ffffffff1660e01b81526004016108bc929190611746565b602060405180830381600087803b1580156108d657600080fd5b505af11580156108ea573d6000803e3d6000fd5b505050506040513d601f19601f8201168201806040525081019061090e919061125c565b5050565b600033905090565b600073ffffffffffffffffffffffffffffffffffffffff168373ffffffffffffffffffffffffffffffffffffffff16141561098a576040517f08c379a00000000000000000000000000000000000000000000000000000000081526004016109819061188c565b60405180910390fd5b600073ffffffffffffffffffffffffffffffffffffffff168273ffffffffffffffffffffffffffffffffffffffff1614156109fa576040517f08c379a00000000000000000000000000000000000000000000000000000000081526004016109f1906117ec565b60405180910390fd5b80600160008573ffffffffffffffffffffffffffffffffffffffff1673ffffffffffffffffffffffffffffffffffffffff16815260200190815260200160002060008473ffffffffffffffffffffffffffffffffffffffff1673ffffffffffffffffffffffffffffffffffffffff168152602001908152602001600020819055508173ffffffffffffffffffffffffffffffffffffffff168373ffffffffffffffffffffffffffffffffffffffff167f8c5be1e5ebec7d5bd14f71427d1e84f3dd0314c0f7b2291e5b200ac8c7c3b92583604051610ad891906118ec565b60405180910390a3505050565b6000610af184846107dc565b90507fffffffffffffffffffffffffffffffffffffffffffffffffffffffffffffffff8114610b6b5781811015610b5d576040517f08c379a0000000000000000000000000000000000000000000000000000000008152600401610b549061180c565b60405180910390fd5b610b6a848484840361091a565b5b50505050565b600073ffffffffffffffffffffffffffffffffffffffff168373ffffffffffffffffffffffffffffffffffffffff161415610be1576040517f08c379a0000000000000000000000000000000000000000000000000000000008152600401610bd89061186c565b60405180910390fd5b600073ffffffffffffffffffffffffffffffffffffffff168273ffffffffffffffffffffffffffffffffffffffff161415610c51576040517f08c379a0000000000000000000000000000000000000000000000000000000008152600401610c48906117ac565b60405180910390fd5b610c5c83838361110e565b60008060008573ffffffffffffffffffffffffffffffffffffffff1673ffffffffffffffffffffffffffffffffffffffff16815260200190815260200160002054905081811015610ce2576040517f08c379a0000000000000000000000000000000000000000000000000000000008152600401610cd99061182c565b60405180910390fd5b8181036000808673ffffffffffffffffffffffffffffffffffffffff1673ffffffffffffffffffffffffffffffffffffffff16815260200190815260200160002081905550816000808573ffffffffffffffffffffffffffffffffffffffff1673ffffffffffffffffffffffffffffffffffffffff168152602001908152602001600020600082825401925050819055508273ffffffffffffffffffffffffffffffffffffffff168473ffffffffffffffffffffffffffffffffffffffff167fddf252ad1be2c89b69c2b068fc378daa952ba7f163c4a11628f55a4df523b3ef84604051610dd091906118ec565b60405180910390a3610de3848484611113565b50505050565b600073ffffffffffffffffffffffffffffffffffffffff168273ffffffffffffffffffffffffffffffffffffffff161415610e59576040517f08c379a0000000000000000000000000000000000000000000000000000000008152600401610e50906118cc565b60405180910390fd5b610e656000838361110e565b8060026000828254610e779190611967565b92505081905550806000808473ffffffffffffffffffffffffffffffffffffffff1673ffffffffffffffffffffffffffffffffffffffff168152602001908152602001600020600082825401925050819055508173ffffffffffffffffffffffffffffffffffffffff16600073ffffffffffffffffffffffffffffffffffffffff167fddf252ad1be2c89b69c2b068fc378daa952ba7f163c4a11628f55a4df523b3ef83604051610f2891906118ec565b60405180910390a3610f3c60008383611113565b5050565b600073ffffffffffffffffffffffffffffffffffffffff168273ffffffffffffffffffffffffffffffffffffffff161415610fb0576040517f08c379a0000000000000000000000000000000000000000000000000000000008152600401610fa79061184c565b60405180910390fd5b610fbc8260008361110e565b60008060008473ffffffffffffffffffffffffffffffffffffffff1673ffffffffffffffffffffffffffffffffffffffff16815260200190815260200160002054905081811015611042576040517f08c379a0000000000000000000000000000000000000000000000000000000008152600401611039906117cc565b60405180910390fd5b8181036000808573ffffffffffffffffffffffffffffffffffffffff1673ffffffffffffffffffffffffffffffffffffffff1681526020019081526020016000208190555081600260008282540392505081905550600073ffffffffffffffffffffffffffffffffffffffff168373ffffffffffffffffffffffffffffffffffffffff167fddf252ad1be2c89b69c2b068fc378daa952ba7f163c4a11628f55a4df523b3ef846040516110f591906118ec565b60405180910390a361110983600084611113565b505050565b505050565b505050565b60008135905061112781611ae6565b92915050565b60008135905061113c81611afd565b92915050565b60008151905061115181611afd565b92915050565b60008135905061116681611b14565b92915050565b60006020828403121561117e57600080fd5b600061118c84828501611118565b91505092915050565b600080604083850312156111a857600080fd5b60006111b685828601611118565b92505060206111c785828601611118565b9150509250929050565b6000806000606084860312156111e657600080fd5b60006111f486828701611118565b935050602061120586828701611118565b925050604061121686828701611157565b9150509250925092565b6000806040838503121561123357600080fd5b600061124185828601611118565b925050602061125285828601611157565b9150509250929050565b60006020828403121561126e57600080fd5b600061127c84828501611142565b91505092915050565b60006020828403121561129757600080fd5b60006112a584828501611157565b91505092915050565b600080604083850312156112c157600080fd5b60006112cf85828601611157565b92505060206112e08582860161112d565b9150509250929050565b6112f3816119bd565b82525050565b611302816119cf565b82525050565b60006113138261194b565b61131d8185611956565b935061132d818560208601611a12565b61133681611ad5565b840191505092915050565b600061134e602383611956565b91507f45524332303a207472616e7366657220746f20746865207a65726f206164647260008301527f65737300000000000000000000000000000000000000000000000000000000006020830152604082019050919050565b60006113b4602283611956565b91507f45524332303a206275726e20616d6f756e7420657863656564732062616c616e60008301527f63650000000000000000000000000000000000000000000000000000000000006020830152604082019050919050565b600061141a602283611956565b91507f45524332303a20617070726f766520746f20746865207a65726f20616464726560008301527f73730000000000000000000000000000000000000000000000000000000000006020830152604082019050919050565b6000611480601d83611956565b91507f45524332303a20696e73756666696369656e7420616c6c6f77616e63650000006000830152602082019050919050565b60006114c0602683611956565b91507f45524332303a207472616e7366657220616d6f756e742065786365656473206260008301527f616c616e636500000000000000000000000000000000000000000000000000006020830152604082019050919050565b6000611526602183611956565b91507f45524332303a206275726e2066726f6d20746865207a65726f2061646472657360008301527f73000000000000000000000000000000000000000000000000000000000000006020830152604082019050919050565b600061158c602583611956565b91507f45524332303a207472616e736665722066726f6d20746865207a65726f20616460008301527f64726573730000000000000000000000000000000000000000000000000000006020830152604082019050919050565b60006115f2602483611956565b91507f45524332303a20617070726f76652066726f6d20746865207a65726f2061646460008301527f72657373000000000000000000000000000000000000000000000000000000006020830152604082019050919050565b6000611658602583611956565b91507f45524332303a2064656372656173656420616c6c6f77616e63652062656c6f7760008301527f207a65726f0000000000000000000000000000000000000000000000000000006020830152604082019050919050565b60006116be601f83611956565b91507f45524332303a206d696e7420746f20746865207a65726f2061646472657373006000830152602082019050919050565b6116fa816119fb565b82525050565b61170981611a05565b82525050565b600060608201905061172460008301866112ea565b61173160208301856112ea565b61173e60408301846116f1565b949350505050565b600060408201905061175b60008301856112ea565b61176860208301846116f1565b9392505050565b600060208201905061178460008301846112f9565b92915050565b600060208201905081810360008301526117a48184611308565b905092915050565b600060208201905081810360008301526117c581611341565b9050919050565b600060208201905081810360008301526117e5816113a7565b9050919050565b600060208201905081810360008301526118058161140d565b9050919050565b6000602082019050818103600083015261182581611473565b9050919050565b60006020820190508181036000830152611845816114b3565b9050919050565b6000602082019050818103600083015261186581611519565b9050919050565b600060208201905081810360008301526118858161157f565b9050919050565b600060208201905081810360008301526118a5816115e5565b9050919050565b600060208201905081810360008301526118c58161164b565b9050919050565b600060208201905081810360008301526118e5816116b1565b9050919050565b600060208201905061190160008301846116f1565b92915050565b600060408201905061191c60008301856116f1565b61192960208301846116f1565b9392505050565b60006020820190506119456000830184611700565b92915050565b600081519050919050565b600082825260208201905092915050565b6000611972826119fb565b915061197d836119fb565b9250827fffffffffffffffffffffffffffffffffffffffffffffffffffffffffffffffff038211156119b2576119b1611a77565b5b828201905092915050565b60006119c8826119db565b9050919050565b60008115159050919050565b600073ffffffffffffffffffffffffffffffffffffffff82169050919050565b6000819050919050565b600060ff82169050919050565b60005b83811015611a30578082015181840152602081019050611a15565b83811115611a3f576000848401525b50505050565b60006002820490506001821680611a5d57607f821691505b60208210811415611a7157611a70611aa6565b5b50919050565b7f4e487b7100000000000000000000000000000000000000000000000000000000600052601160045260246000fd5b7f4e487b7100000000000000000000000000000000000000000000000000000000600052602260045260246000fd5b6000601f19601f8301169050919050565b611aef816119bd565b8114611afa57600080fd5b50565b611b06816119cf565b8114611b1157600080fd5b50565b611b1d816119fb565b8114611b2857600080fd5b5056fea264697066735822122070177577a9b2f3f2ca73761659d5500a8b2c50434c93563506fb7c364e12b6aa64736f6c63430008000033",
					"opcodes": "PUSH1 0x80 PUSH1 0x40 MSTORE CALLVALUE DUP1 ISZERO PUSH3 0x11 JUMPI PUSH1 0x0 DUP1 REVERT JUMPDEST POP PUSH1 0x40 MLOAD DUP1 PUSH1 0x40 ADD PUSH1 0x40 MSTORE DUP1 PUSH1 0x6 DUP2 MSTORE PUSH1 0x20 ADD PUSH32 0x476F7665726E0000000000000000000000000000000000000000000000000000 DUP2 MSTORE POP PUSH1 0x40 MLOAD DUP1 PUSH1 0x40 ADD PUSH1 0x40 MSTORE DUP1 PUSH1 0x3 DUP2 MSTORE PUSH1 0x20 ADD PUSH32 0x474F560000000000000000000000000000000000000000000000000000000000 DUP2 MSTORE POP DUP2 PUSH1 0x3 SWAP1 DUP1 MLOAD SWAP1 PUSH1 0x20 ADD SWAP1 PUSH3 0x96 SWAP3 SWAP2 SWAP1 PUSH3 0xB8 JUMP JUMPDEST POP DUP1 PUSH1 0x4 SWAP1 DUP1 MLOAD SWAP1 PUSH1 0x20 ADD SWAP1 PUSH3 0xAF SWAP3 SWAP2 SWAP1 PUSH3 0xB8 JUMP JUMPDEST POP POP POP PUSH3 0x1CD JUMP JUMPDEST DUP3 DUP1 SLOAD PUSH3 0xC6 SWAP1 PUSH3 0x168 JUMP JUMPDEST SWAP1 PUSH1 0x0 MSTORE PUSH1 0x20 PUSH1 0x0 KECCAK256 SWAP1 PUSH1 0x1F ADD PUSH1 0x20 SWAP1 DIV DUP2 ADD SWAP3 DUP3 PUSH3 0xEA JUMPI PUSH1 0x0 DUP6 SSTORE PUSH3 0x136 JUMP JUMPDEST DUP3 PUSH1 0x1F LT PUSH3 0x105 JUMPI DUP1 MLOAD PUSH1 0xFF NOT AND DUP4 DUP1 ADD OR DUP6 SSTORE PUSH3 0x136 JUMP JUMPDEST DUP3 DUP1 ADD PUSH1 0x1 ADD DUP6 SSTORE DUP3 ISZERO PUSH3 0x136 JUMPI SWAP2 DUP3 ADD JUMPDEST DUP3 DUP2 GT ISZERO PUSH3 0x135 JUMPI DUP3 MLOAD DUP3 SSTORE SWAP2 PUSH1 0x20 ADD SWAP2 SWAP1 PUSH1 0x1 ADD SWAP1 PUSH3 0x118 JUMP JUMPDEST JUMPDEST POP SWAP1 POP PUSH3 0x145 SWAP2 SWAP1 PUSH3 0x149 JUMP JUMPDEST POP SWAP1 JUMP JUMPDEST JUMPDEST DUP1 DUP3 GT ISZERO PUSH3 0x164 JUMPI PUSH1 0x0 DUP2 PUSH1 0x0 SWAP1 SSTORE POP PUSH1 0x1 ADD PUSH3 0x14A JUMP JUMPDEST POP SWAP1 JUMP JUMPDEST PUSH1 0x0 PUSH1 0x2 DUP3 DIV SWAP1 POP PUSH1 0x1 DUP3 AND DUP1 PUSH3 0x181 JUMPI PUSH1 0x7F DUP3 AND SWAP2 POP JUMPDEST PUSH1 0x20 DUP3 LT DUP2 EQ ISZERO PUSH3 0x198 JUMPI PUSH3 0x197 PUSH3 0x19E JUMP JUMPDEST JUMPDEST POP SWAP2 SWAP1 POP JUMP JUMPDEST PUSH32 0x4E487B7100000000000000000000000000000000000000000000000000000000 PUSH1 0x0 MSTORE PUSH1 0x22 PUSH1 0x4 MSTORE PUSH1 0x24 PUSH1 0x0 REVERT JUMPDEST PUSH2 0x1B61 DUP1 PUSH3 0x1DD PUSH1 0x0 CODECOPY PUSH1 0x0 RETURN INVALID PUSH1 0x80 PUSH1 0x40 MSTORE CALLVALUE DUP1 ISZERO PUSH2 0x10 JUMPI PUSH1 0x0 DUP1 REVERT JUMPDEST POP PUSH1 0x4 CALLDATASIZE LT PUSH2 0xF5 JUMPI PUSH1 0x0 CALLDATALOAD PUSH1 0xE0 SHR DUP1 PUSH4 0x70A08231 GT PUSH2 0x97 JUMPI DUP1 PUSH4 0xC9D27AFE GT PUSH2 0x66 JUMPI DUP1 PUSH4 0xC9D27AFE EQ PUSH2 0x2C3 JUMPI DUP1 PUSH4 0xD96A094A EQ PUSH2 0x2DF JUMPI DUP1 PUSH4 0xDD62ED3E EQ PUSH2 0x2FB JUMPI DUP1 PUSH4 0xE4849B32 EQ PUSH2 0x32B JUMPI PUSH2 0xF5 JUMP JUMPDEST DUP1 PUSH4 0x70A08231 EQ PUSH2 0x215 JUMPI DUP1 PUSH4 0x95D89B41 EQ PUSH2 0x245 JUMPI DUP1 PUSH4 0xA457C2D7 EQ PUSH2 0x263 JUMPI DUP1 PUSH4 0xA9059CBB EQ PUSH2 0x293 JUMPI PUSH2 0xF5 JUMP JUMPDEST DUP1 PUSH4 0x18160DDD GT PUSH2 0xD3 JUMPI DUP1 PUSH4 0x18160DDD EQ PUSH2 0x179 JUMPI DUP1 PUSH4 0x23B872DD EQ PUSH2 0x197 JUMPI DUP1 PUSH4 0x313CE567 EQ PUSH2 0x1C7 JUMPI DUP1 PUSH4 0x39509351 EQ PUSH2 0x1E5 JUMPI PUSH2 0xF5 JUMP JUMPDEST DUP1 PUSH4 0x13CF08B EQ PUSH2 0xFA JUMPI DUP1 PUSH4 0x6FDDE03 EQ PUSH2 0x12B JUMPI DUP1 PUSH4 0x95EA7B3 EQ PUSH2 0x149 JUMPI JUMPDEST PUSH1 0x0 DUP1 REVERT JUMPDEST PUSH2 0x114 PUSH1 0x4 DUP1 CALLDATASIZE SUB DUP2 ADD SWAP1 PUSH2 0x10F SWAP2 SWAP1 PUSH2 0x1285 JUMP JUMPDEST PUSH2 0x347 JUMP JUMPDEST PUSH1 0x40 MLOAD PUSH2 0x122 SWAP3 SWAP2 SWAP1 PUSH2 0x1907 JUMP JUMPDEST PUSH1 0x40 MLOAD DUP1 SWAP2 SUB SWAP1 RETURN JUMPDEST PUSH2 0x133 PUSH2 0x36B JUMP JUMPDEST PUSH1 0x40 MLOAD PUSH2 0x140 SWAP2 SWAP1 PUSH2 0x178A JUMP JUMPDEST PUSH1 0x40 MLOAD DUP1 SWAP2 SUB SWAP1 RETURN JUMPDEST PUSH2 0x163 PUSH1 0x4 DUP1 CALLDATASIZE SUB DUP2 ADD SWAP1 PUSH2 0x15E SWAP2 SWAP1 PUSH2 0x1220 JUMP JUMPDEST PUSH2 0x3FD JUMP JUMPDEST PUSH1 0x40 MLOAD PUSH2 0x170 SWAP2 SWAP1 PUSH2 0x176F JUMP JUMPDEST PUSH1 0x40 MLOAD DUP1 SWAP2 SUB SWAP1 RETURN JUMPDEST PUSH2 0x181 PUSH2 0x420 JUMP JUMPDEST PUSH1 0x40 MLOAD PUSH2 0x18E SWAP2 SWAP1 PUSH2 0x18EC JUMP JUMPDEST PUSH1 0x40 MLOAD DUP1 SWAP2 SUB SWAP1 RETURN JUMPDEST PUSH2 0x1B1 PUSH1 0x4 DUP1 CALLDATASIZE SUB DUP2 ADD SWAP1 PUSH2 0x1AC SWAP2 SWAP1 PUSH2 0x11D1 JUMP JUMPDEST PUSH2 0x42A JUMP JUMPDEST PUSH1 0x40 MLOAD PUSH2 0x1BE SWAP2 SWAP1 PUSH2 0x176F JUMP JUMPDEST PUSH1 0x40 MLOAD DUP1 SWAP2 SUB SWAP1 RETURN JUMPDEST PUSH2 0x1CF PUSH2 0x459 JUMP JUMPDEST PUSH1 0x40 MLOAD PUSH2 0x1DC SWAP2 SWAP1 PUSH2 0x1930 JUMP JUMPDEST PUSH1 0x40 MLOAD DUP1 SWAP2 SUB SWAP1 RETURN JUMPDEST PUSH2 0x1FF PUSH1 0x4 DUP1 CALLDATASIZE SUB DUP2 ADD SWAP1 PUSH2 0x1FA SWAP2 SWAP1 PUSH2 0x1220 JUMP JUMPDEST PUSH2 0x462 JUMP JUMPDEST PUSH1 0x40 MLOAD PUSH2 0x20C SWAP2 SWAP1 PUSH2 0x176F JUMP JUMPDEST PUSH1 0x40 MLOAD DUP1 SWAP2 SUB SWAP1 RETURN JUMPDEST PUSH2 0x22F PUSH1 0x4 DUP1 CALLDATASIZE SUB DUP2 ADD SWAP1 PUSH2 0x22A SWAP2 SWAP1 PUSH2 0x116C JUMP JUMPDEST PUSH2 0x499 JUMP JUMPDEST PUSH1 0x40 MLOAD PUSH2 0x23C SWAP2 SWAP1 PUSH2 0x18EC JUMP JUMPDEST PUSH1 0x40 MLOAD DUP1 SWAP2 SUB SWAP1 RETURN JUMPDEST PUSH2 0x24D PUSH2 0x4E1 JUMP JUMPDEST PUSH1 0x40 MLOAD PUSH2 0x25A SWAP2 SWAP1 PUSH2 0x178A JUMP JUMPDEST PUSH1 0x40 MLOAD DUP1 SWAP2 SUB SWAP1 RETURN JUMPDEST PUSH2 0x27D PUSH1 0x4 DUP1 CALLDATASIZE SUB DUP2 ADD SWAP1 PUSH2 0x278 SWAP2 SWAP1 PUSH2 0x1220 JUMP JUMPDEST PUSH2 0x573 JUMP JUMPDEST PUSH1 0x40 MLOAD PUSH2 0x28A SWAP2 SWAP1 PUSH2 0x176F JUMP JUMPDEST PUSH1 0x40 MLOAD DUP1 SWAP2 SUB SWAP1 RETURN JUMPDEST PUSH2 0x2AD PUSH1 0x4 DUP1 CALLDATASIZE SUB DUP2 ADD SWAP1 PUSH2 0x2A8 SWAP2 SWAP1 PUSH2 0x1220 JUMP JUMPDEST PUSH2 0x5EA JUMP JUMPDEST PUSH1 0x40 MLOAD PUSH2 0x2BA SWAP2 SWAP1 PUSH2 0x176F JUMP JUMPDEST PUSH1 0x40 MLOAD DUP1 SWAP2 SUB SWAP1 RETURN JUMPDEST PUSH2 0x2DD PUSH1 0x4 DUP1 CALLDATASIZE SUB DUP2 ADD SWAP1 PUSH2 0x2D8 SWAP2 SWAP1 PUSH2 0x12AE JUMP JUMPDEST PUSH2 0x60D JUMP JUMPDEST STOP JUMPDEST PUSH2 0x2F9 PUSH1 0x4 DUP1 CALLDATASIZE SUB DUP2 ADD SWAP1 PUSH2 0x2F4 SWAP2 SWAP1 PUSH2 0x1285 JUMP JUMPDEST PUSH2 0x72B JUMP JUMPDEST STOP JUMPDEST PUSH2 0x315 PUSH1 0x4 DUP1 CALLDATASIZE SUB DUP2 ADD SWAP1 PUSH2 0x310 SWAP2 SWAP1 PUSH2 0x1195 JUMP JUMPDEST PUSH2 0x7DC JUMP JUMPDEST PUSH1 0x40 MLOAD PUSH2 0x322 SWAP2 SWAP1 PUSH2 0x18EC JUMP JUMPDEST PUSH1 0x40 MLOAD DUP1 SWAP2 SUB SWAP1 RETURN JUMPDEST PUSH2 0x345 PUSH1 0x4 DUP1 CALLDATASIZE SUB DUP2 ADD SWAP1 PUSH2 0x340 SWAP2 SWAP1 PUSH2 0x1285 JUMP JUMPDEST PUSH2 0x863 JUMP JUMPDEST STOP JUMPDEST PUSH1 0x7 PUSH1 0x20 MSTORE DUP1 PUSH1 0x0 MSTORE PUSH1 0x40 PUSH1 0x0 KECCAK256 PUSH1 0x0 SWAP2 POP SWAP1 POP DUP1 PUSH1 0x0 ADD SLOAD SWAP1 DUP1 PUSH1 0x1 ADD SLOAD SWAP1 POP DUP3 JUMP JUMPDEST PUSH1 0x60 PUSH1 0x3 DUP1 SLOAD PUSH2 0x37A SWAP1 PUSH2 0x1A45 JUMP JUMPDEST DUP1 PUSH1 0x1F ADD PUSH1 0x20 DUP1 SWAP2 DIV MUL PUSH1 0x20 ADD PUSH1 0x40 MLOAD SWAP1 DUP2 ADD PUSH1 0x40 MSTORE DUP1 SWAP3 SWAP2 SWAP1 DUP2 DUP2 MSTORE PUSH1 0x20 ADD DUP3 DUP1 SLOAD PUSH2 0x3A6 SWAP1 PUSH2 0x1A45 JUMP JUMPDEST DUP1 ISZERO PUSH2 0x3F3 JUMPI DUP1 PUSH1 0x1F LT PUSH2 0x3C8 JUMPI PUSH2 0x100 DUP1 DUP4 SLOAD DIV MUL DUP4 MSTORE SWAP2 PUSH1 0x20 ADD SWAP2 PUSH2 0x3F3 JUMP JUMPDEST DUP3 ADD SWAP2 SWAP1 PUSH1 0x0 MSTORE PUSH1 0x20 PUSH1 0x0 KECCAK256 SWAP1 JUMPDEST DUP2 SLOAD DUP2 MSTORE SWAP1 PUSH1 0x1 ADD SWAP1 PUSH1 0x20 ADD DUP1 DUP4 GT PUSH2 0x3D6 JUMPI DUP3 SWAP1 SUB PUSH1 0x1F AND DUP3 ADD SWAP2 JUMPDEST POP POP POP POP POP SWAP1 POP SWAP1 JUMP JUMPDEST PUSH1 0x0 DUP1 PUSH2 0x408 PUSH2 0x912 JUMP JUMPDEST SWAP1 POP PUSH2 0x415 DUP2 DUP6 DUP6 PUSH2 0x91A JUMP JUMPDEST PUSH1 0x1 SWAP2 POP POP SWAP3 SWAP2 POP POP JUMP JUMPDEST PUSH1 0x0 PUSH1 0x2 SLOAD SWAP1 POP SWAP1 JUMP JUMPDEST PUSH1 0x0 DUP1 PUSH2 0x435 PUSH2 0x912 JUMP JUMPDEST SWAP1 POP PUSH2 0x442 DUP6 DUP3 DUP6 PUSH2 0xAE5 JUMP JUMPDEST PUSH2 0x44D DUP6 DUP6 DUP6 PUSH2 0xB71 JUMP JUMPDEST PUSH1 0x1 SWAP2 POP POP SWAP4 SWAP3 POP POP POP JUMP JUMPDEST PUSH1 0x0 PUSH1 0x12 SWAP1 POP SWAP1 JUMP JUMPDEST PUSH1 0x0 DUP1 PUSH2 0x46D PUSH2 0x912 JUMP JUMPDEST SWAP1 POP PUSH2 0x48E DUP2 DUP6 DUP6 PUSH2 0x47F DUP6 DUP10 PUSH2 0x7DC JUMP JUMPDEST PUSH2 0x489 SWAP2 SWAP1 PUSH2 0x1967 JUMP JUMPDEST PUSH2 0x91A JUMP JUMPDEST PUSH1 0x1 SWAP2 POP POP SWAP3 SWAP2 POP POP JUMP JUMPDEST PUSH1 0x0 DUP1 PUSH1 0x0 DUP4 PUSH20 0xFFFFFFFFFFFFFFFFFFFFFFFFFFFFFFFFFFFFFFFF AND PUSH20 0xFFFFFFFFFFFFFFFFFFFFFFFFFFFFFFFFFFFFFFFF AND DUP2 MSTORE PUSH1 0x20 ADD SWAP1 DUP2 MSTORE PUSH1 0x20 ADD PUSH1 0x0 KECCAK256 SLOAD SWAP1 POP SWAP2 SWAP1 POP JUMP JUMPDEST PUSH1 0x60 PUSH1 0x4 DUP1 SLOAD PUSH2 0x4F0 SWAP1 PUSH2 0x1A45 JUMP JUMPDEST DUP1 PUSH1 0x1F ADD PUSH1 0x20 DUP1 SWAP2 DIV MUL PUSH1 0x20 ADD PUSH1 0x40 MLOAD SWAP1 DUP2 ADD PUSH1 0x40 MSTORE DUP1 SWAP3 SWAP2 SWAP1 DUP2 DUP2 MSTORE PUSH1 0x20 ADD DUP3 DUP1 SLOAD PUSH2 0x51C SWAP1 PUSH2 0x1A45 JUMP JUMPDEST DUP1 ISZERO PUSH2 0x569 JUMPI DUP1 PUSH1 0x1F LT PUSH2 0x53E JUMPI PUSH2 0x100 DUP1 DUP4 SLOAD DIV MUL DUP4 MSTORE SWAP2 PUSH1 0x20 ADD SWAP2 PUSH2 0x569 JUMP JUMPDEST DUP3 ADD SWAP2 SWAP1 PUSH1 0x0 MSTORE PUSH1 0x20 PUSH1 0x0 KECCAK256 SWAP1 JUMPDEST DUP2 SLOAD DUP2 MSTORE SWAP1 PUSH1 0x1 ADD SWAP1 PUSH1 0x20 ADD DUP1 DUP4 GT PUSH2 0x54C JUMPI DUP3 SWAP1 SUB PUSH1 0x1F AND DUP3 ADD SWAP2 JUMPDEST POP POP POP POP POP SWAP1 POP SWAP1 JUMP JUMPDEST PUSH1 0x0 DUP1 PUSH2 0x57E PUSH2 0x912 JUMP JUMPDEST SWAP1 POP PUSH1 0x0 PUSH2 0x58C DUP3 DUP7 PUSH2 0x7DC JUMP JUMPDEST SWAP1 POP DUP4 DUP2 LT ISZERO PUSH2 0x5D1 JUMPI PUSH1 0x40 MLOAD PUSH32 0x8C379A000000000000000000000000000000000000000000000000000000000 DUP2 MSTORE PUSH1 0x4 ADD PUSH2 0x5C8 SWAP1 PUSH2 0x18AC JUMP JUMPDEST PUSH1 0x40 MLOAD DUP1 SWAP2 SUB SWAP1 REVERT JUMPDEST PUSH2 0x5DE DUP3 DUP7 DUP7 DUP5 SUB PUSH2 0x91A JUMP JUMPDEST PUSH1 0x1 SWAP3 POP POP POP SWAP3 SWAP2 POP POP JUMP JUMPDEST PUSH1 0x0 DUP1 PUSH2 0x5F5 PUSH2 0x912 JUMP JUMPDEST SWAP1 POP PUSH2 0x602 DUP2 DUP6 DUP6 PUSH2 0xB71 JUMP JUMPDEST PUSH1 0x1 SWAP2 POP POP SWAP3 SWAP2 POP POP JUMP JUMPDEST PUSH1 0x5 PUSH1 0x0 CALLER PUSH20 0xFFFFFFFFFFFFFFFFFFFFFFFFFFFFFFFFFFFFFFFF AND PUSH20 0xFFFFFFFFFFFFFFFFFFFFFFFFFFFFFFFFFFFFFFFF AND DUP2 MSTORE PUSH1 0x20 ADD SWAP1 DUP2 MSTORE PUSH1 0x20 ADD PUSH1 0x0 KECCAK256 PUSH1 0x0 SWAP1 SLOAD SWAP1 PUSH2 0x100 EXP SWAP1 DIV PUSH1 0xFF AND ISZERO PUSH2 0x664 JUMPI PUSH1 0x0 DUP1 REVERT JUMPDEST PUSH1 0x0 PUSH1 0x7 PUSH1 0x0 DUP5 DUP2 MSTORE PUSH1 0x20 ADD SWAP1 DUP2 MSTORE PUSH1 0x20 ADD PUSH1 0x0 KECCAK256 SWAP1 POP DUP2 ISZERO PUSH2 0x6A9 JUMPI PUSH2 0x68A CALLER PUSH2 0x499 JUMP JUMPDEST DUP2 PUSH1 0x0 ADD PUSH1 0x0 DUP3 DUP3 SLOAD PUSH2 0x69D SWAP2 SWAP1 PUSH2 0x1967 JUMP JUMPDEST SWAP3 POP POP DUP2 SWAP1 SSTORE POP PUSH2 0x6CD JUMP JUMPDEST PUSH2 0x6B2 CALLER PUSH2 0x499 JUMP JUMPDEST DUP2 PUSH1 0x1 ADD PUSH1 0x0 DUP3 DUP3 SLOAD PUSH2 0x6C5 SWAP2 SWAP1 PUSH2 0x1967 JUMP JUMPDEST SWAP3 POP POP DUP2 SWAP1 SSTORE POP JUMPDEST DUP2 DUP2 PUSH1 0x2 ADD PUSH1 0x0 CALLER PUSH20 0xFFFFFFFFFFFFFFFFFFFFFFFFFFFFFFFFFFFFFFFF AND PUSH20 0xFFFFFFFFFFFFFFFFFFFFFFFFFFFFFFFFFFFFFFFF AND DUP2 MSTORE PUSH1 0x20 ADD SWAP1 DUP2 MSTORE PUSH1 0x20 ADD PUSH1 0x0 KECCAK256 PUSH1 0x0 PUSH2 0x100 EXP DUP2 SLOAD DUP2 PUSH1 0xFF MUL NOT AND SWAP1 DUP4 ISZERO ISZERO MUL OR SWAP1 SSTORE POP POP POP POP JUMP JUMPDEST PUSH20 0x6B175474E89094C44DA98B954EEDEAC495271D0F PUSH20 0xFFFFFFFFFFFFFFFFFFFFFFFFFFFFFFFFFFFFFFFF AND PUSH4 0x23B872DD CALLER ADDRESS DUP5 PUSH1 0x40 MLOAD DUP5 PUSH4 0xFFFFFFFF AND PUSH1 0xE0 SHL DUP2 MSTORE PUSH1 0x4 ADD PUSH2 0x77C SWAP4 SWAP3 SWAP2 SWAP1 PUSH2 0x170F JUMP JUMPDEST PUSH1 0x20 PUSH1 0x40 MLOAD DUP1 DUP4 SUB DUP2 PUSH1 0x0 DUP8 DUP1 EXTCODESIZE ISZERO DUP1 ISZERO PUSH2 0x796 JUMPI PUSH1 0x0 DUP1 REVERT JUMPDEST POP GAS CALL ISZERO DUP1 ISZERO PUSH2 0x7AA JUMPI RETURNDATASIZE PUSH1 0x0 DUP1 RETURNDATACOPY RETURNDATASIZE PUSH1 0x0 REVERT JUMPDEST POP POP POP POP PUSH1 0x40 MLOAD RETURNDATASIZE PUSH1 0x1F NOT PUSH1 0x1F DUP3 ADD AND DUP3 ADD DUP1 PUSH1 0x40 MSTORE POP DUP2 ADD SWAP1 PUSH2 0x7CE SWAP2 SWAP1 PUSH2 0x125C JUMP JUMPDEST POP PUSH2 0x7D9 CALLER DUP3 PUSH2 0xDE9 JUMP JUMPDEST POP JUMP JUMPDEST PUSH1 0x0 PUSH1 0x1 PUSH1 0x0 DUP5 PUSH20 0xFFFFFFFFFFFFFFFFFFFFFFFFFFFFFFFFFFFFFFFF AND PUSH20 0xFFFFFFFFFFFFFFFFFFFFFFFFFFFFFFFFFFFFFFFF AND DUP2 MSTORE PUSH1 0x20 ADD SWAP1 DUP2 MSTORE PUSH1 0x20 ADD PUSH1 0x0 KECCAK256 PUSH1 0x0 DUP4 PUSH20 0xFFFFFFFFFFFFFFFFFFFFFFFFFFFFFFFFFFFFFFFF AND PUSH20 0xFFFFFFFFFFFFFFFFFFFFFFFFFFFFFFFFFFFFFFFF AND DUP2 MSTORE PUSH1 0x20 ADD SWAP1 DUP2 MSTORE PUSH1 0x20 ADD PUSH1 0x0 KECCAK256 SLOAD SWAP1 POP SWAP3 SWAP2 POP POP JUMP JUMPDEST PUSH2 0x86D CALLER DUP3 PUSH2 0xF40 JUMP JUMPDEST PUSH20 0x6B175474E89094C44DA98B954EEDEAC495271D0F PUSH20 0xFFFFFFFFFFFFFFFFFFFFFFFFFFFFFFFFFFFFFFFF AND PUSH4 0xA9059CBB CALLER DUP4 PUSH1 0x40 MLOAD DUP4 PUSH4 0xFFFFFFFF AND PUSH1 0xE0 SHL DUP2 MSTORE PUSH1 0x4 ADD PUSH2 0x8BC SWAP3 SWAP2 SWAP1 PUSH2 0x1746 JUMP JUMPDEST PUSH1 0x20 PUSH1 0x40 MLOAD DUP1 DUP4 SUB DUP2 PUSH1 0x0 DUP8 DUP1 EXTCODESIZE ISZERO DUP1 ISZERO PUSH2 0x8D6 JUMPI PUSH1 0x0 DUP1 REVERT JUMPDEST POP GAS CALL ISZERO DUP1 ISZERO PUSH2 0x8EA JUMPI RETURNDATASIZE PUSH1 0x0 DUP1 RETURNDATACOPY RETURNDATASIZE PUSH1 0x0 REVERT JUMPDEST POP POP POP POP PUSH1 0x40 MLOAD RETURNDATASIZE PUSH1 0x1F NOT PUSH1 0x1F DUP3 ADD AND DUP3 ADD DUP1 PUSH1 0x40 MSTORE POP DUP2 ADD SWAP1 PUSH2 0x90E SWAP2 SWAP1 PUSH2 0x125C JUMP JUMPDEST POP POP JUMP JUMPDEST PUSH1 0x0 CALLER SWAP1 POP SWAP1 JUMP JUMPDEST PUSH1 0x0 PUSH20 0xFFFFFFFFFFFFFFFFFFFFFFFFFFFFFFFFFFFFFFFF AND DUP4 PUSH20 0xFFFFFFFFFFFFFFFFFFFFFFFFFFFFFFFFFFFFFFFF AND EQ ISZERO PUSH2 0x98A JUMPI PUSH1 0x40 MLOAD PUSH32 0x8C379A000000000000000000000000000000000000000000000000000000000 DUP2 MSTORE PUSH1 0x4 ADD PUSH2 0x981 SWAP1 PUSH2 0x188C JUMP JUMPDEST PUSH1 0x40 MLOAD DUP1 SWAP2 SUB SWAP1 REVERT JUMPDEST PUSH1 0x0 PUSH20 0xFFFFFFFFFFFFFFFFFFFFFFFFFFFFFFFFFFFFFFFF AND DUP3 PUSH20 0xFFFFFFFFFFFFFFFFFFFFFFFFFFFFFFFFFFFFFFFF AND EQ ISZERO PUSH2 0x9FA JUMPI PUSH1 0x40 MLOAD PUSH32 0x8C379A000000000000000000000000000000000000000000000000000000000 DUP2 MSTORE PUSH1 0x4 ADD PUSH2 0x9F1 SWAP1 PUSH2 0x17EC JUMP JUMPDEST PUSH1 0x40 MLOAD DUP1 SWAP2 SUB SWAP1 REVERT JUMPDEST DUP1 PUSH1 0x1 PUSH1 0x0 DUP6 PUSH20 0xFFFFFFFFFFFFFFFFFFFFFFFFFFFFFFFFFFFFFFFF AND PUSH20 0xFFFFFFFFFFFFFFFFFFFFFFFFFFFFFFFFFFFFFFFF AND DUP2 MSTORE PUSH1 0x20 ADD SWAP1 DUP2 MSTORE PUSH1 0x20 ADD PUSH1 0x0 KECCAK256 PUSH1 0x0 DUP5 PUSH20 0xFFFFFFFFFFFFFFFFFFFFFFFFFFFFFFFFFFFFFFFF AND PUSH20 0xFFFFFFFFFFFFFFFFFFFFFFFFFFFFFFFFFFFFFFFF AND DUP2 MSTORE PUSH1 0x20 ADD SWAP1 DUP2 MSTORE PUSH1 0x20 ADD PUSH1 0x0 KECCAK256 DUP2 SWAP1 SSTORE POP DUP2 PUSH20 0xFFFFFFFFFFFFFFFFFFFFFFFFFFFFFFFFFFFFFFFF AND DUP4 PUSH20 0xFFFFFFFFFFFFFFFFFFFFFFFFFFFFFFFFFFFFFFFF AND PUSH32 0x8C5BE1E5EBEC7D5BD14F71427D1E84F3DD0314C0F7B2291E5B200AC8C7C3B925 DUP4 PUSH1 0x40 MLOAD PUSH2 0xAD8 SWAP2 SWAP1 PUSH2 0x18EC JUMP JUMPDEST PUSH1 0x40 MLOAD DUP1 SWAP2 SUB SWAP1 LOG3 POP POP POP JUMP JUMPDEST PUSH1 0x0 PUSH2 0xAF1 DUP5 DUP5 PUSH2 0x7DC JUMP JUMPDEST SWAP1 POP PUSH32 0xFFFFFFFFFFFFFFFFFFFFFFFFFFFFFFFFFFFFFFFFFFFFFFFFFFFFFFFFFFFFFFFF DUP2 EQ PUSH2 0xB6B JUMPI DUP2 DUP2 LT ISZERO PUSH2 0xB5D JUMPI PUSH1 0x40 MLOAD PUSH32 0x8C379A000000000000000000000000000000000000000000000000000000000 DUP2 MSTORE PUSH1 0x4 ADD PUSH2 0xB54 SWAP1 PUSH2 0x180C JUMP JUMPDEST PUSH1 0x40 MLOAD DUP1 SWAP2 SUB SWAP1 REVERT JUMPDEST PUSH2 0xB6A DUP5 DUP5 DUP5 DUP5 SUB PUSH2 0x91A JUMP JUMPDEST JUMPDEST POP POP POP POP JUMP JUMPDEST PUSH1 0x0 PUSH20 0xFFFFFFFFFFFFFFFFFFFFFFFFFFFFFFFFFFFFFFFF AND DUP4 PUSH20 0xFFFFFFFFFFFFFFFFFFFFFFFFFFFFFFFFFFFFFFFF AND EQ ISZERO PUSH2 0xBE1 JUMPI PUSH1 0x40 MLOAD PUSH32 0x8C379A000000000000000000000000000000000000000000000000000000000 DUP2 MSTORE PUSH1 0x4 ADD PUSH2 0xBD8 SWAP1 PUSH2 0x186C JUMP JUMPDEST PUSH1 0x40 MLOAD DUP1 SWAP2 SUB SWAP1 REVERT JUMPDEST PUSH1 0x0 PUSH20 0xFFFFFFFFFFFFFFFFFFFFFFFFFFFFFFFFFFFFFFFF AND DUP3 PUSH20 0xFFFFFFFFFFFFFFFFFFFFFFFFFFFFFFFFFFFFFFFF AND EQ ISZERO PUSH2 0xC51 JUMPI PUSH1 0x40 MLOAD PUSH32 0x8C379A000000000000000000000000000000000000000000000000000000000 DUP2 MSTORE PUSH1 0x4 ADD PUSH2 0xC48 SWAP1 PUSH2 0x17AC JUMP JUMPDEST PUSH1 0x40 MLOAD DUP1 SWAP2 SUB SWAP1 REVERT JUMPDEST PUSH2 0xC5C DUP4 DUP4 DUP4 PUSH2 0x110E JUMP JUMPDEST PUSH1 0x0 DUP1 PUSH1 0x0 DUP6 PUSH20 0xFFFFFFFFFFFFFFFFFFFFFFFFFFFFFFFFFFFFFFFF AND PUSH20 0xFFFFFFFFFFFFFFFFFFFFFFFFFFFFFFFFFFFFFFFF AND DUP2 MSTORE PUSH1 0x20 ADD SWAP1 DUP2 MSTORE PUSH1 0x20 ADD PUSH1 0x0 KECCAK256 SLOAD SWAP1 POP DUP2 DUP2 LT ISZERO PUSH2 0xCE2 JUMPI PUSH1 0x40 MLOAD PUSH32 0x8C379A000000000000000000000000000000000000000000000000000000000 DUP2 MSTORE PUSH1 0x4 ADD PUSH2 0xCD9 SWAP1 PUSH2 0x182C JUMP JUMPDEST PUSH1 0x40 MLOAD DUP1 SWAP2 SUB SWAP1 REVERT JUMPDEST DUP2 DUP2 SUB PUSH1 0x0 DUP1 DUP7 PUSH20 0xFFFFFFFFFFFFFFFFFFFFFFFFFFFFFFFFFFFFFFFF AND PUSH20 0xFFFFFFFFFFFFFFFFFFFFFFFFFFFFFFFFFFFFFFFF AND DUP2 MSTORE PUSH1 0x20 ADD SWAP1 DUP2 MSTORE PUSH1 0x20 ADD PUSH1 0x0 KECCAK256 DUP2 SWAP1 SSTORE POP DUP2 PUSH1 0x0 DUP1 DUP6 PUSH20 0xFFFFFFFFFFFFFFFFFFFFFFFFFFFFFFFFFFFFFFFF AND PUSH20 0xFFFFFFFFFFFFFFFFFFFFFFFFFFFFFFFFFFFFFFFF AND DUP2 MSTORE PUSH1 0x20 ADD SWAP1 DUP2 MSTORE PUSH1 0x20 ADD PUSH1 0x0 KECCAK256 PUSH1 0x0 DUP3 DUP3 SLOAD ADD SWAP3 POP POP DUP2 SWAP1 SSTORE POP DUP3 PUSH20 0xFFFFFFFFFFFFFFFFFFFFFFFFFFFFFFFFFFFFFFFF AND DUP5 PUSH20 0xFFFFFFFFFFFFFFFFFFFFFFFFFFFFFFFFFFFFFFFF AND PUSH32 0xDDF252AD1BE2C89B69C2B068FC378DAA952BA7F163C4A11628F55A4DF523B3EF DUP5 PUSH1 0x40 MLOAD PUSH2 0xDD0 SWAP2 SWAP1 PUSH2 0x18EC JUMP JUMPDEST PUSH1 0x40 MLOAD DUP1 SWAP2 SUB SWAP1 LOG3 PUSH2 0xDE3 DUP5 DUP5 DUP5 PUSH2 0x1113 JUMP JUMPDEST POP POP POP POP JUMP JUMPDEST PUSH1 0x0 PUSH20 0xFFFFFFFFFFFFFFFFFFFFFFFFFFFFFFFFFFFFFFFF AND DUP3 PUSH20 0xFFFFFFFFFFFFFFFFFFFFFFFFFFFFFFFFFFFFFFFF AND EQ ISZERO PUSH2 0xE59 JUMPI PUSH1 0x40 MLOAD PUSH32 0x8C379A000000000000000000000000000000000000000000000000000000000 DUP2 MSTORE PUSH1 0x4 ADD PUSH2 0xE50 SWAP1 PUSH2 0x18CC JUMP JUMPDEST PUSH1 0x40 MLOAD DUP1 SWAP2 SUB SWAP1 REVERT JUMPDEST PUSH2 0xE65 PUSH1 0x0 DUP4 DUP4 PUSH2 0x110E JUMP JUMPDEST DUP1 PUSH1 0x2 PUSH1 0x0 DUP3 DUP3 SLOAD PUSH2 0xE77 SWAP2 SWAP1 PUSH2 0x1967 JUMP JUMPDEST SWAP3 POP POP DUP2 SWAP1 SSTORE POP DUP1 PUSH1 0x0 DUP1 DUP5 PUSH20 0xFFFFFFFFFFFFFFFFFFFFFFFFFFFFFFFFFFFFFFFF AND PUSH20 0xFFFFFFFFFFFFFFFFFFFFFFFFFFFFFFFFFFFFFFFF AND DUP2 MSTORE PUSH1 0x20 ADD SWAP1 DUP2 MSTORE PUSH1 0x20 ADD PUSH1 0x0 KECCAK256 PUSH1 0x0 DUP3 DUP3 SLOAD ADD SWAP3 POP POP DUP2 SWAP1 SSTORE POP DUP2 PUSH20 0xFFFFFFFFFFFFFFFFFFFFFFFFFFFFFFFFFFFFFFFF AND PUSH1 0x0 PUSH20 0xFFFFFFFFFFFFFFFFFFFFFFFFFFFFFFFFFFFFFFFF AND PUSH32 0xDDF252AD1BE2C89B69C2B068FC378DAA952BA7F163C4A11628F55A4DF523B3EF DUP4 PUSH1 0x40 MLOAD PUSH2 0xF28 SWAP2 SWAP1 PUSH2 0x18EC JUMP JUMPDEST PUSH1 0x40 MLOAD DUP1 SWAP2 SUB SWAP1 LOG3 PUSH2 0xF3C PUSH1 0x0 DUP4 DUP4 PUSH2 0x1113 JUMP JUMPDEST POP POP JUMP JUMPDEST PUSH1 0x0 PUSH20 0xFFFFFFFFFFFFFFFFFFFFFFFFFFFFFFFFFFFFFFFF AND DUP3 PUSH20 0xFFFFFFFFFFFFFFFFFFFFFFFFFFFFFFFFFFFFFFFF AND EQ ISZERO PUSH2 0xFB0 JUMPI PUSH1 0x40 MLOAD PUSH32 0x8C379A000000000000000000000000000000000000000000000000000000000 DUP2 MSTORE PUSH1 0x4 ADD PUSH2 0xFA7 SWAP1 PUSH2 0x184C JUMP JUMPDEST PUSH1 0x40 MLOAD DUP1 SWAP2 SUB SWAP1 REVERT JUMPDEST PUSH2 0xFBC DUP3 PUSH1 0x0 DUP4 PUSH2 0x110E JUMP JUMPDEST PUSH1 0x0 DUP1 PUSH1 0x0 DUP5 PUSH20 0xFFFFFFFFFFFFFFFFFFFFFFFFFFFFFFFFFFFFFFFF AND PUSH20 0xFFFFFFFFFFFFFFFFFFFFFFFFFFFFFFFFFFFFFFFF AND DUP2 MSTORE PUSH1 0x20 ADD SWAP1 DUP2 MSTORE PUSH1 0x20 ADD PUSH1 0x0 KECCAK256 SLOAD SWAP1 POP DUP2 DUP2 LT ISZERO PUSH2 0x1042 JUMPI PUSH1 0x40 MLOAD PUSH32 0x8C379A000000000000000000000000000000000000000000000000000000000 DUP2 MSTORE PUSH1 0x4 ADD PUSH2 0x1039 SWAP1 PUSH2 0x17CC JUMP JUMPDEST PUSH1 0x40 MLOAD DUP1 SWAP2 SUB SWAP1 REVERT JUMPDEST DUP2 DUP2 SUB PUSH1 0x0 DUP1 DUP6 PUSH20 0xFFFFFFFFFFFFFFFFFFFFFFFFFFFFFFFFFFFFFFFF AND PUSH20 0xFFFFFFFFFFFFFFFFFFFFFFFFFFFFFFFFFFFFFFFF AND DUP2 MSTORE PUSH1 0x20 ADD SWAP1 DUP2 MSTORE PUSH1 0x20 ADD PUSH1 0x0 KECCAK256 DUP2 SWAP1 SSTORE POP DUP2 PUSH1 0x2 PUSH1 0x0 DUP3 DUP3 SLOAD SUB SWAP3 POP POP DUP2 SWAP1 SSTORE POP PUSH1 0x0 PUSH20 0xFFFFFFFFFFFFFFFFFFFFFFFFFFFFFFFFFFFFFFFF AND DUP4 PUSH20 0xFFFFFFFFFFFFFFFFFFFFFFFFFFFFFFFFFFFFFFFF AND PUSH32 0xDDF252AD1BE2C89B69C2B068FC378DAA952BA7F163C4A11628F55A4DF523B3EF DUP5 PUSH1 0x40 MLOAD PUSH2 0x10F5 SWAP2 SWAP1 PUSH2 0x18EC JUMP JUMPDEST PUSH1 0x40 MLOAD DUP1 SWAP2 SUB SWAP1 LOG3 PUSH2 0x1109 DUP4 PUSH1 0x0 DUP5 PUSH2 0x1113 JUMP JUMPDEST POP POP POP JUMP JUMPDEST POP POP POP JUMP JUMPDEST POP POP POP JUMP JUMPDEST PUSH1 0x0 DUP2 CALLDATALOAD SWAP1 POP PUSH2 0x1127 DUP2 PUSH2 0x1AE6 JUMP JUMPDEST SWAP3 SWAP2 POP POP JUMP JUMPDEST PUSH1 0x0 DUP2 CALLDATALOAD SWAP1 POP PUSH2 0x113C DUP2 PUSH2 0x1AFD JUMP JUMPDEST SWAP3 SWAP2 POP POP JUMP JUMPDEST PUSH1 0x0 DUP2 MLOAD SWAP1 POP PUSH2 0x1151 DUP2 PUSH2 0x1AFD JUMP JUMPDEST SWAP3 SWAP2 POP POP JUMP JUMPDEST PUSH1 0x0 DUP2 CALLDATALOAD SWAP1 POP PUSH2 0x1166 DUP2 PUSH2 0x1B14 JUMP JUMPDEST SWAP3 SWAP2 POP POP JUMP JUMPDEST PUSH1 0x0 PUSH1 0x20 DUP3 DUP5 SUB SLT ISZERO PUSH2 0x117E JUMPI PUSH1 0x0 DUP1 REVERT JUMPDEST PUSH1 0x0 PUSH2 0x118C DUP5 DUP3 DUP6 ADD PUSH2 0x1118 JUMP JUMPDEST SWAP2 POP POP SWAP3 SWAP2 POP POP JUMP JUMPDEST PUSH1 0x0 DUP1 PUSH1 0x40 DUP4 DUP6 SUB SLT ISZERO PUSH2 0x11A8 JUMPI PUSH1 0x0 DUP1 REVERT JUMPDEST PUSH1 0x0 PUSH2 0x11B6 DUP6 DUP3 DUP7 ADD PUSH2 0x1118 JUMP JUMPDEST SWAP3 POP POP PUSH1 0x20 PUSH2 0x11C7 DUP6 DUP3 DUP7 ADD PUSH2 0x1118 JUMP JUMPDEST SWAP2 POP POP SWAP3 POP SWAP3 SWAP1 POP JUMP JUMPDEST PUSH1 0x0 DUP1 PUSH1 0x0 PUSH1 0x60 DUP5 DUP7 SUB SLT ISZERO PUSH2 0x11E6 JUMPI PUSH1 0x0 DUP1 REVERT JUMPDEST PUSH1 0x0 PUSH2 0x11F4 DUP7 DUP3 DUP8 ADD PUSH2 0x1118 JUMP JUMPDEST SWAP4 POP POP PUSH1 0x20 PUSH2 0x1205 DUP7 DUP3 DUP8 ADD PUSH2 0x1118 JUMP JUMPDEST SWAP3 POP POP PUSH1 0x40 PUSH2 0x1216 DUP7 DUP3 DUP8 ADD PUSH2 0x1157 JUMP JUMPDEST SWAP2 POP POP SWAP3 POP SWAP3 POP SWAP3 JUMP JUMPDEST PUSH1 0x0 DUP1 PUSH1 0x40 DUP4 DUP6 SUB SLT ISZERO PUSH2 0x1233 JUMPI PUSH1 0x0 DUP1 REVERT JUMPDEST PUSH1 0x0 PUSH2 0x1241 DUP6 DUP3 DUP7 ADD PUSH2 0x1118 JUMP JUMPDEST SWAP3 POP POP PUSH1 0x20 PUSH2 0x1252 DUP6 DUP3 DUP7 ADD PUSH2 0x1157 JUMP JUMPDEST SWAP2 POP POP SWAP3 POP SWAP3 SWAP1 POP JUMP JUMPDEST PUSH1 0x0 PUSH1 0x20 DUP3 DUP5 SUB SLT ISZERO PUSH2 0x126E JUMPI PUSH1 0x0 DUP1 REVERT JUMPDEST PUSH1 0x0 PUSH2 0x127C DUP5 DUP3 DUP6 ADD PUSH2 0x1142 JUMP JUMPDEST SWAP2 POP POP SWAP3 SWAP2 POP POP JUMP JUMPDEST PUSH1 0x0 PUSH1 0x20 DUP3 DUP5 SUB SLT ISZERO PUSH2 0x1297 JUMPI PUSH1 0x0 DUP1 REVERT JUMPDEST PUSH1 0x0 PUSH2 0x12A5 DUP5 DUP3 DUP6 ADD PUSH2 0x1157 JUMP JUMPDEST SWAP2 POP POP SWAP3 SWAP2 POP POP JUMP JUMPDEST PUSH1 0x0 DUP1 PUSH1 0x40 DUP4 DUP6 SUB SLT ISZERO PUSH2 0x12C1 JUMPI PUSH1 0x0 DUP1 REVERT JUMPDEST PUSH1 0x0 PUSH2 0x12CF DUP6 DUP3 DUP7 ADD PUSH2 0x1157 JUMP JUMPDEST SWAP3 POP POP PUSH1 0x20 PUSH2 0x12E0 DUP6 DUP3 DUP7 ADD PUSH2 0x112D JUMP JUMPDEST SWAP2 POP POP SWAP3 POP SWAP3 SWAP1 POP JUMP JUMPDEST PUSH2 0x12F3 DUP2 PUSH2 0x19BD JUMP JUMPDEST DUP3 MSTORE POP POP JUMP JUMPDEST PUSH2 0x1302 DUP2 PUSH2 0x19CF JUMP JUMPDEST DUP3 MSTORE POP POP JUMP JUMPDEST PUSH1 0x0 PUSH2 0x1313 DUP3 PUSH2 0x194B JUMP JUMPDEST PUSH2 0x131D DUP2 DUP6 PUSH2 0x1956 JUMP JUMPDEST SWAP4 POP PUSH2 0x132D DUP2 DUP6 PUSH1 0x20 DUP7 ADD PUSH2 0x1A12 JUMP JUMPDEST PUSH2 0x1336 DUP2 PUSH2 0x1AD5 JUMP JUMPDEST DUP5 ADD SWAP2 POP POP SWAP3 SWAP2 POP POP JUMP JUMPDEST PUSH1 0x0 PUSH2 0x134E PUSH1 0x23 DUP4 PUSH2 0x1956 JUMP JUMPDEST SWAP2 POP PUSH32 0x45524332303A207472616E7366657220746F20746865207A65726F2061646472 PUSH1 0x0 DUP4 ADD MSTORE PUSH32 0x6573730000000000000000000000000000000000000000000000000000000000 PUSH1 0x20 DUP4 ADD MSTORE PUSH1 0x40 DUP3 ADD SWAP1 POP SWAP2 SWAP1 POP JUMP JUMPDEST PUSH1 0x0 PUSH2 0x13B4 PUSH1 0x22 DUP4 PUSH2 0x1956 JUMP JUMPDEST SWAP2 POP PUSH32 0x45524332303A206275726E20616D6F756E7420657863656564732062616C616E PUSH1 0x0 DUP4 ADD MSTORE PUSH32 0x6365000000000000000000000000000000000000000000000000000000000000 PUSH1 0x20 DUP4 ADD MSTORE PUSH1 0x40 DUP3 ADD SWAP1 POP SWAP2 SWAP1 POP JUMP JUMPDEST PUSH1 0x0 PUSH2 0x141A PUSH1 0x22 DUP4 PUSH2 0x1956 JUMP JUMPDEST SWAP2 POP PUSH32 0x45524332303A20617070726F766520746F20746865207A65726F206164647265 PUSH1 0x0 DUP4 ADD MSTORE PUSH32 0x7373000000000000000000000000000000000000000000000000000000000000 PUSH1 0x20 DUP4 ADD MSTORE PUSH1 0x40 DUP3 ADD SWAP1 POP SWAP2 SWAP1 POP JUMP JUMPDEST PUSH1 0x0 PUSH2 0x1480 PUSH1 0x1D DUP4 PUSH2 0x1956 JUMP JUMPDEST SWAP2 POP PUSH32 0x45524332303A20696E73756666696369656E7420616C6C6F77616E6365000000 PUSH1 0x0 DUP4 ADD MSTORE PUSH1 0x20 DUP3 ADD SWAP1 POP SWAP2 SWAP1 POP JUMP JUMPDEST PUSH1 0x0 PUSH2 0x14C0 PUSH1 0x26 DUP4 PUSH2 0x1956 JUMP JUMPDEST SWAP2 POP PUSH32 0x45524332303A207472616E7366657220616D6F756E7420657863656564732062 PUSH1 0x0 DUP4 ADD MSTORE PUSH32 0x616C616E63650000000000000000000000000000000000000000000000000000 PUSH1 0x20 DUP4 ADD MSTORE PUSH1 0x40 DUP3 ADD SWAP1 POP SWAP2 SWAP1 POP JUMP JUMPDEST PUSH1 0x0 PUSH2 0x1526 PUSH1 0x21 DUP4 PUSH2 0x1956 JUMP JUMPDEST SWAP2 POP PUSH32 0x45524332303A206275726E2066726F6D20746865207A65726F20616464726573 PUSH1 0x0 DUP4 ADD MSTORE PUSH32 0x7300000000000000000000000000000000000000000000000000000000000000 PUSH1 0x20 DUP4 ADD MSTORE PUSH1 0x40 DUP3 ADD SWAP1 POP SWAP2 SWAP1 POP JUMP JUMPDEST PUSH1 0x0 PUSH2 0x158C PUSH1 0x25 DUP4 PUSH2 0x1956 JUMP JUMPDEST SWAP2 POP PUSH32 0x45524332303A207472616E736665722066726F6D20746865207A65726F206164 PUSH1 0x0 DUP4 ADD MSTORE PUSH32 0x6472657373000000000000000000000000000000000000000000000000000000 PUSH1 0x20 DUP4 ADD MSTORE PUSH1 0x40 DUP3 ADD SWAP1 POP SWAP2 SWAP1 POP JUMP JUMPDEST PUSH1 0x0 PUSH2 0x15F2 PUSH1 0x24 DUP4 PUSH2 0x1956 JUMP JUMPDEST SWAP2 POP PUSH32 0x45524332303A20617070726F76652066726F6D20746865207A65726F20616464 PUSH1 0x0 DUP4 ADD MSTORE PUSH32 0x7265737300000000000000000000000000000000000000000000000000000000 PUSH1 0x20 DUP4 ADD MSTORE PUSH1 0x40 DUP3 ADD SWAP1 POP SWAP2 SWAP1 POP JUMP JUMPDEST PUSH1 0x0 PUSH2 0x1658 PUSH1 0x25 DUP4 PUSH2 0x1956 JUMP JUMPDEST SWAP2 POP PUSH32 0x45524332303A2064656372656173656420616C6C6F77616E63652062656C6F77 PUSH1 0x0 DUP4 ADD MSTORE PUSH32 0x207A65726F000000000000000000000000000000000000000000000000000000 PUSH1 0x20 DUP4 ADD MSTORE PUSH1 0x40 DUP3 ADD SWAP1 POP SWAP2 SWAP1 POP JUMP JUMPDEST PUSH1 0x0 PUSH2 0x16BE PUSH1 0x1F DUP4 PUSH2 0x1956 JUMP JUMPDEST SWAP2 POP PUSH32 0x45524332303A206D696E7420746F20746865207A65726F206164647265737300 PUSH1 0x0 DUP4 ADD MSTORE PUSH1 0x20 DUP3 ADD SWAP1 POP SWAP2 SWAP1 POP JUMP JUMPDEST PUSH2 0x16FA DUP2 PUSH2 0x19FB JUMP JUMPDEST DUP3 MSTORE POP POP JUMP JUMPDEST PUSH2 0x1709 DUP2 PUSH2 0x1A05 JUMP JUMPDEST DUP3 MSTORE POP POP JUMP JUMPDEST PUSH1 0x0 PUSH1 0x60 DUP3 ADD SWAP1 POP PUSH2 0x1724 PUSH1 0x0 DUP4 ADD DUP7 PUSH2 0x12EA JUMP JUMPDEST PUSH2 0x1731 PUSH1 0x20 DUP4 ADD DUP6 PUSH2 0x12EA JUMP JUMPDEST PUSH2 0x173E PUSH1 0x40 DUP4 ADD DUP5 PUSH2 0x16F1 JUMP JUMPDEST SWAP5 SWAP4 POP POP POP POP JUMP JUMPDEST PUSH1 0x0 PUSH1 0x40 DUP3 ADD SWAP1 POP PUSH2 0x175B PUSH1 0x0 DUP4 ADD DUP6 PUSH2 0x12EA JUMP JUMPDEST PUSH2 0x1768 PUSH1 0x20 DUP4 ADD DUP5 PUSH2 0x16F1 JUMP JUMPDEST SWAP4 SWAP3 POP POP POP JUMP JUMPDEST PUSH1 0x0 PUSH1 0x20 DUP3 ADD SWAP1 POP PUSH2 0x1784 PUSH1 0x0 DUP4 ADD DUP5 PUSH2 0x12F9 JUMP JUMPDEST SWAP3 SWAP2 POP POP JUMP JUMPDEST PUSH1 0x0 PUSH1 0x20 DUP3 ADD SWAP1 POP DUP2 DUP2 SUB PUSH1 0x0 DUP4 ADD MSTORE PUSH2 0x17A4 DUP2 DUP5 PUSH2 0x1308 JUMP JUMPDEST SWAP1 POP SWAP3 SWAP2 POP POP JUMP JUMPDEST PUSH1 0x0 PUSH1 0x20 DUP3 ADD SWAP1 POP DUP2 DUP2 SUB PUSH1 0x0 DUP4 ADD MSTORE PUSH2 0x17C5 DUP2 PUSH2 0x1341 JUMP JUMPDEST SWAP1 POP SWAP2 SWAP1 POP JUMP JUMPDEST PUSH1 0x0 PUSH1 0x20 DUP3 ADD SWAP1 POP DUP2 DUP2 SUB PUSH1 0x0 DUP4 ADD MSTORE PUSH2 0x17E5 DUP2 PUSH2 0x13A7 JUMP JUMPDEST SWAP1 POP SWAP2 SWAP1 POP JUMP JUMPDEST PUSH1 0x0 PUSH1 0x20 DUP3 ADD SWAP1 POP DUP2 DUP2 SUB PUSH1 0x0 DUP4 ADD MSTORE PUSH2 0x1805 DUP2 PUSH2 0x140D JUMP JUMPDEST SWAP1 POP SWAP2 SWAP1 POP JUMP JUMPDEST PUSH1 0x0 PUSH1 0x20 DUP3 ADD SWAP1 POP DUP2 DUP2 SUB PUSH1 0x0 DUP4 ADD MSTORE PUSH2 0x1825 DUP2 PUSH2 0x1473 JUMP JUMPDEST SWAP1 POP SWAP2 SWAP1 POP JUMP JUMPDEST PUSH1 0x0 PUSH1 0x20 DUP3 ADD SWAP1 POP DUP2 DUP2 SUB PUSH1 0x0 DUP4 ADD MSTORE PUSH2 0x1845 DUP2 PUSH2 0x14B3 JUMP JUMPDEST SWAP1 POP SWAP2 SWAP1 POP JUMP JUMPDEST PUSH1 0x0 PUSH1 0x20 DUP3 ADD SWAP1 POP DUP2 DUP2 SUB PUSH1 0x0 DUP4 ADD MSTORE PUSH2 0x1865 DUP2 PUSH2 0x1519 JUMP JUMPDEST SWAP1 POP SWAP2 SWAP1 POP JUMP JUMPDEST PUSH1 0x0 PUSH1 0x20 DUP3 ADD SWAP1 POP DUP2 DUP2 SUB PUSH1 0x0 DUP4 ADD MSTORE PUSH2 0x1885 DUP2 PUSH2 0x157F JUMP JUMPDEST SWAP1 POP SWAP2 SWAP1 POP JUMP JUMPDEST PUSH1 0x0 PUSH1 0x20 DUP3 ADD SWAP1 POP DUP2 DUP2 SUB PUSH1 0x0 DUP4 ADD MSTORE PUSH2 0x18A5 DUP2 PUSH2 0x15E5 JUMP JUMPDEST SWAP1 POP SWAP2 SWAP1 POP JUMP JUMPDEST PUSH1 0x0 PUSH1 0x20 DUP3 ADD SWAP1 POP DUP2 DUP2 SUB PUSH1 0x0 DUP4 ADD MSTORE PUSH2 0x18C5 DUP2 PUSH2 0x164B JUMP JUMPDEST SWAP1 POP SWAP2 SWAP1 POP JUMP JUMPDEST PUSH1 0x0 PUSH1 0x20 DUP3 ADD SWAP1 POP DUP2 DUP2 SUB PUSH1 0x0 DUP4 ADD MSTORE PUSH2 0x18E5 DUP2 PUSH2 0x16B1 JUMP JUMPDEST SWAP1 POP SWAP2 SWAP1 POP JUMP JUMPDEST PUSH1 0x0 PUSH1 0x20 DUP3 ADD SWAP1 POP PUSH2 0x1901 PUSH1 0x0 DUP4 ADD DUP5 PUSH2 0x16F1 JUMP JUMPDEST SWAP3 SWAP2 POP POP JUMP JUMPDEST PUSH1 0x0 PUSH1 0x40 DUP3 ADD SWAP1 POP PUSH2 0x191C PUSH1 0x0 DUP4 ADD DUP6 PUSH2 0x16F1 JUMP JUMPDEST PUSH2 0x1929 PUSH1 0x20 DUP4 ADD DUP5 PUSH2 0x16F1 JUMP JUMPDEST SWAP4 SWAP3 POP POP POP JUMP JUMPDEST PUSH1 0x0 PUSH1 0x20 DUP3 ADD SWAP1 POP PUSH2 0x1945 PUSH1 0x0 DUP4 ADD DUP5 PUSH2 0x1700 JUMP JUMPDEST SWAP3 SWAP2 POP POP JUMP JUMPDEST PUSH1 0x0 DUP2 MLOAD SWAP1 POP SWAP2 SWAP1 POP JUMP JUMPDEST PUSH1 0x0 DUP3 DUP3 MSTORE PUSH1 0x20 DUP3 ADD SWAP1 POP SWAP3 SWAP2 POP POP JUMP JUMPDEST PUSH1 0x0 PUSH2 0x1972 DUP3 PUSH2 0x19FB JUMP JUMPDEST SWAP2 POP PUSH2 0x197D DUP4 PUSH2 0x19FB JUMP JUMPDEST SWAP3 POP DUP3 PUSH32 0xFFFFFFFFFFFFFFFFFFFFFFFFFFFFFFFFFFFFFFFFFFFFFFFFFFFFFFFFFFFFFFFF SUB DUP3 GT ISZERO PUSH2 0x19B2 JUMPI PUSH2 0x19B1 PUSH2 0x1A77 JUMP JUMPDEST JUMPDEST DUP3 DUP3 ADD SWAP1 POP SWAP3 SWAP2 POP POP JUMP JUMPDEST PUSH1 0x0 PUSH2 0x19C8 DUP3 PUSH2 0x19DB JUMP JUMPDEST SWAP1 POP SWAP2 SWAP1 POP JUMP JUMPDEST PUSH1 0x0 DUP2 ISZERO ISZERO SWAP1 POP SWAP2 SWAP1 POP JUMP JUMPDEST PUSH1 0x0 PUSH20 0xFFFFFFFFFFFFFFFFFFFFFFFFFFFFFFFFFFFFFFFF DUP3 AND SWAP1 POP SWAP2 SWAP1 POP JUMP JUMPDEST PUSH1 0x0 DUP2 SWAP1 POP SWAP2 SWAP1 POP JUMP JUMPDEST PUSH1 0x0 PUSH1 0xFF DUP3 AND SWAP1 POP SWAP2 SWAP1 POP JUMP JUMPDEST PUSH1 0x0 JUMPDEST DUP4 DUP2 LT ISZERO PUSH2 0x1A30 JUMPI DUP1 DUP3 ADD MLOAD DUP2 DUP5 ADD MSTORE PUSH1 0x20 DUP2 ADD SWAP1 POP PUSH2 0x1A15 JUMP JUMPDEST DUP4 DUP2 GT ISZERO PUSH2 0x1A3F JUMPI PUSH1 0x0 DUP5 DUP5 ADD MSTORE JUMPDEST POP POP POP POP JUMP JUMPDEST PUSH1 0x0 PUSH1 0x2 DUP3 DIV SWAP1 POP PUSH1 0x1 DUP3 AND DUP1 PUSH2 0x1A5D JUMPI PUSH1 0x7F DUP3 AND SWAP2 POP JUMPDEST PUSH1 0x20 DUP3 LT DUP2 EQ ISZERO PUSH2 0x1A71 JUMPI PUSH2 0x1A70 PUSH2 0x1AA6 JUMP JUMPDEST JUMPDEST POP SWAP2 SWAP1 POP JUMP JUMPDEST PUSH32 0x4E487B7100000000000000000000000000000000000000000000000000000000 PUSH1 0x0 MSTORE PUSH1 0x11 PUSH1 0x4 MSTORE PUSH1 0x24 PUSH1 0x0 REVERT JUMPDEST PUSH32 0x4E487B7100000000000000000000000000000000000000000000000000000000 PUSH1 0x0 MSTORE PUSH1 0x22 PUSH1 0x4 MSTORE PUSH1 0x24 PUSH1 0x0 REVERT JUMPDEST PUSH1 0x0 PUSH1 0x1F NOT PUSH1 0x1F DUP4 ADD AND SWAP1 POP SWAP2 SWAP1 POP JUMP JUMPDEST PUSH2 0x1AEF DUP2 PUSH2 0x19BD JUMP JUMPDEST DUP2 EQ PUSH2 0x1AFA JUMPI PUSH1 0x0 DUP1 REVERT JUMPDEST POP JUMP JUMPDEST PUSH2 0x1B06 DUP2 PUSH2 0x19CF JUMP JUMPDEST DUP2 EQ PUSH2 0x1B11 JUMPI PUSH1 0x0 DUP1 REVERT JUMPDEST POP JUMP JUMPDEST PUSH2 0x1B1D DUP2 PUSH2 0x19FB JUMP JUMPDEST DUP2 EQ PUSH2 0x1B28 JUMPI PUSH1 0x0 DUP1 REVERT JUMPDEST POP JUMP INVALID LOG2 PUSH5 0x6970667358 0x22 SLT KECCAK256 PUSH17 0x177577A9B2F3F2CA73761659D5500A8B2C POP NUMBER 0x4C SWAP4 JUMP CALLDATALOAD MOD 0xFB PUSH29 0x364E12B6AA64736F6C6343000800003300000000000000000000000000 "
				},
				"gasEstimates": {
					"creation": {
						"codeDepositCost": "1401800",
						"executionCost": "infinite",
						"totalCost": "infinite"
					},
					"external": {
						"allowance(address,address)": "infinite",
						"approve(address,uint256)": "infinite",
						"balanceOf(address)": "1564",
						"buy(uint256)": "infinite",
						"decimals()": "410",
						"decreaseAllowance(address,uint256)": "infinite",
						"increaseAllowance(address,uint256)": "infinite",
						"name()": "infinite",
						"proposals(uint256)": "infinite",
						"sell(uint256)": "infinite",
						"symbol()": "infinite",
						"totalSupply()": "1160",
						"transfer(address,uint256)": "infinite",
						"transferFrom(address,address,uint256)": "infinite",
						"vote(uint256,bool)": "infinite"
					}
				},
				"methodIdentifiers": {
					"allowance(address,address)": "dd62ed3e",
					"approve(address,uint256)": "095ea7b3",
					"balanceOf(address)": "70a08231",
					"buy(uint256)": "d96a094a",
					"decimals()": "313ce567",
					"decreaseAllowance(address,uint256)": "a457c2d7",
					"increaseAllowance(address,uint256)": "39509351",
					"name()": "06fdde03",
					"proposals(uint256)": "013cf08b",
					"sell(uint256)": "e4849b32",
					"symbol()": "95d89b41",
					"totalSupply()": "18160ddd",
					"transfer(address,uint256)": "a9059cbb",
					"transferFrom(address,address,uint256)": "23b872dd",
					"vote(uint256,bool)": "c9d27afe"
				}
			},
			"storageLayout": {
				"storage": [
					{
						"astId": 15,
						"contract": "contracts/Govern.sol:Govern",
						"label": "_balances",
						"offset": 0,
						"slot": "0",
						"type": "t_mapping(t_address,t_uint256)"
					},
					{
						"astId": 21,
						"contract": "contracts/Govern.sol:Govern",
						"label": "_allowances",
						"offset": 0,
						"slot": "1",
						"type": "t_mapping(t_address,t_mapping(t_address,t_uint256))"
					},
					{
						"astId": 23,
						"contract": "contracts/Govern.sol:Govern",
						"label": "_totalSupply",
						"offset": 0,
						"slot": "2",
						"type": "t_uint256"
					},
					{
						"astId": 25,
						"contract": "contracts/Govern.sol:Govern",
						"label": "_name",
						"offset": 0,
						"slot": "3",
						"type": "t_string_storage"
					},
					{
						"astId": 27,
						"contract": "contracts/Govern.sol:Govern",
						"label": "_symbol",
						"offset": 0,
						"slot": "4",
						"type": "t_string_storage"
					},
					{
						"astId": 601,
						"contract": "contracts/Govern.sol:Govern",
						"label": "hasVoted",
						"offset": 0,
						"slot": "5",
						"type": "t_mapping(t_address,t_bool)"
					},
					{
						"astId": 612,
						"contract": "contracts/Govern.sol:Govern",
						"label": "numProposals",
						"offset": 0,
						"slot": "6",
						"type": "t_uint256"
					},
					{
						"astId": 617,
						"contract": "contracts/Govern.sol:Govern",
						"label": "proposals",
						"offset": 0,
						"slot": "7",
						"type": "t_mapping(t_uint256,t_struct(Proposal)610_storage)"
					}
				],
				"types": {
					"t_address": {
						"encoding": "inplace",
						"label": "address",
						"numberOfBytes": "20"
					},
					"t_bool": {
						"encoding": "inplace",
						"label": "bool",
						"numberOfBytes": "1"
					},
					"t_mapping(t_address,t_bool)": {
						"encoding": "mapping",
						"key": "t_address",
						"label": "mapping(address => bool)",
						"numberOfBytes": "32",
						"value": "t_bool"
					},
					"t_mapping(t_address,t_mapping(t_address,t_uint256))": {
						"encoding": "mapping",
						"key": "t_address",
						"label": "mapping(address => mapping(address => uint256))",
						"numberOfBytes": "32",
						"value": "t_mapping(t_address,t_uint256)"
					},
					"t_mapping(t_address,t_uint256)": {
						"encoding": "mapping",
						"key": "t_address",
						"label": "mapping(address => uint256)",
						"numberOfBytes": "32",
						"value": "t_uint256"
					},
					"t_mapping(t_uint256,t_struct(Proposal)610_storage)": {
						"encoding": "mapping",
						"key": "t_uint256",
						"label": "mapping(uint256 => struct Govern.Proposal)",
						"numberOfBytes": "32",
						"value": "t_struct(Proposal)610_storage"
					},
					"t_string_storage": {
						"encoding": "bytes",
						"label": "string",
						"numberOfBytes": "32"
					},
					"t_struct(Proposal)610_storage": {
						"encoding": "inplace",
						"label": "struct Govern.Proposal",
						"members": [
							{
								"astId": 603,
								"contract": "contracts/Govern.sol:Govern",
								"label": "yesCount",
								"offset": 0,
								"slot": "0",
								"type": "t_uint256"
							},
							{
								"astId": 605,
								"contract": "contracts/Govern.sol:Govern",
								"label": "noCount",
								"offset": 0,
								"slot": "1",
								"type": "t_uint256"
							},
							{
								"astId": 609,
								"contract": "contracts/Govern.sol:Govern",
								"label": "hasVoted",
								"offset": 0,
								"slot": "2",
								"type": "t_mapping(t_address,t_bool)"
							}
						],
						"numberOfBytes": "96"
					},
					"t_uint256": {
						"encoding": "inplace",
						"label": "uint256",
						"numberOfBytes": "32"
					}
				}
			},
			"userdoc": {
				"kind": "user",
				"methods": {},
				"version": 1
			}
		}
	}
}